:100000000C940C070C9473070C9473070C947307EF
:100010000C9473070C9473070C9473070C94730778
:100020000C9473070C9473070C9403350C947307AA
:100030000C9473070C9473070C9473070C94730758
:100040000C94963D0C9473070C9473070C947307EF
:100050000C94133E0C9497360C9473070C9473070E
:100060000C9473070C9473070C9473070C94730728
:100070000C9473070C9473070C9473070C94730718
:100080000C942D6F0C9473070C9473070C947307E6
:100090000C9473070C94730774637069705F6970D4
:1000A00076365F6F75747075743A206E6272206375
:1000B0006163686520656E747279207374616C6524
:1000C000206D6F76696E6720746F2064656C61794E
:1000D0000A0074637069705F697076365F6F75745B
:1000E0007075743A206E6272206361636865206582
:1000F0006E74727920696E636F6D706C6574650AD9
:100100000046414C4C4241434B3A2072656D6F763C
:10011000696E672065787420686472732026207386
:10012000657474696E672070726F746F2025642027
:1001300025640A00111100110000000000000000F9
:1001400000001100021213FFFE1415161ACDAB00A9
:10015000000001010100020101000301010004018E
:10016000010006010100070101000A0101000B0165
:1001700001000C0101000D0101000E01010011013F
:100180000100140101001601010002020100010139
:100190000200020102000301020004010200050145
:1001A00002001B0201000101010102010101030122
:1001B0000101040101010501010101010201020126
:1001C000020103010201000101FD020101FD010123
:1001D00001FD060101FD030101FD040101FD726144
:1001E000776D6F64650041746D656C000000000000
:1001F0000A004D554C544943415354200042524F3C
:1002000041444341535420004449524543544544DA
:100210002000414C4C5F4D554C54494341535420B0
:100220000050524F4D495343554F5553200063647E
:10023000635F65636D3A2052656365697665642026
:100240005345545F45544845524E45545F504143D1
:100250004B45545F46494C5445523A202830782546
:100260003034582920000112010002EF020140EB56
:1002700003212000100102030109028D0004810501
:100280008032080B00020202FF0B09040000010289
:1002900002FF0B05240010010524010000042402C4
:1002A0000005240600010705830308000109040175
:1002B00000020A0000000705810240000107050254
:1002C00002400001080B02020202011009040200B0
:1002D000010202011005240010010524010303049A
:1002E0002402020524060203070584032000FF09F7
:1002F000040300020A000000070585022000010730
:1003000005060220000109024300020106803209AD
:10031000040000010202FF0B052400100105240166
:1003200000000424020005240600010705830308D9
:10033000000109040100020A0000000705810240D3
:100340000001070502024000010902200001030725
:1003500080320904000002020C070C070583030821
:100360000001070581024000010902400002020865
:10037000803209040000000206000D05240010016F
:1003800005240600010D240F0400000000180500DC
:10039000000009040100020A000000070581024074
:1003A00000010705020240000109028A00048209D7
:1003B0008032080B00020206000D09040000000252
:1003C00006000D052400100105240600010D240F70
:1003D0000400000000180500000009040100020AE2
:1003E00000000007058102400001070502024000ED
:1003F00001080B02020202011009040200010202BC
:100400000110052400100105240103030424020245
:100410000524060203070584032000FF09040300E6
:10042000020A0000000705850220000107050602F8
:1004300020000104030904303132333435363738B3
:10044000396162636465660041746D656C004A6180
:10045000636B64617720364C6F5750414E20416486
:100460006170746F7200524E4449532B446562753B
:100470006700524E444953004344432D45454D00C7
:100480004344432D45434D004344432D45434D2BA9
:10049000444542554700446562756720506F727449
:1004A0000033323231313030313233343537393252
:1004B0003730363136313532323232323232323210
:1004C000322563206973206E6F7420612076616C21
:1004D0006964206F7074696F6E21206820666F7286
:1004E000206D656E750A0D00526573657474696ED2
:1004F000672E2E2E0A0D00456E746572696E672098
:10050000444655204D6F64652E2E2E0A0D00446F13
:100510006E652E0A000A003A0023002025643A2066
:1005200025303264644220000A002E00456E657258
:100530006779205363616E3A0A0020202A204E65B5
:100540007665722D7573656420737461636B203EEC
:100550002025642062797465730A0D0061637469F3
:1005600076650A0D006E6F74200020202A20436FEC
:100570006E66696775726174696F6E3A2025642CC6
:10058000205553423C2D3E4554482069732000209D
:10059000202A2043757272656E742F4C6173742F1C
:1005A000536D616C6C65737420525353493A202526
:1005B000642F25642F2D2D64426D0A0D0020202A02
:1005C0002043757272656E742F4C6173742F536D76
:1005D000616C6C65737420525353493A2025642F23
:1005E00025642F256464426D0A0D000A0D00202049
:1005F0002A204F70657261746573206F6E20636886
:10060000616E6E656C20256420776974682054588B
:1006100020706F776572200020202A203830322E1B
:1006200031352E34204555492D36343A2025303287
:10063000783A253032783A253032783A2530327897
:100640003A253032783A253032783A253032783AC5
:10065000253032780A0020202A2055534220457444
:100660006865726E6574204D41433A2025303278BA
:100670003A253032783A253032783A253032783A95
:10068000253032783A253032780A004F757470750B
:100690007420726177203830322E31352E34206646
:1006A00072616D65730A0D006E6F7420006465637E
:1006B0006F6D707265737320366C6F7770616E202A
:1006C000686561646572730A0D20202A2057696C81
:1006D0006C20006E6F7420006368616E6765206C2B
:1006E000696E6B2D6C6F63616C20616464726573FD
:1006F00073657320696E73696465204950206D6568
:100700007373616765730A0D20202A2057696C6C2A
:1007100020006E6F74200073656E642064617461E4
:10072000206F7665722052460A0D20202A205769D4
:100730006C6C20006E6F74200043757272656E746D
:100740006C79204A61636B6461773A0A0D20202A34
:100750002057696C6C2000526F7574696E67207445
:1007600061626C6520636C6561726564210A0D00CD
:100770004C6F63616C2072657061697220696E698B
:100780007469617465640A0D00476C6F62616C2066
:100790007265706169722072657475726E7320255E
:1007A000640A0D000A0D2D2D2D2D2D2D2D2D2D0A18
:1007B0000D0020203C6E6F6E653E00290A0D002959
:1007C00020256C75730A0D002F2575202876696128
:1007D00020000A0D526F75746573205B2575206DBE
:1007E00061785D0A0D0020203C6E6F6E653E000A48
:1007F0000D000A0D4E65696768626F7273205B2594
:1008000075206D61785D0A0D000A0D000A0D4164C6
:1008100064726573736573205B2575206D61785D07
:100820000A0D000A53656C656374207472616E73FF
:100830006D697420706F7765722028303D2B3364AA
:10084000426D2031353D2D31372E3264426D2920E5
:100850005B25645D3A20000A53656C65637420383B
:1008600030322E31352E34204368616E6E656C2037
:10087000696E2072616E67652031312D3236205BE2
:1008800025645D3A20004A61636B646177206E6F76
:10089000772063617074757265732072617720666A
:1008A00072616D65730A0D004A61636B6461772044
:1008B000646F6573206E6F74206361707475726508
:1008C00020726177206672616D65730A0D004A615E
:1008D000636B646177206E6F7720706572666F72EC
:1008E0006D7320366C6F7770616E207472616E73F9
:1008F0006C6174696F6E730A0D004A61636B6461A9
:100900007720646F6573206E6F7420706572666FF8
:10091000726D20366C6F7770616E207472616E73C9
:100920006C6174696F6E0A0D004A61636B64617774
:10093000206E6F7720696E206E6574776F726B2002
:100940006D6F64650A0D00507265737320616E7976
:10095000206B657920746F2073746F702E0A0D0000
:100960002A2A2A2A2A2A2A2A2A0A0D002A2A2A2A4E
:100970002A2A2A2A2A6F6E206368616E6E656C20AF
:10098000253264207769746820706F776572200063
:100990002A2A2A2A2A2A2A2A4A61636B6461772032
:1009A000697320636F6E74696E756F75736C7920EF
:1009B00062726F616463617374696E672A2A2A2A9E
:1009C0002A2A2A0A0D002A2A2A2A2A5741524E493F
:1009D0004E4720526164696F206D6179206F7665A2
:1009E000726865617420696E2074686973206D6F28
:1009F00064652A2A2A2A2A2A2A0A0D004A61636B78
:100A0000646177206E6F77206265686176696E67D2
:100A100020697473656C662E0A0D004A61636B640D
:100A20006177206E6F7720696E20736E69666665E8
:100A300072206D6F64650A0D004272696E67696E9F
:100A40006720696E746572666163652075700A0D52
:100A5000004272696E67696E6720696E74657266BE
:100A600061636520646F776E0A0D00082008000A34
:100A70000D5472616E736D697420706F77657220AA
:100A8000756E6368616E6765642E0A0D000A0D5409
:100A900072616E736D697420706F77657220636820
:100AA000616E67656420746F2025642E0A0D002036
:100AB000000A0D496E76616C696420696E70757408
:100AC0000A0D00082008000A0D4368616E6E656C0F
:100AD00020756E6368616E6765642E0A0D000A0DED
:100AE0004368616E6E656C206368616E6765642043
:100AF000746F2025642E0A0D000A0D496E76616C14
:100B0000696420696E7075740A0D002578003A00DA
:100B10003A3A002563256325632E256364426D0000
:100B20002A2A2A2A2A2A2A2A2A2A2A2A2A2A2A2A25
:100B30002A2A2A2A2A2A2A2A2A2A2A2A2A2A2A2A15
:100B40002A2A2A0A0D002A207072657373696E675B
:100B500020796F75722063686F696365206F6E20FE
:100B60006B6579626F6172642A0A0D002A204D61FB
:100B70006B652073656C656374696F6E20617420AA
:100B8000616E792074696D652062792020202A0ABF
:100B90000D002A202020202020202020202020207E
:100BA0002020202020202020202020202020202045
:100BB000202020202A0A0D002A2020682C3F2020F7
:100BC000202020205072696E742074686973206D33
:100BD000656E75202020202020202A0A0D002A2062
:100BE0002052202020202020202052657365742070
:100BF0002876696120574454292020202020202075
:100C00002A0A0D002A2020442020202020202020F5
:100C100053776974636820746F20444655206D6F64
:100C20006465202020202A0A0D002A20206520202B
:100C3000202020202020456E657267792053636153
:100C40006E20202020202020202020202A0A0D0095
:100C50002A202047202020202020202052504C20D5
:100C6000476C6F62616C2052657061697220202050
:100C700020202A0A0D002A20204E2020202020207B
:100C8000202052504C204E65696768626F72732055
:100C900020202020202020202A0A0D002A20205356
:100CA0002020202020202020456E61626C6520736A
:100CB0006E65657A6572206D6F64652020202A0A52
:100CC0000D002A2020722020202020202020546F78
:100CD00067676C6520726177206D6F6465202020E6
:100CE000202020202A0A0D002A2020362020202023
:100CF00020202020546F67676C6520366C6F7770FA
:100D0000616E20202020202020202A0A0D002A2089
:100D1000207020202020202020205365742052465F
:100D200020706F7765722020202020202020202036
:100D30002A0A0D002A2020632020202020202020A5
:100D4000536574205246206368616E6E656C202086
:100D50002020202020202A0A0D002A20206E20207A
:100D600020202020202053657420746F206E65742D
:100D7000776F726B206D6F64652020202A0A0D004A
:100D80002A2020732020202020202020536574203A
:100D9000746F20736E6966666572206D6F6465207E
:100DA00020202A0A0D002A20206D2020202020202B
:100DB00020205072696E742063757272656E7420A3
:100DC0006D6F6465202020202A0A0D00202020203D
:100DD000202020205B4275696C74204D61792031A0
:100DE0003320323031335D2020202020200A0D00B6
:100DF0000A0D2A2A2A2A2A2A2A2A2A2A2A204A6143
:100E0000636B646177204D656E75202A2A2A2A2A31
:100E10002A2A2A2A2A0A0D0011241FBECFEFD0E267
:100E2000DEBFCDBF04B603FE39C014BE8091A31F40
:100E30009091A41FA091A51FB091A61F8A3C2CEAF7
:100E4000920722E4A2072CEDB207A1F41092A31F8F
:100E50001092A41F1092A51F1092A61F88E10FB632
:100E6000F89480936000109260000FBEE0E0F0EF15
:100E7000099520C08091A31F9091A41FA091A51F48
:100E8000B091A61F0196A11DB11D8093A31F909341
:100E9000A41FA093A51FB093A61F0CC086EC9CEACC
:100EA000A2E4BCED8093A31F9093A41FA093A51F61
:100EB000B093A61F12E0A0E0B1E0E8E4F6E001E0A4
:100EC0000BBF02C007900D92A838B107D9F71FE1F8
:100ED000A8E8B2E001C01D92A33AB107E1F70E9471
:100EE00013200C9422830C9400002F923F924F9277
:100EF0005F926F927F928F929F92AF92BF92CF92AA
:100F0000DF92EF92FF920F931F93DF93CF93CDB7B2
:100F1000DEB7CE5FD0400FB6F894DEBF0FBECDBFB8
:100F20005C01DC018D919C911197009731F0B1E04B
:100F3000883A9B0709F07FC121C080E090E062E21F
:100F40007DE340E050E00E949D0E909389028093E3
:100F50008802009729F4F5011182108282E070C1A5
:100F600026E13EE2DC0151963C932E93509788EAAD
:100F700091E0F5019183808381E062C18091361612
:100F80006817A9F78091911581FFF1CF8E010F5F4E
:100F90001F4FC80160E071E00E94BD7FF801019021
:100FA0000020E9F7319725ED422E29E1522ECC247D
:100FB000DD2481E09EE2292E312CD2019C919923DF
:100FC00009F402C1C29C7001C39CF00CD29CF00CCD
:100FD000112426ED39E1E20EF31E99248824D7016D
:100FE000BC91C450DF4FB883CC5FD040C550DF4FB9
:100FF0001882CB5FD040D70111968C911197C550C4
:10100000DF4F68807980CB5FD040680E711C61141F
:10101000710491F497FC10C0692C6394992029F411
:10102000CF0169E071E00E94BD7FF80101900020CE
:10103000E9F73197962C34C019146CF0882069F0C8
:10104000CF016CE071E00E94BD7FF80101900020AB
:10105000E9F7319702C099249A9400D000D000D0CB
:101060002DB73EB72F5F3F4FADB7BEB71296FC937B
:10107000EE9311978EE091E0F9019383828375825C
:1010800064820E941880F80101900020E9F73197EE
:10109000ADB7BEB716960FB6F894BEBF0FBEADBFC4
:1010A000B2E08B0E22E030E0E20EF31E382D30313C
:1010B00009F095CFCF0161E171E00E94BD7FD801B9
:1010C0000D900020E9F7CD010197C29C7001C39CEF
:1010D000F00CD29CF00C1124E8EEF9E1EE0EFF1EAC
:1010E00099248824D701BC91C250DF4FB883CE5FCA
:1010F000D040C350DF4F1882CD5FD040F70121812F
:10110000C350DF4F68807980CD5FD040620E711C84
:101110006114710491F497FC10C0692C63949920B8
:1011200021F469E071E00E94BD7FD8010D9000209C
:10113000E9F7CD010197962C33C019146CF0882083
:1011400069F06CE071E00E94BD7FF8010190002021
:10115000E9F7CF01019702C099249A9400D000D0FA
:1011600000D0EDB7FEB73196ADB7BEB712969C93DF
:101170008E9311972EE031E033832283758264824F
:101180000E941880D8010D900020E9F7CD01019749
:10119000EDB7FEB736960FB6F894FEBF0FBEEDBFA3
:1011A000F2E08F0E22E030E0E20EF31E382D3031F7
:1011B00009F098CF63E171E00E94BD7FF8010190D2
:1011C0000020E9F7319780E00894C11CD11CAEE201
:1011D000B0E04A0E5B1EBAE0CB16D10409F0EDCEAA
:1011E000882359F0CF0166E171E00E94BD7FFE01C6
:1011F000319601900020E9F73197108280918802A2
:1012000090918902282F392FD901E3E9F0E120E1FB
:1012100001900D922150E1F7BE016F5F7F4FFB01FE
:1012200001900020E9F7AF0141505040461B570B99
:101230000E94EA109CCED50111961C921E9283E06A
:10124000C250DF4F0FB6F894DEBF0FBECDBFCF91B7
:10125000DF911F910F91FF90EF90DF90CF90BF90A3
:10126000AF909F908F907F906F905F904F903F9046
:101270002F9008959C0141505040460F571FDB01AD
:1012800010C0FC91E0E011968C911197BF01680F9E
:10129000711D260F371F2617370710F42F5F3F4F9A
:1012A0001296A417B50768F3A417B50749F49C91E3
:1012B00080E0280F391F2817390710F42F5F3F4FA0
:1012C000C90108950F931F93DF93CF9300D0CDB73B
:1012D000DEB700918B0230918F1020E010E0201BD0
:1012E000310B90919010290F311D3A832983298168
:1012F0003A81A901480F511DCA0163E970E140E23A
:1013000050E00E943A0949815A81B8016D547F4EDC
:101310000E943A09009719F0382F292F02C02FEFA9
:101320003FEFC9010F900F90CF91DF911F910F9167
:101330000895A0918B026A2F70E06A5C7F4FFB01D9
:10134000E358FF4E418150E083E0440F551F8A95DA
:10135000E1F7495F5F4F22E054C0FC01E60FF71F41
:10136000E358FF4E3081313009F448C0313018F075
:101370003336D1F402C02F5F44C020938C020E9408
:101380002655009709F047C090918C0280918B02FE
:10139000E92FF0E0E80FF11DED54FF4E8181890F38
:1013A0008E5F80938C0235C0832F90E0807C90709C
:1013B0008038910549F0803C910549F080349105D1
:1013C000E9F420938C0227C020938C0206C020935E
:1013D0008C028091A3108F3F01F130E040E050E09B
:1013E0002A0F311D411D511D285D3F4F4F4F5F4F4B
:1013F00084E062E00E94F41182E0089581818E5FB2
:10140000280F822F90E0481759070CF0A6CF2093A1
:101410008C0280E0089581E0089581E008959C01A8
:10142000AB0180E090E0B9010E943A09382F292FE2
:10143000C901089580E090E06BE870E148E250E077
:101440000E943A09009719F0382F292F02C02FEF78
:101450003FEFC90108958AE30E946209089581E17E
:101460000E94620908950E943C1E80E094E09093DF
:101470008E0280938D0240E089E190E00EC0242F1F
:1014800030E0289FF001299FF00D389FF00D1124C6
:10149000E056FA4E118A108A4F5F463080F340932F
:1014A0008F0208950F931F93CF93DF9360918B0268
:1014B0006623E9F070E0C0917110D0917210C61BE4
:1014C000D70B8E01085210406D547F4E83EB90E194
:1014D000A8010E94A47FD0937210C0937110EBE812
:1014E000F0E114839E012852258310928B02DF9134
:1014F000CF911F910F9108950F931F93CF93DF9377
:1015000020918D0230918E0249E150E02F5F3F4FD4
:10151000EDE720303E0710F020E030E1B22FA32F9E
:1015200010E012C0C12FD0E0C49FF001C59FF00DA4
:10153000D49FF00D1124E056FA4E0088F189E02D79
:10154000EA17FB0719F31F5F163061F730938E021D
:1015500020938D0210E049E150E019C0012F0F5F88
:10156000212F30E0249FF001259FF00D349FF00DD6
:101570001124E056FA4EDF015096C089D189209798
:1015800029F410938F02309749F433C0102F16308E
:1015900028F310938F02E0E0F0E02BC040918D0221
:1015A00050918E0254274527542711965C934E93F1
:1015B000738B628B009731F480E1EF0119928A9569
:1015C000E9F707C0EF01DC0180E10D90099281503D
:1015D000E1F789E190E0289FD001299FB00D389F65
:1015E000B00D1124A056BA4E8091441654968C9397
:1015F0005497CF01DF91CF911F910F9108950F93D1
:101600001F93CF93DF93843009F4DBC227EC30E1E2
:101610003093971520939615309374102093731080
:10162000853019F5E0919415F0919515808991898F
:10163000009709F424C310929915109298152C5014
:101640003040309397152093961530937410209363
:10165000731010929F1510929E1510927210109296
:10166000711088E080939115AAC2E901EC978091EE
:101670008B10807F803609F002C390918F1080E03C
:1016800040919010840F911D4091711050917210F3
:101690004817590708F4F3C2889690937210809304
:1016A0007110809193108F3F09F4E9C226533040A6
:1016B000309393152093921510928B0210928A0208
:1016C000809191108823F9F481E080938A020E942E
:1016D0009909813009F4D3C2813018F0823099F42D
:1016E000D6C280918B02E82FF0E0ED54FF4EF093CC
:1016F0009315E0939215885F9181990F990F990F37
:10170000890F80938B0283EA90E10E94A5190097CC
:1017100009F01CC183EA90E10E94DB1A009709F0EE
:1017200015C12091A3102F3F09F495C02E3F29F435
:101730008091A410803809F48EC0809193108E3F60
:1017400029F480919410803809F485C08091931019
:1017500090919410009759F5809195109091961062
:10176000009729F580919710909198100097F9F4BF
:101770008091991090919A100097C9F480919B10D4
:1017800090919C10009799F480919D1090919E10DB
:10179000009769F480919F109091A010009739F400
:1017A0008091A1109091A210009709F454C08091EB
:1017B000A3109091A410009761F58091A5109091CD
:1017C000A610009731F58091A7109091A81000976E
:1017D00001F58091A9109091AA100097D1F4809101
:1017E000AB109091AC100097A1F48091AD10909146
:1017F000AE10009771F48091AF109091B0100097E7
:1018000041F48091B110882321F48091B21081308D
:1018100011F1809171109091721025E08130920742
:1018200038F082E060E020E035E040E050E009C0C0
:1018300080919210823040F483E060E020E030E05C
:10184000A9010E94F41123C20E94D75580919210E1
:1018500081508F831CC2809193108E3F09F00FC27C
:1018600080919410803809F00AC280919310909171
:101870009410009759F580919510909196100097CB
:1018800029F580919710909198100097F9F4809124
:10189000991090919A100097C9F480919B109091A3
:1018A0009C10009799F480919D1090919E10009744
:1018B00069F480919F109091A010009739F4809165
:1018C000A1109091A210009709F4D9C18091A310A2
:1018D0009091A410009769F58091A5109091A610A1
:1018E000009739F58091A7109091A810009709F5FD
:1018F0008091A9109091AA100097D9F48091AB1013
:101900009091AC100097A9F48091AD109091AE1019
:10191000009779F48091AF109091B010009749F43E
:101920008091B110882329F48091B210813009F49C
:10193000A6C12F3F09F4A3C183EA90E10E94751963
:10194000882309F09CC181E062E078CFE091921594
:10195000F091931580818C3209F491C18D3240F45D
:10196000813109F4A0C08B3271F1882351F052C04B
:101970008B3309F484C18C3351F08A3309F04AC0A7
:1019800053C080918A0280FD45C0816009C080916A
:101990008A0281FF04C086FD3DC0806401C0826070
:1019A00080938A020E949909813009F468C18130CC
:1019B00018F0823059F66BC180918B02E82FF0E06D
:1019C000ED54FF4E1AC080918A0282FD23C08460CC
:1019D00080938A0280918B02282F30E0F901ED5428
:1019E000FF4E9381992349F0265D3F4F442737FDF1
:1019F0004095542F84E060E024CFF0939315E0935A
:101A00009215885F9181990F990F990F890F809393
:101A10008B029CCFEB58F0419F01442737FD409546
:101A2000542F84E061E00DCF0E942B0AAFEF8F3F6F
:101A30009A0709F024C1E0918B02F0E0E358FF4ED1
:101A400086A90E94000FE0918B02F0E0E358FF4E60
:101A500086A98638E1F0873838F48138C1F08538B6
:101A6000B1F08038A1F410C0883841F0883818F0FF
:101A70008B3969F406C00E944C130DC00E94D71523
:101A80000AC00E94EF4E07C00E94531104C010927A
:101A900072101092711080917110909172100097D5
:101AA00009F4EDC0F4C00E94520A80917110909127
:101AB0007210C09790937210809371108BEB90E12D
:101AC00090939715809396158091B9109091BA10C4
:101AD000009739F00E942F0ABFEF8F3F9B0709F054
:101AE000CEC00091B5101091B6100115110509F482
:101AF000C6C080EA95E1909395158093941540C0F7
:101B0000888999890097B9F108171907A1F58A8979
:101B10009B89009739F02091B3103091B4102817A9
:101B2000390749F5888199810097E1F48A819B8181
:101B30000097C1F48C819D810097A1F48E819F81D3
:101B4000009781F488859985009761F48A859B8543
:101B5000009741F48C859D85009721F48E859F85A3
:101B60000097C1F083E990E1BE0140E150E00E949E
:101B70008E7F009779F06996D0939515C093941550
:101B8000C0919415D0919515E6E1C633DE0708F4AF
:101B9000B7CF75C0109299151092981582E0809376
:101BA00091158BEB90E190939715809396159093F8
:101BB00074108093731010929F1510929E150E94BE
:101BC000D21080919E1590919F15009709F457C0EF
:101BD0009C01205D3F4F3093721020937110CBE831
:101BE000D0E108969C8328522D83E0919415F091C2
:101BF000951524892F8321E12E838E01085D1F4FC7
:101C0000982789279827D80115969C938E93149727
:101C100017961C921E921697808991899093B41002
:101C20008093B3108289938913969C938E93129715
:101C3000DE01589680E101900D928150E1F783E931
:101C400090E163EA70E10E94A01D87EC90E190931F
:101C50009715809396150E942F0A80959095F8010C
:101C600097838683009721F48FEF9FEF9783868376
:101C700080E680938B1019821B821A8208C0109212
:101C800072101092711010928B0210928A021092B0
:101C90009115DF91CF911F910F910895382F292F22
:101CA000C9010895382F292F40E050E07627672793
:101CB000762780E090E0CB0177276627262B372B0D
:101CC000482B592BB901CA010895AC01E09173105A
:101CD000F0917410222733272E1B3F0B2F563A4EBC
:101CE000621773070CF49B011216130664F4209319
:101CF0009E1530939F154E175F0729F0CF01BA014B
:101D0000A9010E949B7F0895E0919802F0919902A9
:101D1000309711F00995089580E008959093990205
:101D2000809398020895FC0180916F06909170064F
:101D3000968B858B708F678B0895CF93DF93EA0125
:101D40000E947C0AFC01009741F080916F069091FF
:101D50007006968B858BD08FC78BCF01DF91CF918B
:101D600008950F931F93DF93CF93CDB7DEB760979E
:101D70000FB6F894DEBF0FBECDBF8C01AB018FEF65
:101D800092E09A8389831C821B821E821D821886A0
:101D90001F821A8619861C861B861E861D8680E079
:101DA00091E0988B8F87CE010196B8010E949D0E1D
:101DB000FC01009711F0118B008BCF0160960FB6DC
:101DC000F894DEBF0FBECDBFCF91DF911F910F9171
:101DD000089520919A1530919B152115310571F4C4
:101DE00020916F063091700630939B1520939A15C1
:101DF00090939D1580939C1580E0089581E008954F
:101E0000DF93CF930F92CDB7DEB7898380919A1578
:101E100090919B15009739F060913716AE014F5F96
:101E20005F4F0E949B580F90CF91DF9108958BE2F6
:101E300091E062E040E050E00E949B5810927210E6
:101E40001092711010928B022E9A08950F931F9387
:101E5000CF93DF938091711090917210009709F4E5
:101E600001C125E08130920708F0EDC003EA10E1DE
:101E70008091A3109091A410009759F58091A5101E
:101E80009091A610009729F58091A7109091A81025
:101E90000097F9F48091A9109091AA100097C9F4C5
:101EA0008091AB109091AC10009799F48091AD1097
:101EB0009091AE10009769F48091AF109091B0109E
:101EC000009739F48091B1109091B210009709F405
:101ED000BAC08091A3108F3F09F4BAC083EA90E1A1
:101EE0000E9475198823F1F583EA90E10E94AB1CEA
:101EF0000097A9F50E94B0188C01009799F500D0C1
:101F000000D000D0EDB7FEB7319681E091E0ADB7DB
:101F1000BEB712969C938E93119780918B02828309
:101F200013828091B310848315820E94F87FEDB7ED
:101F3000FEB736960FB6F894FEBF0FBEEDBF809188
:101F40008B02882331F00091B3100E94520A009353
:101F50009110E0913501F0913601099574C08C0122
:101F60000D5E1F4FC8010E946C56009709F06BC0B0
:101F7000C8010E94D917EC010097A1F5C80160E0E3
:101F800070E040E020E00E943917EC01009709F46E
:101F90005AC083E990E10E94A519AE014F5F5F4FDF
:101FA000009719F083E990E102C080E090E060E0E2
:101FB00070E00E94001560914D1670914E16809150
:101FC0004F169091501628EE33E040E050E00E940A
:101FD000D07ECE018196BA01A9010E94625D81E0A6
:101FE0008BA736C08DA5882391F400D082ED90E0B8
:101FF000ADB7BEB712969C938E9311970E94F87F4F
:1020000010927210109271100F900F902BC08230AE
:10201000B1F483E08DA7CE01499645E050E060E041
:1020200070E00E94625D1BA600D088E990E0EDB7E9
:10203000FEB7928381830E94F87F0F900F90CE01AC
:1020400041960E94840E10927210109271100AC074
:1020500080E090E00E94840E109272101092711035
:1020600010928B02DF91CF911F910F9108950F93E2
:102070001F93CF93DF93EC018A01888199810097A8
:1020800031F023E08331920709F07DC01DC00E942A
:10209000E857809336160E94E8578093371680E9F8
:1020A00092E06EE370E00E945A5B0E94330AE09176
:1020B0003301F091340109950E941F4183E193E0BF
:1020C0009983888381E062C06230B9F1633018F48B
:1020D0006130A1F727C0673819F0683879F70FC069
:1020E000E0EAF5E1858996898017910711F4118A54
:1020F000108A799686E1E633F807A1F7DFCF22E070
:102100004039520719F4CA010E94855B87E10D3CF2
:102110001807A1F6C8010E94855B009779F20E941A
:10212000341B2EC04115510549F25093951540932B
:10213000941585E00E94FF0A23C080917110909150
:102140007210009709F4BACF80919110863071F423
:102150008091C01081FF0AC080E992E00E94855BF7
:10216000009721F080E992E00E94705B81E00E947C
:10217000FF0A8091711090917210009709F49ECF20
:102180000E94260F9BCF1982188283E0DF91CF91A6
:102190001F910F910895AC018BE291E061E00E94E4
:1021A00078580895E0919815F0919915309711F0AD
:1021B000B89605C0E0919415F091951575968081BB
:1021C0009181009731F042815381609136160E94CF
:1021D0009B580895FB013097E1F0909395158093FB
:1021E000941540939E1550939F156BEB70E1242F2F
:1021F000352F85E02531380714F024E135E0CB0197
:10220000BF01A9010E949B7F84E00E94FF0A0E94F7
:10221000260F10929F1510929E150895CF92DF926F
:10222000EF92FF920F931F93DF93CF93CDB7DEB75B
:1022300060970FB6F894DEBF0FBECDBF7C012115AD
:10224000310511F1DE011196FC0180E101900D9242
:102250008150E1F7F701C288D388D90180E10D9060
:1022600001928150E1F7F701138B028BC7010E94A5
:10227000EA10D701FE01319680E101900D92815064
:10228000E1F7F701D38AC28A60960FB6F894DEBFF1
:102290000FBECDBFCF91DF911F910F91FF90EF90B7
:1022A000DF90CF9008951F93CF93DF93CBE8D0E1D9
:1022B000809144168F838091A3108F3F81F4DE01BB
:1022C0005896FE01389680E101900D928150E1F719
:1022D00083E990E163EA70E10E94A01D1BC0AAE9B6
:1022E000B2E0FE01389680E101900D928150E1F755
:1022F000E3E9F0E1DF01509680E10D900192815019
:10230000E1F7A3EAB0E1EAE9F2E080E101900D92A1
:102310008150E1F780918B02882309F450C00E941C
:102320000657182F60918B02882361F18AE380930E
:10233000B310611721F1212F30E070E0C901861B35
:10234000970B4091711050917210480F591F509384
:10235000721040937110FA01B897FC83E42FE85291
:10236000ED83665C7F4F860F971F63587F4E421B3D
:10237000530B4C52504083589F4E0E94A47F1093A1
:102380008B021DC08AE38E8370E0409171105091E2
:102390007210461B570B5093721040937110CA0174
:1023A00088979C83842F88528D8369547F4E4C522A
:1023B000504087EB90E10E94A47F10928B028091A5
:1023C0008B02C82FD0E0CD54DF4E81E8888319827C
:1023D0001B821A820E942B0A809590959B838A8388
:1023E000DF91CF911F910895BF92CF92DF92EF922C
:1023F000FF920F931F93CF93DF93082F162F69013E
:102400007A01E0918B02EE2339F0F0E0ED54FF4EBB
:1024100080818A3349F494C0809191108A3321F4E9
:102420008091B31087FF8CC00E940657B82E80930E
:102430008B02AAE9B2E0E3EAF0E180E101900D92BB
:102440008150E1F78091711090917210C096909335
:1024500072108093711025E08130920730F080E097
:1024600095E090937210809371102B2D30E0C9018C
:10247000880F991F40917110509172104053504035
:10248000421B530B85549F4E6BE870E10E94A47F62
:1024900080E680938B1010928C1010928E10109208
:1024A0008D10BB2029F08AE3EDE7F0E186AB03C095
:1024B0008AE38093911080914416809392108091CA
:1024C000931090919410009751F5809195109091F0
:1024D0009610009721F58091971090919810009791
:1024E000F1F48091991090919A100097C1F4809125
:1024F0009B1090919C10009791F480919D10909169
:102500009E10009761F480919F109091A010009709
:1025100031F48091A1109091A210009789F0E3EA24
:10252000F0E1DF01509780E10D9001928150E1F7D9
:1025300080919A028F3F49F4043011F4123029F04F
:10254000109272101092711033C083E990E16AE921
:1025500072E00E94A01D80918B02C82FD0E0FE0186
:10256000ED54FF4E00831183C701B6010E94520E45
:10257000C954DF4E688379838A839B83809171106D
:10258000909172109C012852304030938F108852E5
:102590008093901080918B02C82FD0E0CD54DF4EF5
:1025A0001B821A820E942B0A809590959B838A83B6
:1025B000DF91CF911F910F91FF90EF90DF90CF901F
:1025C000BF900895CF92DF92FF920F931F93DF93F6
:1025D000CF930F92CDB7DEB7F62E6901EBE8F0E1AD
:1025E00020E620938B101182138212822AE3268325
:1025F00020914416278396012C5F3F4F34832C2D66
:102600002C5F25837896282F392FD90180E10D90F2
:1026100001928150E1F783E990E163EA70E1498337
:102620000E94A01D00918B0210E00D541F4EF80176
:10263000F08249814183138212820E942B0A809585
:102640009095F80193838283C6018C9690937210C3
:10265000809371100E94260F0F90CF91DF911F91F0
:102660000F91FF90DF90CF900895CF93DF93FC01FF
:10267000608382E08183EF012296A5E7B0E188E0E4
:102680000D9009928150E1F73A9686E011928A9571
:10269000E9F7DF91CF910895BF92CF92DF92EF9249
:1026A000FF920F931F93CF93DF930BE810E180917C
:1026B00092108F3F09F096C1E0918B02F0E0E35851
:1026C000FF4E86AD8F3F09F48DC187A9882309F09D
:1026D00089C11092AC021092AB0284E18093AA02ED
:1026E00022E0B22E85C0E954FF4E8181882309F48F
:1026F00079C18081813009F06BC0F093AC02E09326
:10270000AB028091931090919410009759F58091AD
:10271000951090919610009729F5809197109091BF
:1027200098100097F9F48091991090919A10009761
:10273000C9F480919B1090919C10009799F480911E
:102740009D1090919E10009769F480919F10909138
:10275000A010009739F48091A1109091A2100097D9
:1027600009F440C183E990E10E94D917EC019093EC
:10277000B0028093AF026091AB027091AC020097FF
:1027800049F46E5F7F4F83E990E140E022E00E94D0
:1027900039171EC092E0C92ED12CC60ED71E81E17A
:1027A000E82EF12CEC0EFD1EC601B70148E050E00A
:1027B0000E948E7F009741F0D701F60188E00190DA
:1027C0000D928150E1F703C08DA5882309F4BDA6C1
:1027D0009091AA02E0918B02F0E0E358FF4EE90FDE
:1027E000F11D83AD880F880F880F890F8093AA028F
:1027F00080918B022091AA0290E0FC01E20FF11D72
:10280000AF01445D5F4F20917110309172104217FB
:10281000530708F468CF85549F4E0E94A5199093E2
:10282000AE028093AD02009709F4DCC08091931052
:1028300090919410009759F5809195109091961071
:10284000009729F580919710909198100097F9F4CE
:102850008091991090919A100097C9F480919B10E3
:1028600090919C10009799F480919D1090919E10EA
:10287000009769F480919F109091A010009739F40F
:102880008091A1109091A210009709F4ABC083E948
:1028900090E10E94A519009709F0A4C08091A310AF
:1028A0008F3F09F03EC08091A4108230D1F5809115
:1028B000A5109091A6100097A1F58091A710909176
:1028C000A810009771F58091A9109091AA10009717
:1028D00041F58091AB109091AC10009711F580916B
:1028E000AD108823F1F48091AE108130D1F4809145
:1028F000AF108F3FB1F4E3EAF0E1DF01509780E1E0
:102900000D9001928150E1F7E0918B02F0E0A3E994
:10291000B0E1E554FF4E80E101900D928150E1F766
:1029200021C083EA90E10E94A5192091AD02309167
:10293000AE022817390709F055C0E3EAF0E1DF01DC
:10294000509780E10D9001928150E1F7E0918B0268
:10295000F0E0A3E9B0E1E554FF4E80E101900D9273
:102960008150E1F710928B0280E680938B10F80182
:10297000118213821282148288E285838AE386831D
:102980008FEF8783A3EBB0E188E88093B3101196B3
:102990001C92119780EE8093B710E091AD02F091F8
:1029A000AE021896319680E101900D928150E1F7C8
:1029B0008BEC90E162E00E94351380918B02C82F6E
:1029C000D0E0CD54DF4E1B821A820E942B0A8095E4
:1029D00090959B838A8380E590E09093721080931A
:1029E000711004C01092721010927110DF91CF918B
:1029F0001F910F91FF90EF90DF90CF90BF900895BF
:102A00000F931F93CF93DF938C01CA0110928B0217
:102A1000CBE8D0E120E620938B1019821B821A822A
:102A20002AE32E832FEF2F83FE017896611571051F
:102A3000E1F42093A31032E03183138212821582D5
:102A400014821782168211861086128631E033872F
:102A50002487DA011D962C911D9725871E962D91AE
:102A60003C911F973787268706C0DB0120E10D9038
:102A700001922150E1F7E0918B02F0E0E358FF4E24
:102A800027E826AB17AA12AE13AE14AE15AEFE960B
:102A9000DC0120E10D9001922150E1F71C820E949F
:102AA000A519009709F054C00115110549F0A3E9D3
:102AB000B0E1F80180E101900D928150E1F706C08C
:102AC00083E990E163EA70E10E94A01D8091931078
:102AD00090919410009779F58091951090919610AF
:102AE000009749F58091971090919810009719F5EB
:102AF0008091991090919A100097E9F480919B1021
:102B000090919C100097B9F480919D1090919E1027
:102B1000009789F480919F109091A010009759F42C
:102B20008091A1109091A210009729F41092721038
:102B30001092711037C088E28D8380918B0290E0F3
:102B400085539F4E61E00E94351380E590E018C0E8
:102B5000E3E9F0E110929410109293101382128224
:102B600015821482178216821186108613861286A9
:102B7000158614861786168688E18D8380E490E09A
:102B8000909372108093711080918B02C82FD0E0C7
:102B9000CD54DF4E1B821A820E942B0A809590959D
:102BA0009B838A83DF91CF911F910F910895DF92CC
:102BB000EF92FF920F931F93CF93DF9320918B029D
:102BC00030E0F901E954FF4EE080809192108F3F90
:102BD00009F0F0C0D901AD54BF4E11968C911197F8
:102BE000882309F0E7C084818F3F09F4E3C040E403
:102BF000D42EDE20E6FE05C08091A3108F3F09F49D
:102C0000D9C0409171105091721004E180E090E0C1
:102C100016C0A954BF4E11966C911197662339F4D2
:102C20009093AC028093AB020093AA02C3C07C9144
:102C3000723009F4CD01660F660F660F060FD901D9
:102C4000A00FB11DBD01645D7F4F6417750708F3C8
:102C50009093AC028093AB020093AA02CF0104963A
:102C60000E94A5199093AE028093AD02009709F0DF
:102C7000A1C080918B0290E085549F4E0E94D9178D
:102C8000EC019093B0028093AF02009709F492C0D8
:102C90000091AB021091AC020115110551F0BC017D
:102CA0006F5E7F4FC801029648E050E00E948E7F21
:102CB00001C080E030E8F32EFE209DA5992351F558
:102CC0000115110509F476C0DE015196F80132961E
:102CD00088E001900D928150E1F7DD20C1F081E0A4
:102CE0008DA71BA66091491670914A1680914B16CC
:102CF00090914C1628EE33E040E050E00E94D07EE8
:102D0000CE014996BA01A9010E94625D4EC082E0DF
:102D10008DA74BC0E5FC08C0882331F0913009F045
:102D200049C082E08DA746C00115110549F0DE01BA
:102D30005196F801329698E001900D929150E1F78A
:102D4000DD20B9F081E08DA76091491670914A1697
:102D500080914B1690914C1628EE33E040E050E005
:102D60000E94D07ECE014996BA01A9010E94625DFF
:102D700007C00115110521F0882311F082E08DA70D
:102D8000E091AF02F091B00284A5882371F0FF209A
:102D900061F483E990E10E9492189093B2028093CB
:102DA000B102009711F00E948D18E091AF02F091EE
:102DB000B002F4A61092721010927110DF91CF91B0
:102DC0001F910F91FF90EF90DF9008958F929F9247
:102DD000AF92BF92CF92DF92EF92FF920F93CF9379
:102DE000DF935A014901F7011182108270E0469F7A
:102DF0006001479FD00C569FD00C1124C80ED91EDD
:102E0000069506950695EC0116C08881882371F019
:102E1000CE010196B401402F50E00E948E7F0097B2
:102E200041F4F701D183C08380E010C0F701D18362
:102E3000C083CA0DDB1DCC15DD0538F3F701808199
:102E40009181009711F081E001C082E0DF91CF9184
:102E50000F91FF90EF90DF90CF90BF90AF909F9039
:102E60008F900895009721F0FC0110820E94054187
:102E70000895BF92CF92DF92EF92FF920F931F932C
:102E8000CF93DF93182FD92EEB01C42EB22E89E0F9
:102E900098E16AE04EE250E0212F3D2D00E871ED0F
:102EA000E72E72E0F72E0E94E61690E08130910541
:102EB00009F054C0E091D102F091D20281E0808308
:102EC000E091D102F091D2023196812F9D2DDC014B
:102ED00080E10D9001928150E1F78091D1029091B3
:102EE000D202209741F0FC01719688E0099001928E
:102EF0008150E1F707C04196FC0188E0DF011D9297
:102F00008A95E9F7E091D102F091D202C4A6B5A664
:102F1000CF01499640E050E0BA010E94625D809185
:102F2000D1029091D202819640E050E0BA010E9415
:102F3000625D8091D1029091D202FC0113A60E94A1
:102F40000541C091D102D091D2020E94F5359AA7D5
:102F500089A72091D1023091D20220C08230910500
:102F6000D9F40E94F5359C0180E090E0E9E0F8E1B9
:102F70004081442339F041A552A54217530710F46C
:102F80009A01CF01BE9649E1E53DF40789F7009724
:102F900019F00E9432177BCF20E030E0C901DF91A9
:102FA000CF911F910F91FF90EF90DF90CF90BF9046
:102FB0000895EF92FF920F93CF93DF939C0189E0E6
:102FC00098E16AE04EE250E000E8E1EDEE2EE2E04A
:102FD000FE2E0E94E616882369F4C091D102D0919A
:102FE000D2020E94F5359AA789A72091D10230918B
:102FF000D20202C020E030E0C901DF91CF910F91F1
:10300000FF90EF900895EF92FF920F931F93CF934D
:10301000DF938C0189E098E19093D2028093D102F2
:1030200012C08881882351F0BE016F5E7F4FC801B6
:1030300048E050E00E948E7F009779F0AE96D093E2
:10304000D202C093D102C091D102D091D20229E123
:10305000C53DD20730F3C0E0D0E0CE01DF91CF9183
:103060001F910F91FF90EF9008959F92AF92BF92A2
:10307000CF92DF92EF92FF920F931F93182F992E0A
:103080005A016B0185ED97E162E04AE150E0212FA2
:10309000392D00E8FFECEF2EF2E0FF2E0E94E6163D
:1030A000813071F5E091CF02F091D0028083E09100
:1030B000CF02F091D0023196812F992DDC0180E171
:1030C0000D9001928150E1F78091CF029091D00252
:1030D000A114B104C104D10459F04196B601A5016F
:1030E0000E94625DE091CF02F091D002118E03C088
:1030F00021E0FC01218F2091CF023091D00202C04B
:1031000020E030E0C9011F910F91FF90EF90DF9018
:10311000CF90BF90AF909F900895009711F0FC0161
:1031200010820895EF92FF920F939C0185ED97E135
:1031300062E04AE150E000E8AFECEA2EA2E0FA2EAD
:103140000E94E616882329F42091CF023091D00204
:1031500002C020E030E0C9010F91FF90EF90089588
:103160001092CE021092CD0285ED97E122C0FC01B3
:1031700020812223C9F001960E94D917009759F0A7
:10318000FC0185A5882339F02091CF023091D0022F
:103190002F5F3F4F1EC08091CF029091D0020196C9
:1031A0009093CE028093CD028091CF029091D00275
:1031B0004A969093D0028093CF028091CF02909153
:1031C000D002F8E189309F0790F22091CD02309132
:1031D000CE02C90108952F923F924F925F926F9253
:1031E0007F928F929F92AF92BF92CF92DF92EF9297
:1031F000FF920F931F93DF93CF930F92CDB7DEB75C
:10320000882E792E962E642E722F170128018DE5B7
:1032100097E164E04CE150E0282D372D092DBBECFF
:10322000EB2EB2E0FB2E79830E94E6167981813085
:1032300011F5E091CB02F091CC028083E091CB02BA
:10324000F091CC023196882D972DDC0180E10D9014
:1032500001928150E1F7E091CB02F091CC02918A8A
:10326000628A738F238A348A458A568AA78AB08EE7
:10327000C18ED28E02C0E0E0F0E0CF010F90CF917E
:10328000DF911F910F91FF90EF90DF90CF90BF9053
:10329000AF909F908F907F906F905F904F903F90F6
:1032A0002F900895009711F0FC0110820895EF927D
:1032B000FF920F939C01062F8DE597E164E04CE1AE
:1032C00050E07BECE72E72E0F72E0E94E616882392
:1032D00029F42091CB023091CC0202C020E030E0F2
:1032E000C9010F91FF90EF9008950F931F93CF9313
:1032F000DF938C018DE597E19093CC028093CB0214
:1033000014C08881882361F0498946954695469581
:10331000CE010196B80150E00E948E7F009779F0AF
:103320006C96D093CC02C093CB02C091CB02D091CB
:10333000CC0287E1CD3CD80720F380E001C081E0DA
:10334000DF91CF911F910F910895EF92FF920F930C
:103350009C0182E596E164E04CE150E000E8E3EB9B
:10336000EE2EE2E0FE2E0E94E616882329F420913C
:10337000B3023091B40202C020E030E0C9010F91E5
:10338000FF90EF90089522E536E13093B402209348
:10339000B302282F332727FD309515C0908199233C
:1033A00069F08F3F29F0418950E04217530731F40B
:1033B00091819E3F19F49281903879F07C96F09338
:1033C000B402E093B302E091B302F091B40296E14B
:1033D000E23CF90718F3E0E0F0E0CF01089522E5C0
:1033E00036E13093B4022093B302282F332727FD10
:1033F000309515C09081992369F08F3F29F041895C
:1034000050E04217530731F491819E3F91F492812D
:10341000903879F47C96F093B402E093B302E09193
:10342000B302F091B40296E1E23CF90718F3E0E050
:10343000F0E0CF010895DF92EF92FF920F931F9378
:10344000182FD92E85EF96E166E041E150E0212F5B
:103450003D2D00E8F9EBEF2EF2E0FF2E0E94E6167C
:103460008130B9F4E091B902F091BA028083E09121
:10347000B902F091BA023196812F9D2DDC0180E1D5
:103480000D9001928150E1F72091B9023091BA027A
:1034900002C020E030E0C9011F910F91FF90EF9032
:1034A000DF900895AF92BF92CF92DF92EF92FF929A
:1034B0000F931F93CF93DF93EC015A016B01122FEF
:1034C00082E596E164E04CE150E09E0100E8A3EB68
:1034D000EA2EA2E0FA2E0E94E616813009F058C0CA
:1034E000E091B302F091B4028083E091B302F091D5
:1034F000B4023196DE0180E10D9001928150E1F736
:10350000E091B302F091B402128BA114B104C10492
:10351000D10419F481E0838B07C0138ACF0144964C
:10352000B601A5010E94625DE091B302F091B40280
:1035300091E0918B8FEF8093BB0222E02093BC023D
:103540001092BE021092BD021092C0021092BF02F1
:103550001092C2021092C1021092C4021092C302D1
:103560001092C5029093C6028093C7028D85809306
:10357000C8028E859F859093CA028093C9028BEB07
:1035800092E00E941B1A2091B3023091B40202C053
:1035900020E030E0C901DF91CF911F910F91FF90A2
:1035A000EF90DF90CF90BF90AF900895009711F00B
:1035B000FC0110820895EF92FF920F939C0185EF1A
:1035C00096E166E041E150E000E8B9EBEB2EB2E0B5
:1035D000FB2E0E94E616882329F42091B90230912F
:1035E000BA0202C020E030E0C9010F91FF90EF90D5
:1035F0000895CF93DF93EC01009799F18FEF8093BB
:10360000BB0292E09093BC021092BE021092BD02E7
:103610001092C0021092BF021092C2021092C10218
:103620001092C4021092C3021092C50291E09093CE
:10363000C6028093C7028E858093C8028F859889C1
:103640009093CA028093C9028BEB92E00E94DB1A2E
:103650009093BA028093B902009711F0FC01108296
:103660001882DF91CF910895CF92DF92EF92FF926F
:103670000F931F93CF93DF9382E596E117C080816C
:10368000882379F08389882361F4CF0144960E94CE
:10369000905D009731F08091B3029091B4020E9446
:1036A000F91A8091B3029091B4024C969093B402AF
:1036B0008093B302E091B302F091B40226E1E23CC0
:1036C000F207E8F285ED97E118C08081882381F048
:1036D000818D882369F4CF0141960E94905D009707
:1036E00039F0E091CF02F091D002309709F01082CA
:1036F0008091CF029091D0024A969093D00280930D
:10370000CF02E091CF02F091D00288E1E930F807D2
:10371000E0F289E098E19093D2028093D10222E016
:10372000D22E98EEE92E93E0F92E012D112D84E092
:10373000C82EA1C0FC012081222309F493C025A535
:10374000213049F1213030F0233089F1243009F063
:1037500089C03FC0FC0123A5233008F050C08196EA
:103760000E94905D009709F47DC080917110909146
:103770007210009709F076C0E091D102F091D20268
:1037800083A58F5F83A7AF014F5F5F4F80E090E01D
:1037900060E070E04FC049960E94905D009709F488
:1037A00061C0E091D102F091D202D5A65BC04996EA
:1037B0000E94905D009709F455C0E091D102F0910C
:1037C000D202C5A613A6CF01819640E050E0BA010F
:1037D00047C0FC0123A52330A8F001960E9492184F
:1037E000FC019093D0028093CF02009721F0818D4D
:1037F000882309F410828091D1029091D2020E9414
:10380000321730C081960E94905D009759F18091E7
:10381000711090917210009729F5E091D102F0910A
:10382000D20283A58F5F83A7AF014F5F5F4F80E018
:1038300090E0BA010E940015C091D102D091D2024D
:1038400060914D1670914E1680914F1690915016C2
:10385000A80197010E94D07ECE018196BA01A901EC
:103860000E94625D8091D1029091D2028E969093D7
:10387000D2028093D1028091D1029091D202F9E1DB
:10388000853D9F0708F456CF8DEC97E10E94655B5C
:10389000DF91CF911F910F91FF90EF90DF90CF902C
:1038A0000895DF92EF92FF920F931F93182FD92E56
:1038B00082EC96E163E041E150E0212F3D2D00E8EC
:1038C00077EBE72E72E0F72E0E94E6168130B9F40E
:1038D000E091B702F091B8028083E091B702F091D5
:1038E000B8023196812F9D2DDC0180E10D9001926F
:1038F0008150E1F72091B7023091B80202C020E078
:1039000030E0C9011F910F91FF90EF90DF90089573
:10391000009711F0FC0110820895EF92FF920F932F
:103920009C0182EC96E163E041E150E000E8E7EBC6
:10393000EE2EE2E0FE2E0E94E616882329F4209166
:10394000B7023091B80202C020E030E0C9010F9107
:10395000FF90EF900895CF92DF92EF92FF920F9336
:103960001F93CF93DF937C0185ED99E19093B6028D
:103970008093B502CC2400E010E01AC0888188232F
:1039800091F0D988DC1478F0BE016F5F7F4F4D2D28
:10399000469546954695C70150E00E948E7F009758
:1039A00011F4CD2C8E01AE96D093B602C093B50221
:1039B000C091B502D091B6028BE1C13AD807F0F2BE
:1039C000C801DF91CF911F910F91FF90EF90DF9091
:1039D000CF9008959F92AF92BF92CF92DF92EF92D5
:1039E000FF920F931F93CF93DF93D82EC92E162FDC
:1039F000B42EA52E922E85ED99E16AE04EE250E0BC
:103A00002D2D3C2D012FF5EBEF2EF2E0FF2E0E9425
:103A1000E616813049F5E091B502F091B602808357
:103A2000E091B502F091B60231969601832F922F64
:103A3000DC0180E10D9001928150E1F7E091B50247
:103A4000F091B602118BEF0163969501832F9A2DA9
:103A5000DC0180E10D9009928150E1F7928AB396E2
:103A60008BE011928A95E9F78091B5029091B602A8
:103A7000DF91CF911F910F91FF90EF90DF90CF904A
:103A8000BF90AF909F900895FC01108208950F930E
:103A90001F93CF93DF938C0185ED99E112C088814C
:103AA000882351F0CE014396B80140E150E00E94D6
:103AB0008E7F009709F418828091B5029091B6022A
:103AC0008E969093B6028093B502C091B502D091C4
:103AD000B6028BE1C13AD80710F3DF91CF911F9165
:103AE0000F910895CF93DF93FC01EC012896862F68
:103AF000972FDC0188E00D9009928150E1F78085D5
:103B000092E089278087DF91CF910895282F392F60
:103B1000D901862F972FFC0180E02D919191382FAC
:103B2000385F291721F4832F3038B9F70895922789
:103B300097FD05C08F5F831711F0990FF9CF089596
:103B4000BF92CF92DF92EF92FF920F931F93CF938A
:103B5000DF93EC016B01FB0180818E3F21F48181B9
:103B6000803819F432C08F3F81F182E596E190935D
:103B7000B4028093B302EE24FF24BB241DC0F801DD
:103B80008081882399F08189813081F481818E3F01
:103B900019F48281803851F0B8016F5F7F4FC60100
:103BA0000E94861D8B1510F07801B82E045E1F4F01
:103BB0001093B4020093B3020091B3021091B402C7
:103BC000F6E1023C1F07D8F204C081E00E94C3194D
:103BD0007C01E114F10489F4198218821B821A8293
:103BE0001D821C821F821E82198618861B861A86D9
:103BF0001D861C861F861E8607C0F701319680E150
:103C0000019009928150E1F7DF91CF911F910F91BF
:103C1000FF90EF90DF90CF90BF900895DF92EF92EA
:103C2000FF920F931F930E94325ED82E0E94325E45
:103C3000E0904516F09046160091471610914816F0
:103C40007D2D60E0680F791F80E090E0A80197016A
:103C50000E94D07E9B01AC0116950795F794E794DE
:103C60002E0D3F1D401F511FB901CA011F910F9119
:103C7000FF90EF90DF900895AF92BF92CF92DF92C6
:103C8000EF92FF920F931F93CF93DF938CEC91E011
:103C9000E9E0F8E1DF019C011D9221503040E1F79D
:103CA00024E3E5EDF7E1DF011D922A95E9F720E72E
:103CB000EDE5F7E1DF011D922A95E9F72BE131E00F
:103CC000E0E4F6E1DF01A9011D9241505040E1F727
:103CD000E5EDF9E1DF019C011D9221503040E1F753
:103CE0008CE180935C1782E180935B1780E095E024
:103CF000A0E0B0E08093401690934116A093421646
:103D0000B093431680E48093441680EC97E2A9E0D8
:103D1000B0E08093451690934616A0934716B09353
:103D200048160E940E1E6093491670934A1680939F
:103D30004B1690934C1680E197E2A0E0B0E08093A0
:103D40004D1690934E16A0934F16B09350161092A6
:103D50005116CBEBD2E08EEF90E89093BC028093AB
:103D6000BB021092BE021092BD021092C0021092CD
:103D7000BF021092C2021092C102CE0160E440E084
:103D800020E0EE24FF248701AA24BB2465010E94C1
:103D9000EB18CE0165E770E10E94721DCE0140E094
:103DA00050E0BA0121E00E94521A0FEF12E0109386
:103DB000BC020093BB021092BE021092BD02109290
:103DC000C0021092BF021092C2021092C102109261
:103DD000C4021092C3021092C6021092C502109241
:103DE000C8021092C70280E091E09093CA028093CB
:103DF000C902CE010E941B1A1093BC020093BB02A1
:103E00001092BE021092BD021092C0021092BF0228
:103E10001092C2021092C1021092C4021092C30208
:103E20001092C6021092C5021092C8021092C702E8
:103E300080E092E09093CA028093C902CE010E9472
:103E40001B1A8DEC97E16CE070E00E945A5BDF91E9
:103E5000CF911F910F91FF90EF90DF90CF90BF9087
:103E6000AF9008950895CF92DF92EF92FF920F9353
:103E70001F93DF93CF93CDB7DEB7A0970FB6F8941B
:103E8000DEBF0FBECDBF7C01FC01808191818A3AEB
:103E9000910599F08A3C910509F44DC0009709F00D
:103EA00050C080916F069091700665E840E050E048
:103EB0000E9478588AEA90E040C0653809F046C010
:103EC0008E010F5F1F4FC80164E371E040E150E0D5
:103ED0000E946E7F8EE1B8010E9499466C010097A6
:103EE00051F180E291E09A8B898B86E098E39C8B7C
:103EF0008B8B88E092E19E8B8D8B88EB9BE8988F73
:103F00008F8B1A8E198E1C8E1B8E1E8E1D8E82E03C
:103F100090E098A38F8F8E010F5E1F4FC80140E085
:103F200050E0BA0123E00E94521AC601B80140E4F1
:103F300050E00E9438428AEC90E0F7019183808340
:103F400005C0F7011182108283E001C081E0A096D4
:103F50000FB6F894DEBF0FBECDBFCF91DF911F919A
:103F60000F91FF90EF90DF90CF9008950E9434233F
:103F70000895DF93CF93CDB7DEB72A970FB6F894A5
:103F8000DEBF0FBECDBF88E090E00E9470829A83B2
:103F900089838A8180959981981709F43AC0DE0156
:103FA000139680E090E0FC01EC5BFE4FE491ED9312
:103FB000019688309105B9F7CE01039660E070E074
:103FC00048E050E00E947682EDE4F1E025913491E2
:103FD0008AE090E0B9010E948E82EFE4F1E0259141
:103FE00034918CE090E0B9010E948E82E1E5F1E02D
:103FF00064918EE090E00E948082ECE4F1E0E49134
:10400000E983E095EA8369817A8188E090E00E9403
:104010008E8289812A960FB6F894DEBF0FBECDBF7F
:10402000CF91DF9108950F931F93DF93CF9300D02B
:10403000CDB7DEB711240E94F4360E940037E3EAC0
:10404000FFE122E432E431832083EC59FF4F8DB746
:104050009EB784569040E817F907A8F30E947C6D3C
:104060000E94E5358AB1806A8AB98DB1806C8DB9BC
:104070005D988EE180937C0080E880937A00809147
:104080007A00806480937A0080917A0086FDFCCF6C
:1040900080917800909179000E942F5E10927A00B2
:1040A0000E94245D0E94F65785EE91E060E070E08A
:1040B0000E94AA5877988DE591E060E070E00E9438
:1040C000AA5880919F1F9091A01F009709F476989D
:1040D00088E090E00E9470829A8389838A8180952B
:1040E0009981981711F00E94B91F0E94535CE091CA
:1040F0006D01F0916E01099501EA1BE188E0F8017C
:1041000011928A95E9F7C80160E070E048E050E05C
:104110000E9458820E94A76DA5E7B0E1F80188E0EF
:1041200001900D928150E1F78AE090E00E94708248
:104130008C018CE090E00E947082BC01C80141EAD1
:104140005BE10E9434390E94B91F90E00E947F37E2
:104150008EE090E00E9468820E940D3B81EA9BE124
:104160000E944A3E0E941660E091BF01F091C0019A
:104170000995E091A601F091A7010995E0912C0223
:10418000F0912D020995E091CB01F091CC0130978F
:1041900009F009958BE291E060E070E00E94AA5876
:1041A00087E391E060E070E00E94AA5880E591E02A
:1041B00060E070E00E94AA5881E291E00E94E3581A
:1041C0005F985D9A779A769A0E9406580E940C37FB
:1041D000FBCF8091981C8761877D8093981C089500
:1041E0000F931F93CF93DF938C01EB0187E491E052
:1041F000B80146E050E00E948E7F0097C1F48091A4
:10420000A11B88838091A21B89838091A31B8A8331
:104210008091A41B8B838091A51B8C838091A61B0E
:104220008D838091A71B8E838091A81B33C0F801DA
:104230008081982F97709630E9F4282F269526953F
:104240002695822F90E0FC01EE0FFF1FE80FF91F6B
:10425000E655F44E808188838181898382818A83B7
:10426000F80181818B8382818C838091A91B28171F
:1042700058F013C08883F8018181898382818A8301
:104280008FEF8B838EEF8C83F80183818D83848104
:104290008E8385818F8381E001C080E0DF91CF91A3
:1042A0001F910F9108950F931F93CF93DF938C016C
:1042B000EB0181EA9BE148E050E00E948E7F00978D
:1042C00021F4C8010E94932565C08B818F3F31F492
:1042D0008C818E3F19F4988192FF04C03091A91B04
:1042E00020E020C090FDFACF91FFF8CFF801908335
:1042F000898181838A8147C0822F90E0FC01EE0F83
:10430000FF1FE80FF91FE655F44E9881808198173A
:1043100041F499818181981721F49A8182819817BB
:1043200019F02F5F231740F3203278F08881F801CD
:104330008083898181838A8182838D8183838E8139
:1043400084838F81858380E026C0231799F4822F90
:104350008F5F8093A91B822F90E0FC01EE0FFF1F5F
:10436000E80FF91FE655F44E8881808389818183A7
:104370008A818283220F220F220F2660F801208378
:104380008B8181838C8182838D8183838E818483E1
:104390008F81858381E0DF91CF911F910F910895E7
:1043A000282F392FD901EFE3F1E086E001900D923B
:1043B0008150E1F781E008956623C1F04115510570
:1043C000A9F020E061501416150624F4FC01E60F54
:1043D000F11D03C0FC01E20FF11DDF01A40FB51FA9
:1043E00030813C93662311F02F5FECCF08952F921C
:1043F0003F924F925F926F927F928F929F92AF9275
:10440000BF92CF92DF92EF92FF920F931F93DF93B1
:10441000CF93CDB7DEB762970FB6F894DEBF0FBE6D
:10442000CDBF2C012BE8622E20E1722EE09090107F
:1044300020918F1098E2292E312C260C371C809168
:10444000B310853811F1863858F4813008F4DFC094
:10445000853008F4DAC08058823008F0D8C0D5C062
:10446000893818F4873868F404C0893809F0CFC057
:1044700004C080E1A82EB12C0BC008E2A02EB12C04
:1044800007C018E1A12EB12C03C0B8E0AB2EB12CAF
:10449000922F80E0FF24E82AF92AEA18FB0828E096
:1044A000E216F1040CF4B5C04E010894811C911C75
:1044B000A3EBCA2EA0E1DA2ECA0CDB1CD6019C911C
:1044C000915011968C911197923008F083C090E032
:1044D000F3E0880F991FFA95E1F7029740E00BC0CF
:1044E000F401E20FF31F2C0D3D1DD90112962C9102
:1044F000129720834F5F242F30E02817390784F369
:1045000041145104A1F46E2D6650C601089648E08E
:1045100050E00E94DC21B6016E5F7F4FC4010E9413
:10452000F02022E0F601218308E010E01BC031E01A
:104530004316510409F06FC06E2D6E50C6014096AF
:1045400048EF5FEF0E94DC2186010E5F1F4FC8011C
:10455000B4010E945321882309F077C0C8010E944A
:10456000D02173C080918F108A8B198A809190100E
:1045700090E0A989BA898A2B9B2B800F911FF301A8
:10458000858394838091711090917210800F911F98
:104590009093721080937110D10113961C921E9209
:1045A00012970E942B0A80959095F1019383828344
:1045B000D60111968C91119790E09C01E3E0220FB7
:1045C000331FEA95E1F7E21AF30AE00EF11EA20E9C
:1045D000B31E16C0282F30E0882349F0C90173E0CC
:1045E000880F991F7A95E1F7E81AF90A02C0EE24BC
:1045F000FF2463E0220F331F6A95E1F7A20EB31E7A
:10460000B8E0EB16F1040CF053CF80E005C08FEF5B
:1046100003C08EEF01C08DEF62960FB6F894DEBF37
:104620000FBECDBFCF91DF911F910F91FF90EF9003
:10463000DF90CF90BF90AF909F908F907F906F90C2
:104640005F904F903F902F90089521E0F6012183D5
:1046500008EF1FEF87CF209191102A3319F40E94A1
:10466000F721089580E008958DED96E80E944E0EA2
:1046700090938A108093891089E10E940B6064E90D
:1046800071E00E94363E0097B1F083E380937D1085
:1046900080937E108091AF1080937F108091B01036
:1046A000809380108091B110809381108091B2101E
:1046B0008093821008C089E10E940B60BC018DE7E5
:1046C00090E10E94532188E10E940B60BC0183E8C5
:1046D00090E10E945321882321F483E890E10E9415
:1046E000D0218091981C82FF04C081E090E00E945C
:1046F0002B2381E693E063E970E140E150E00E9402
:104700008E7F009779F06091711070917210625FE6
:104710007F4F70937210609371108DE790E141E0CC
:104720000E944E25109272101092711008950F93EE
:104730001F93DF93CF93CDB7DEB728970FB6F894CA
:10474000DEBF0FBECDBF2091981C2272223009F02F
:104750006BC08C01FC0184859585FDED86389F0733
:1047600009F062C0F8018081833321F481818333B1
:10477000A1F43EC08F3F89F4F80181818F3F69F435
:1047800082818F3F51F483818F3F39F484818F3F41
:1047900021F485818F3F09F447C08FE391E0B80190
:1047A00046E050E00E948E7F0097D1F48091AB10DC
:1047B00092E0892789838091AC108A838091AD1023
:1047C0008B838091AE108C838091AF108D8380910C
:1047D000B0108E838091B1108F838091B210888742
:1047E000C801BE016F5F7F4F0E94F0208823E1F077
:1047F00080917110909172100E9790937210809327
:1048000071108091981C82FF04C080E090E00E94AB
:104810002B23A1E6B3E0E3E9F0E180E101900D9202
:104820008150E1F70E94170F1092721010927110D0
:1048300028960FB6F894DEBF0FBECDBFCF91DF91A3
:104840001F910F910895EF92FF921F93CF93DF93E3
:10485000382F292F162F572F8091981C83FF37C090
:10486000C1EED2E0CE01632F722F412F0E949B7FB9
:104870002E978AE990E80E944E0E9D878C8789E1E9
:104880000E940B6064E971E00E94363E009759F087
:1048900083E38093D30289831A821B8280E88C830E
:1048A0008AE98D8308C089E10E940B609C01CE01DA
:1048B000B9010E94532189ED92E00E94D021612F1D
:1048C000625F83ED92E070E040E00E944E25DF9150
:1048D000CF911F91FF90EF900895EF92FF921F9359
:1048E000CF93DF93382F292F162F572F8091981CA5
:1048F00083FF37C0C8E1DCE1CE01632F722F412F67
:104900000E949B7F2E978AE990E80E944E0E9D8719
:104910008C8789E10E940B6064E971E00E94363E59
:10492000009759F083E380930A1C89831A821B82C3
:1049300080E88C838AE98D8308C089E10E940B603E
:104940009C01CE01B9010E94532180E19CE10E94AB
:10495000D021612F625F8AE09CE170E040E00E941C
:104960004E25DF91CF911F91FF90EF900895909188
:10497000981C927281E0923009F080E0089582E004
:104980008093E9008091E800807208950E94B23817
:1049900008958091DA1C882339F081508093DA1CC5
:1049A00082FF02C05D9801C05D9A8091991C8823A6
:1049B00039F081508093991C82FF02C07798089546
:1049C000779A0895CF93DF93EC01888199810097BE
:1049D00031F021E08332920709F044C033C00E94D5
:1049E000C92480919B1D833079F0843028F4813074
:1049F00041F08230D9F40BC0813819F08238B1F41B
:104A000006C00E94FF2805C00E942F2D04C00E94EE
:104A1000D32E882329F081E793E061E070E00BC09A
:104A20004F9A81E793E06FE070E005C04F9A81E70D
:104A300093E06FE170E00E945A5B83E291E099831A
:104A4000888314C081E793E00E94855B009739F664
:104A50000E94BF24882351F00E94B238882309F0B5
:104A6000BECF04C01982188283E001C081E0DF91CB
:104A7000CF9108958091DA1C88608093DA1C90E0D1
:104A8000019782FD5D9808958091991C88608093BC
:104A9000991C90E0019782FD5D98089520914F0147
:104AA0002223E1F020919B1D2223C1F0233079F0D5
:104AB000243028F4213041F0223081F40BC0213819
:104AC00019F0223859F406C00E94EB2905C00E9453
:104AD000AA2D02C00E94782F882319F40E940C3757
:104AE00080E008951F93182F80914F018117C1F026
:104AF00080919B1D823079F0833018F4813081F4ED
:104B000005C0813819F0823859F405C010934F015F
:104B10000E94A92505C0812F0E94CB2E10934F0122
:104B200080E01F910895282F392FD901E7E4F1E0A3
:104B300086E001900D928150E1F70895E7E4F1E0FD
:104B4000282F392FD90186E00D9001928150E1F78D
:104B5000089581E080937903089584E090E0A0E0D7
:104B6000B0E88093DB1C9093DC1CA093DD1CB09319
:104B7000DE1C84E090E0A0E0B0E08093EB1C90931A
:104B8000EC1CA093ED1CB093EE1C80E190E0A0E043
:104B9000B0E08093EF1C9093F01CA093F11CB093B5
:104BA000F21C8091E71C9091E81CA091E91CB09147
:104BB000EA1C823022E0920721E0A20720E0B2073F
:104BC00009F436C1833022E0920721E0A20720E0F9
:104BD000B20708F089C08C3021E0920721E0A207DB
:104BE00020E0B20708F040C08A3021E0920721E0BF
:104BF000A20720E0B20708F031C1853021E092071A
:104C000021E0A20720E0B207E0F4833021E0920720
:104C100021E0A20720E0B20708F00AC1813021E0BC
:104C2000920721E0A20720E0B20709F4EEC082302B
:104C300021E0920721E0A20720E0B20709F0CCC1F1
:104C4000F7C0863021E0920721E0A20720E0B207FA
:104C500009F4FAC0873021E0920721E0A20720E0A2
:104C6000B20709F0B9C1F5C08F3021E0920721E009
:104C7000A20720E0B20709F430C1803121E0920799
:104C800021E0A20720E0B20798F48D3021E09207DE
:104C900021E0A20720E0B20709F4EAC08E3021E04B
:104CA000920721E0A20720E0B20708F0F6C0DBC0BF
:104CB000843121E0920721E0A20720E0B20709F445
:104CC000FAC0863121E0920721E0A20720E0B20776
:104CD00009F4FEC0813121E0920721E0A20720E023
:104CE000B20709F079C1E2C0833021E0920721E0E8
:104CF000A20721E0B20709F41CC1843021E0920729
:104D000021E0A20721E0B20708F040C0843021E092
:104D1000920722E0A20720E0B20709F426C18530FD
:104D200021E0920722E0A20720E0B207E0F48230FF
:104D300021E0920722E0A20720E0B20709F40CC1AB
:104D4000833021E0920722E0A20720E0B20708F0BA
:104D500015C1813021E0920722E0A20720E0B207CE
:104D600009F03AC1F0C0853021E0920722E0A207A5
:104D700020E0B20709F45CC0813021E0920721E015
:104D8000A20721E0B20708F427C1B3C0843021E0B4
:104D9000920722E0A20721E0B207E0F4813021E08F
:104DA000920722E0A20721E0B20708F041C0843058
:104DB00021E0920721E0A20721E0B20709F4BEC07A
:104DC000853021E0920721E0A20721E0B20709F037
:104DD00003C12EC0823021E0920721E0A2072DEF0F
:104DE000B20709F4F0C0863021E0920721E0A20763
:104DF0002DEFB207E9F0803021E0920721E0A20711
:104E00002DEFB20709F0E8C0CAC08CE890E0A0E03E
:104E1000B0E08093EB1C9093EC1CA093ED1CB0933E
:104E2000EE1C83EF9CE162E571E04CE850E032C09B
:104E30001092F31C1092F41C1092F51C1092F61CA8
:104E400080E090E0DC01D4C08AE095E0A0E0B0E032
:104E50009DC084EC99E0A0E0B0E098C086E690E0C8
:104E6000A0E0B0E093C08FEF9FEFAFEFB0E08EC057
:104E700088E090E0A0E0B0E08093EB1C9093EC1C05
:104E8000A093ED1CB093EE1C83EF9CE166EE71E005
:104E900048E050E00E946E7FD3CF80917B039091D9
:104EA0007C03A0917D03B0917E0370C088E195E002
:104EB000A0E0B0E06BC081E090E0A0E0B0E0209125
:104EC0004F01222309F462C080E090E0DC015EC063
:104ED00080E090E1A0E0B0E059C08AE095E0A0E079
:104EE000B0E08093F31C9093F41CA093F51CB09356
:104EF000F61C1092F71C1092F81C1092F91C1092DC
:104F0000FA1C83EF9CE10E9493258091EB1C909109
:104F1000EC1CA091ED1CB091EE1C0296A11DB11DE0
:104F20008093EB1C9093EC1CA093ED1CB093EE1CB3
:104F300087CF80E090E0A0E0BEE028C081E090E074
:104F4000A0E0B0E023C08091891D90918A1DA091BE
:104F50008B1DB0918C1D1AC080918D1D90918E1D5E
:104F6000A0918F1DB091901D11C08091951D9091C1
:104F7000961DA091971DB091981D08C08091911D1C
:104F80009091921DA091931DB091941D8093F31C5C
:104F90009093F41CA093F51CB093F61C51CF86E0BF
:104FA00090E0A0E0B0E08093EB1C9093EC1CA09309
:104FB000ED1CB093EE1C86E0E3EFFCE1DF011D92F7
:104FC0008A95E9F73DCF1092EB1C1092EC1C1092E1
:104FD000ED1C1092EE1C34CF1092EB1C1092EC1CC6
:104FE0001092ED1C1092EE1C81E090E0A0E0B0EC7D
:104FF0008093E71C9093E81CA093E91CB093EA1CF3
:105000002091EB1C3091EC1C4091ED1C5091EE1C5A
:10501000DA01C9014896A11DB11D8093DF1C909350
:10502000E01CA093E11CB093E21C21153105410561
:10503000510541F41092EF1C1092F01C1092F11CDB
:105040001092F21C80937A030895CF93DF93EB01C3
:105050006EED71E047E050E00E94807F009751F4D0
:1050600098818091981C903311F4877F01C08860EB
:105070008093981CDF91CF9108958091E800877FFD
:105080008093E80020917A0380E01DC09091E800B1
:1050900090FFFCCF382F305C0DC0831779F0E82FDC
:1050A000F0E0E552F34E40814093F1008F5F915064
:1050B00090937A0390917A03992379F79091E8007D
:1050C0009E7F9093E80090917A03992321F090912C
:1050D000E80092FFDBCF8091E80082FD10C0822FB4
:1050E0008F7349F48091E80080FFFCCF8091E80045
:1050F0008E7F8093E8008091E80082FFFCCF809152
:10510000E8008B7F8093E8008091E8008F778093A0
:10511000E80081E008952091E80020FF47C0209139
:105120007A03222309F044C027E030E040E050E059
:105130002093DB1C3093DC1C4093DD1C5093DE1C61
:1051400024E130E040E050E02093DF1C3093E01C8D
:105150004093E11C5093E21C6093E31C7093E41CA9
:105160008093E51C9093E61CEBEDFCE1819180932C
:10517000F1008CE1EF3EF807C9F78091E8008E7FDF
:105180008093E8008091E80080FFFCCF8091E800E8
:1051900082FFFCCF8091E8008B7F8093E8008091B4
:1051A000E8008F778093E80081E0089580E008951B
:1051B00080E008951F93CF93DF93C9EED0E083E0A2
:1051C000888381EC60E00E946D3081E0888381E813
:1051D00064E30E946D3012E0188380E864E30E946B
:1051E0006D30EAEEF0E088E0808310821083108258
:1051F00084E080831082DF91CF911F910895FF9208
:105200000F931F93CF93DF938091871D9091881DFB
:105210008230910509F0D6C080915801882321F091
:105220000E94E920109258015F9A82E08093E90081
:105230008091E80082FFC8C0809171109091721037
:10524000009709F0C1C09091F2009C3260F4809107
:10525000E8008B7F8093E8008091E8008F7780934F
:10526000E80021E001C020E0EAE9FCE18091F100E2
:1052700081938CE1E63CF807C9F784EDF82EF90E2E
:1052800080919A1C90919B1CA0919C1CB0919D1C9C
:1052900081309105A105B10559F08091E8008B7F1F
:1052A0008093E8008091E8008F778093E80021E008
:1052B0008091A61C9091A71CA091A81CB091A91C3C
:1052C0000097A105B10509F47FC0222309F07CC035
:1052D0000E943A258091A21C9091A31C8497209152
:1052E000E8002F7E2093E80025C02091F100FA9479
:1052F00001F52091E8002B7F2093E8002091E80041
:105300002F772093E8002091E80022FD04C020912F
:10531000E80024FFF8CF2091E80024FF06C0809128
:10532000E8008F7E8093E80007C0F090F200FF2035
:1053300019F001970097C9F6C091A61CD091A71C3F
:105340000DE710E11AC08091F100F80181938F01FF
:105350002197FA9491F4209781F08091E8008B7F57
:105360008093E8008091E8008F778093E8000E94A6
:105370004330882349F5F090F200209721F780917F
:10538000E8008B7F8093E8008091E8008F7780931E
:10539000E8008091A61C9091A71CA091A81CB09138
:1053A000A91C8931F5E09F07F0E0AF07F0E0BF07E7
:1053B00058F490937210809371108DE790E10E94E1
:1053C000972302C080E001C081E0DF91CF911F915F
:1053D0000F91FF900895EF92FF920F931F93DF9329
:1053E000CF930F92CDB7DEB7082F7B0121E030E0DD
:1053F00040E050E020939A1C30939B1C40939C1CEF
:1054000050939D1C24E230E040E050E02093A21C29
:105410003093A31C4093A41C5093A51C9B0140E017
:1054200050E02093A61C3093A71C4093A81C5093D7
:10543000A91C1092AE1C1092AF1C1092B01C1092BE
:10544000B11C1092AA1C1092AB1C1092AC1C1092B2
:10545000AD1C1092B21C1092B31C1092B41C10928E
:10546000B51C1092B61C1092B71C1092B81C10926A
:10547000B91C1092BA1C1092BB1C1092BC1C10924A
:10548000BD1C1092BE1C1092BF1C1092C01C10922A
:10549000C11C1092C21C1092C31C1092C41C10920A
:1054A000C51C245D3F4F4F4F5F4F20939E1C309390
:1054B0009F1C4093A01C5093A11C81E08093E900A5
:1054C0008091E8008F778093E80099830E94C52F30
:1054D0009981882371F5EAE9FCE181918093F100DB
:1054E0008CE1E63CF807C9F7192F15C0F801819146
:1054F0008F018093F1008091E80085FD09C08091C3
:10550000E8008F778093E8000E94C52F882389F4F4
:105510000894E108F108E114F10441F78091E800F2
:105520008F778093E8000E9444250E94193091E013
:10553000811190E0892F0F90CF91DF911F910F91F2
:10554000FF90EF90089565FF02C081E001C080E008
:105550000E94AF3808950F931F93DF93CF93CDB779
:10556000DEB769970FB6F894DEBF0FBECDBF2091AE
:10557000EF1C3091F01CF901ED51F34E84819581BF
:10558000A681B78183339105A105B10508F082E3B7
:1055900090E0AE014F5F5F4F14C0A92FB0E0BA0199
:1055A0006A0F7B1FAA0FBB1F00811181A00FB11FC3
:1055B000A20FB31FAD51B34E0C91DB010C9382507F
:1055C0009F5F181654F38091E71C9091E81CA091FE
:1055D000E91CB091EA1C823141E0940741E0A40744
:1055E00040E0B40709F47EC0833141E0940741E014
:1055F000A40740E0B40790F48E30E1E09E07E1E0BC
:10560000AE07E0E0BE0741F18F30F1E09F07F1E027
:10561000AF07F0E0BF0709F040C064C08B3142E043
:10562000940741E0A40740E0B40749F08330E1E08B
:105630009E07E1E0AE07E1E0BE0779F553C064855F
:105640007585620F731F6D51734E40895189CE016C
:1056500001960E94252846C02D51334ED9016D91E7
:105660007D918D919C91139760937B0370937C0344
:1056700080937D0390937E036115710581059105EB
:1056800029F00E94A32A82E090E002C081E090E02D
:105690009093881D8093871D25C085E090E0A0E051
:1056A000B0E88093DB1C9093DC1CA093DD1CB093CE
:1056B000DE1C80E190E0A0E0B0E08093DF1C9093DE
:1056C000E01CA093E11CB093E21C81E090E0A0E01C
:1056D000B0EC8093E71C9093E81CA093E91CB09376
:1056E000EA1C20C085E090E0A0E0B0E88093DB1CDD
:1056F0009093DC1CA093DD1CB093DE1C80E190E055
:10570000A0E0B0E08093DF1C9093E01CA093E11C2C
:10571000B093E21C1092E71C1092E81C1092E91C56
:105720001092EA1C80E180937A0369960FB6F89490
:10573000DEBF0FBECDBFCF91DF911F910F910895B6
:105740002091E800277F2093E800282F392FC901F6
:105750008D3A910510F08CEA90E02091E8002F7BC3
:105760002093E80020E02CC03091E8004091E80050
:1057700046FD02C032FFF8CF3091E80032FF1AC078
:10578000322F305C4091F100E22FF0E0E552F34E11
:1057900040832F5F0197231711F0009799F73091FD
:1057A000E8003B7F3093E8003091E8003F7730938A
:1057B000E80006C08091E8008F7B8093E80002C07B
:1057C000009791F68091E8008E7F8093E8008091A9
:1057D000DB1C9091DC1CA091DD1CB091DE1C8430A0
:1057E0009105A105B10509F4AAC085309105A1056F
:1057F000B10560F482309105A105B105D1F0833087
:105800009105A105B10509F0F5C08FC0863091055D
:10581000A105B10509F499C086309105A105B1052E
:1058200008F490C088309105A105B10509F0E2C0E7
:10583000BDC082E090E0A0E0B0E88093DB1C9093D4
:10584000DC1CA093DD1CB093DE1C84E390E0A0E0A0
:10585000B0E08093DF1C9093E01CA093E11CB09318
:10586000E21C81E090E0A0E0B0E08093EB1C90931C
:10587000EC1CA093ED1CB093EE1C8093EF1C909356
:10588000F01CA093F11CB093F21C1092E71C109234
:10589000E81C1092E91C1092EA1C8093F31C909370
:1058A000F41CA093F51CB093F61C1092F71C1092F8
:1058B000F81C1092F91C1092FA1C8093FB1C909318
:1058C000FC1CA093FD1CB093FE1C82E595E0A0E0BB
:1058D000B0E08093FF1C9093001DA093011DB09336
:1058E000021D83E090E0A0E0B0E08093031D909360
:1058F000041DA093051DB093061D1092071D109264
:10590000081D1092091D10920A1D10920B1D109275
:105910000C1D10920D1D10920E1D81E090E09093D1
:10592000881D8093871D84E362C05F9A5D98779895
:1059300076988091E8008E7F8093E800FFCF0E94E8
:10594000AD255BC00E94AB2A58C01092881D1092F2
:10595000871D86E090E0A0E0B0E88093DB1C909388
:10596000DC1CA093DD1CB093DE1C80E190E0A0E085
:10597000B0E08093DF1C9093E01CA093E11CB093F7
:10598000E21C1092E31C1092E41C1092E51C109291
:10599000E61C81E090E0A0E0B0E08093E71C9093EB
:1059A000E81CA093E91CB093EA1C20C088E090E0BA
:1059B000A0E0B0E88093DB1C9093DC1CA093DD1C7E
:1059C000B093DE1C80E190E0A0E0B0E08093DF1CAB
:1059D0009093E01CA093E11CB093E21C1092E71C92
:1059E0001092E81C1092E91C1092EA1C80E180934E
:1059F0007A0303C0779880E008958091E80080FFE3
:105A0000FCCF8091E80082FF0AC08091E8008B7F84
:105A10008093E8008091E8008F778093E80081E030
:105A20008093790308951F93CF93DF93C9EED0E05D
:105A300081E0888381E864E30E946D3012E018837E
:105A400080E864E30E946D30EAEEF0E0108310829B
:105A500084E080831082DF91CF911F9108951F937E
:105A6000CF93DF9380915901882321F00E94E92090
:105A7000109259015F9A82E08093E9008091E800DA
:105A800082FF64C08091711090917210009709F0AC
:105A90005DC01091F200123050F48091E8008B7FCD
:105AA0008093E8008091E8008F778093E8008091F0
:105AB000F10080939A1C9091F10090939B1C97FDAC
:105AC00045C0C92FD0E0CF73D070DC2FCC2790E039
:105AD000C82BD92B2097D1F112500E943A25CE0124
