:100000000C940D070C9474070C9474070C947407EB
:100010000C9474070C9474070C9474070C94740774
:100020000C9474070C9474070C9433350C94740777
:100030000C9474070C9474070C9474070C94740754
:100040000C94C63D0C9474070C9474070C947407BC
:100050000C94433E0C94C7360C9474070C947407AC
:100060000C9474070C9474070C9474070C94740724
:100070000C9474070C9474070C9474070C94740714
:100080000C945D6F0C9474070C9474070C947407B3
:100090000C9474070C94740774637069705F6970D2
:1000A00076365F6F75747075743A206E6272206375
:1000B0006163686520656E747279207374616C6524
:1000C000206D6F76696E6720746F2064656C61794E
:1000D0000A0074637069705F697076365F6F75745B
:1000E0007075743A206E6272206361636865206582
:1000F0006E74727920696E636F6D706C6574650AD9
:100100000046414C4C4241434B3A2072656D6F763C
:10011000696E672065787420686472732026207386
:10012000657474696E672070726F746F2025642027
:1001300025640A00111100110000000000000000F9
:1001400000001100021213FFFE1415161ACDAB00A9
:10015000000001010100020101000301010004018E
:10016000010006010100070101000A0101000B0165
:1001700001000C0101000D0101000E01010011013F
:100180000100140101001601010002020100010139
:100190000200020102000301020004010200050145
:1001A00002001B0201000101010102010101030122
:1001B0000101040101010501010101010201020126
:1001C000020103010201000101FD020101FD010123
:1001D00001FD060101FD030101FD040101FD726144
:1001E000776D6F64650041746D656C000000000000
:1001F0000A004D554C544943415354200042524F3C
:1002000041444341535420004449524543544544DA
:100210002000414C4C5F4D554C54494341535420B0
:100220000050524F4D495343554F5553200063647E
:10023000635F65636D3A2052656365697665642026
:100240005345545F45544845524E45545F504143D1
:100250004B45545F46494C5445523A202830782546
:10026000303458292000010203120100020200006C
:1002700040EB03219900100102030309028D0004E1
:1002800081058032080B00020202FF0B0904000006
:10029000010202FF0B0524001001052401000004E7
:1002A0002402000524060001070583030800010954
:1002B000040100020A000000070581024000010756
:1002C000050202400001080B0202020201100904AB
:1002D000020001020201100524001001052401039F
:1002E00003042402020524060203070584032000F8
:1002F000FF09040300020A00000007058502200030
:1003000001070506022000010902430002010680E0
:100310003209040000010202FF0B05240010010550
:1003200024010000042402000524060001070583BF
:100330000308000109040100020A0000000705810A
:1003400002400001070502024000010902200001ED
:10035000030780320904000002020C070C07058322
:100360000308000107058102400001090240000264
:100370000208803209040000000206000D05240076
:10038000100105240600010D240F040000000018D0
:100390000500000009040100020A000000070581B1
:1003A000024000010705020240000109028A000420
:1003B00082098032080B00020206000D09040000C9
:1003C000000206000D052400100105240600010DA1
:1003D000240F0400000000180500000009040100BB
:1003E000020A000000070581024000010705020221
:1003F000400001080B020202020110090402000180
:100400000202011005240010010524010303042445
:1004100002020524060203070584032000FF0904E5
:100420000300020A000000070585022000010705FD
:10043000060220000104030904303132333435361A
:100440003738396162636465660041746D656C00BC
:100450004A61636B64617720364C6F5750414E2080
:1004600041646170746F7200524E4449532B44656D
:1004700062756700524E444953004344432D45453D
:100480004D004344432D45434D004344432D4543D4
:100490004D2B444542554700446562756720506FB7
:1004A00072740033323231313030313233343537D7
:1004B0003932373036313631353232323232323209
:1004C0003232322563206973206E6F74206120768A
:1004D000616C6964206F7074696F6E21206820669A
:1004E0006F72206D656E750A0D00526573657474C8
:1004F000696E672E2E2E0A0D00456E746572696E48
:100500006720444655204D6F64652E2E2E0A0D003F
:10051000446F6E652E0A000A003A0023002025640D
:100520003A2025303264644220000A002E00456ED5
:1005300065726779205363616E3A0A0020202A2091
:100540004E657665722D7573656420737461636B97
:10055000203E2025642062797465730A0D00616372
:10056000746976650A0D006E6F74200020202A20C1
:10057000436F6E66696775726174696F6E3A2025A4
:10058000642C205553423C2D3E455448206973202D
:100590000020202A2043757272656E742F4C61739F
:1005A000742F536D616C6C65737420525353493AC8
:1005B0002025642F25642F2D2D64426D0A0D002007
:1005C000202A2043757272656E742F4C6173742FEC
:1005D000536D616C6C65737420525353493A2025F6
:1005E000642F25642F256464426D0A0D000A0D00F6
:1005F00020202A204F70657261746573206F6E2011
:100600006368616E6E656C2025642077697468206C
:10061000545820706F776572200020202A203830CF
:10062000322E31352E34204555492D36343A202589
:100630003032783A253032783A253032783A2530DF
:1006400032783A253032783A253032783A253032CD
:10065000783A253032780A0020202A20555342204B
:1006600045746865726E6574204D41433A202530AB
:1006700032783A253032783A253032783A2530329D
:10068000783A253032783A253032780A004F75743E
:1006900070757420726177203830322E31352E34E7
:1006A000206672616D65730A0D006E6F74200064C0
:1006B00065636F6D707265737320366C6F777061F0
:1006C0006E20686561646572730A0D20202A2057C8
:1006D000696C6C20006E6F7420006368616E6765E2
:1006E000206C696E6B2D6C6F63616C206164647249
:1006F000657373657320696E736964652049502062
:100700006D657373616765730A0D20202A20576930
:100710006C6C20006E6F74200073656E64206461E1
:100720007461206F7665722052460A0D20202A20BF
:1007300057696C6C20006E6F74200043757272658F
:100740006E746C79204A61636B6461773A0A0D209C
:10075000202A2057696C6C2000526F7574696E678F
:10076000207461626C6520636C6561726564210A46
:100770000D004C6F63616C20726570616972206955
:100780006E697469617465640A0D00476C6F62611B
:100790006C207265706169722072657475726E7317
:1007A0002025640A0D000A0D2D2D2D2D2D2D2D2D0A
:1007B0002D0A0D0020203C6E6F6E653E00290A0D4B
:1007C000002920256C75730A0D002F2575202876C9
:1007D000696120000A0D526F75746573205B257581
:1007E000206D61785D0A0D0020203C6E6F6E653EC5
:1007F000000A0D000A0D4E65696768626F7273200A
:100800005B2575206D61785D0A0D000A0D000A0DEB
:10081000416464726573736573205B2575206D6137
:10082000785D0A0D000A53656C656374207472610B
:100830006E736D697420706F7765722028303D2B60
:100840003364426D2031353D2D31372E3264426D97
:1008500029205B25645D3A20000A53656C6563744A
:10086000203830322E31352E34204368616E6E656B
:100870006C20696E2072616E67652031312D3236D1
:10088000205B25645D3A20004A61636B64617720D8
:100890006E6F772063617074757265732072617713
:1008A000206672616D65730A0D004A61636B646155
:1008B0007720646F6573206E6F7420636170747548
:1008C000726520726177206672616D65730A0D0032
:1008D0004A61636B646177206E6F77207065726622
:1008E0006F726D7320366C6F7770616E20747261F9
:1008F0006E736C6174696F6E730A0D004A61636B8D
:1009000064617720646F6573206E6F742070657208
:10091000666F726D20366C6F7770616E20747261D5
:100920006E736C6174696F6E0A0D004A61636B646B
:100930006177206E6F7720696E206E6574776F72B5
:100940006B206D6F64650A0D0050726573732061D2
:100950006E79206B657920746F2073746F702E0A26
:100960000D002A2A2A2A2A2A2A2A2A0A0D002A2A95
:100970002A2A2A2A2A2A2A6F6E206368616E6E65E7
:100980006C20253264207769746820706F776572F7
:1009900020002A2A2A2A2A2A2A2A4A61636B6461A9
:1009A0007720697320636F6E74696E756F75736CF1
:1009B000792062726F616463617374696E672A2A59
:1009C0002A2A2A2A2A0A0D002A2A2A2A2A57415282
:1009D0004E494E4720526164696F206D6179206FE6
:1009E0007665726865617420696E20746869732029
:1009F0006D6F64652A2A2A2A2A2A2A0A0D004A616A
:100A0000636B646177206E6F7720626568617669D9
:100A10006E6720697473656C662E0A0D004A616307
:100A20006B646177206E6F7720696E20736E6966E4
:100A3000666572206D6F64650A0D004272696E67AB
:100A4000696E6720696E7465726661636520757092
:100A50000A0D004272696E67696E6720696E74657F
:100A6000726661636520646F776E0A0D0008200866
:100A7000000A0D5472616E736D697420706F776532
:100A80007220756E6368616E6765642E0A0D000AD8
:100A90000D5472616E736D697420706F776572208A
:100AA0006368616E67656420746F2025642E0A0D8B
:100AB0000020000A0D496E76616C696420696E70D1
:100AC00075740A0D00082008000A0D4368616E6EF7
:100AD000656C20756E6368616E6765642E0A0D0033
:100AE0000A0D4368616E6E656C206368616E6765B0
:100AF0006420746F2025642E0A0D000A0D496E765D
:100B0000616C696420696E7075740A0D0025780047
:100B10003A003A3A002563256325632E2563644233
:100B20006D002A2A2A2A2A2A2A2A2A2A2A2A2A2A0C
:100B30002A2A2A2A2A2A2A2A2A2A2A2A2A2A2A2A15
:100B40002A2A2A2A2A0A0D002A20707265737369DC
:100B50006E6720796F75722063686F696365206FB7
:100B60006E206B6579626F6172642A0A0D002A201B
:100B70004D616B652073656C656374696F6E206190
:100B80007420616E792074696D652062792020205F
:100B90002A0A0D002A20202020202020202020208A
:100BA0002020202020202020202020202020202045
:100BB0002020202020202A0A0D002A2020682C3FF7
:100BC0002020202020205072696E74207468697380
:100BD000206D656E75202020202020202A0A0D001F
:100BE0002A202052202020202020202052657365BA
:100BF0007420287669612057445429202020202021
:100C000020202A0A0D002A202044202020202020F5
:100C1000202053776974636820746F204446552000
:100C20006D6F6465202020202A0A0D002A2020658F
:100C30002020202020202020456E657267792053D7
:100C400063616E20202020202020202020202A0ADE
:100C50000D002A2020472020202020202020525034
:100C60004C20476C6F62616C205265706169722024
:100C7000202020202A0A0D002A20204E202020207B
:100C80002020202052504C204E65696768626F72A8
:100C9000732020202020202020202A0A0D002A2036
:100CA00020532020202020202020456E61626C658A
:100CB00020736E65657A6572206D6F6465202020F3
:100CC0002A0A0D002A202072202020202020202007
:100CD000546F67676C6520726177206D6F64652063
:100CE0002020202020202A0A0D002A202036202023
:100CF000202020202020546F67676C6520366C6FA1
:100D00007770616E20202020202020202A0A0D00EC
:100D10002A202070202020202020202053657420AD
:100D2000524620706F7765722020202020202020DE
:100D300020202A0A0D002A202063202020202020A5
:100D40002020536574205246206368616E6E656C86
:100D500020202020202020202A0A0D002A20206E7A
:100D6000202020202020202053657420746F206EC6
:100D70006574776F726B206D6F64652020202A0A7E
:100D80000D002A20207320202020202020205365C1
:100D90007420746F20736E6966666572206D6F646F
:100DA000652020202A0A0D002A20206D20202020E6
:100DB000202020205072696E742063757272656EF7
:100DC00074206D6F6465202020202A0A0D002020E9
:100DD0002020202020205B4275696C74204D6179B1
:100DE00020323420323031335D2020202020200A70
:100DF0000D000A0D2A2A2A2A2A2A2A2A2A2A2A20E1
:100E00004A61636B646177204D656E75202A2A2ADA
:100E10002A2A2A2A2A2A2A0A0D0011241FBECFEFC5
:100E2000D0E2DEBFCDBF04B603FE39C014BE809150
:100E3000B11F9091B21FA091B31FB091B41F8A3C13
:100E40002CEA920722E4A2072CEDB207A1F410923B
:100E5000B11F1092B21F1092B31F1092B41F88E1FD
:100E60000FB6F89480936000109260000FBEE0E02F
:100E7000F0EF099520C08091B11F9091B21FA09111
:100E8000B31FB091B41F0196A11DB11D8093B11F76
:100E90009093B21FA093B31FB093B41F0CC086EC05
:100EA0009CEAA2E4BCED8093B11F9093B21FA09383
:100EB000B31FB093B41F12E0A0E0B1E0E8EAF6E09F
:100EC00001E00BBF02C007900D92A639B107D9F718
:100ED0001FE1A6E9B2E001C01D92A13BB107E1F715
:100EE0000E9443200C9452830C9400002F923F9256
:100EF0004F925F926F927F928F929F92AF92BF922A
:100F0000CF92DF92EF92FF920F931F93DF93CF93D5
:100F1000CDB7DEB7CE5FD0400FB6F894DEBF0FBEC0
:100F2000CDBF5C01DC018D919C911197009729F058
:100F3000883B910509F0B0C121C080E090E062E2F9
:100F40007DE340E050E00E94CD0E909397028093A5
:100F50009602009729F4F5011182108282E0A0C167
:100F600026E13EE2DC0151963C932E93509788EBAC
:100F700090E0F5019183808381E092C180914416D5
:100F80006817A9F780919F1581FFF1CF8E010F5F40
:100F90001F4FC80160E071E00E94ED7FD8010D9005
:100FA0000020E9F7CD0101975091960240919702F8
:100FB000252F342FD901E1EAF0E120E101900D92D3
:100FC0002150E1F743EE442E49E1542ECC24DD2498
:100FD00021E08E010F5F1F4F3EE2232E312CF201E4
:100FE0003081332309F41AC168E071E00E94ED7F7B
:100FF000D8010D900020E9F7CD010197C29C700146
:10100000C39CF00CD29CF00C1124E4EEF9E1EE0E3E
:10101000FF1E99248824D701BC91C450DF4FB883A8
:10102000CC5FD040C550DF4F1882CB5FD040F70176
:101030002181C550DF4F68807980CB5FD040620E40
:10104000711C6114710491F497FC10C0692C6394B5
:10105000992021F46AE071E00E94ED7FD8010D90A3
:101060000020E9F7CD010197962C33C019146CF0DC
:10107000882069F06DE071E00E94ED7FF801019039
:101080000020E9F7CF01019702C099249A9400D07B
:1010900000D000D0EDB7FEB73196ADB7BEB712960F
:1010A0009C938E9311972FE031E0338322837582D6
:1010B00064820E944880D8010D900020E9F7CD019C
:1010C0000197EDB7FEB736960FB6F894FEBF0FBE88
:1010D000EDBFF2E08F0E22E030E0E20EF31E382D7D
:1010E000303109F098CF68E071E00E94ED7FD801BF
:1010F0000D900020E9F7CD010197C29C7001C39CBF
:10110000F00CD29CF00C1124E6EFF9E1EE0EFF1E7C
:1011100099248824D701BC91C250DF4FB883CE5F99
:10112000D040C350DF4F1882CD5FD040F7012181FE
:10113000C350DF4F68807980CD5FD040620E711C54
:101140006114710491F497FC10C0692C6394992088
:1011500021F46AE071E00E94ED7FD8010D9000203B
:10116000E9F7CD010197962C33C019146CF0882053
:1011700069F06DE071E00E94ED7FF80101900020C0
:10118000E9F7CF01019702C099249A9400D000D0CA
:1011900000D0EDB7FEB73196ADB7BEB712969C93AF
:1011A0008E9311972FE031E033832283758264821E
:1011B0000E944880D8010D900020E9F7CD010197E9
:1011C000EDB7FEB736960FB6F894FEBF0FBEEDBF73
:1011D000F2E08F0E22E030E0E20EF31E382D3031C7
:1011E00009F098CF62E171E00E94ED7FF801019073
:1011F0000020E9F731971082D8010D900020E9F71F
:10120000AD0141505040401B510B8091960290918E
:101210009702B8010E941A1120E0C8010894C11C6D
:10122000D11CEEE2F0E04E0E5F1EFAE0CF16D104C4
:1012300009F0D5CE2223E1F065E171E00E94ED7F57
:10124000BE016F5F7F4FFB0101900020E9F73197EE
:101250001082DB010D900020E9F7AD0141505040B4
:10126000461B570B80919602909197020E941A118B
:10127000809196029091970269E171E04CE050E014
:101280000E941A11E0919602F091970280E1DF012D
:101290001D928A95E9F76BCEF5011182108283E0E9
:1012A000C250DF4F0FB6F894DEBF0FBECDBFCF9157
:1012B000DF911F910F91FF90EF90DF90CF90BF9043
:1012C000AF909F908F907F906F905F904F903F90E6
:1012D0002F9008959C0141505040460F571FDB014D
:1012E00010C0FC91E0E011968C911197BF01680F3E
:1012F000711D260F371F2617370710F42F5F3F4F3A
:101300001296A417B50768F3A417B50749F49C9182
:1013100080E0280F391F2817390710F42F5F3F4F3F
:10132000C90108950F931F93DF93CF9300D0CDB7DA
:10133000DEB70091990230919D1020E010E0201B53
:10134000310B90919E10290F311D3A8329832981F9
:101350003A81A901480F511DCA0161EA70E140E2DA
:1013600050E00E946A0949815A81B8016F537F4E4B
:101370000E946A09009719F0382F292F02C02FEF19
:101380003FEFC9010F900F90CF91DF911F910F9107
:101390000895A09199026A2F70E06A5C7F4FFB016B
:1013A000E557FF4E418150E083E0440F551F8A9579
:1013B000E1F7495F5F4F22E054C0FC01E60FF71FE1
:1013C000E557FF4E3081313009F448C0313018F014
:1013D0003336D1F402C02F5F44C020939A020E949A
:1013E0005655009709F047C090919A028091990252
:1013F000E92FF0E0E80FF11DEF53FF4E8181890FD7
:101400008E5F80939A0235C0832F90E0807C90702D
:101410008038910549F0803C910549F08034910570
:10142000E9F420939A0227C020939A0206C02093E1
:101430009A028091B1108F3F01F130E040E050E01E
:101440002A0F311D411D511D285D3F4F4F4F5F4FEA
:1014500084E062E00E94241282E0089581818E5F20
:10146000280F822F90E0481759070CF0A6CF209341
:101470009A0280E0089581E0089581E008959C013A
:10148000AB0180E090E0B9010E946A09382F292F52
:10149000C901089580E090E069E970E148E250E018
:1014A0000E946A09009719F0382F292F02C02FEFE8
:1014B0003FEFC90108958AE30E949209089581E1EE
:1014C0000E94920908950E946C1E80E094E090931F
:1014D0009C0280939B0240E089E190E00EC0242FA3
:1014E00030E0289FF001299FF00D389FF00D112466
:1014F000E255FA4E118A108A4F5F463080F34093CE
:101500009D0208950F931F93CF93DF9360919902EB
:101510006623E9F070E0C0917F10D0918010C61B67
:10152000D70B8E01085210406F537F4E81EC90E133
:10153000A8010E94D47FD0938010C0937F10E9E966
:10154000F0E114839E012852258310929902DF91C5
:10155000CF911F910F9108950F931F93CF93DF9316
:1015600020919B0230919C0249E150E02F5F3F4F58
:10157000EDE720303E0710F020E030E1B22FA32F3E
:1015800010E012C0C12FD0E0C49FF001C59FF00D44
:10159000D49FF00D1124E255FA4E0088F189E02D18
:1015A000EA17FB0719F31F5F163061F730939C02AF
:1015B00020939B0210E049E150E019C0012F0F5F1A
:1015C000212F30E0249FF001259FF00D349FF00D76
:1015D0001124E255FA4EDF015096C089D189209737
:1015E00029F410939D02309749F433C0102F163020
:1015F00028F310939D02E0E0F0E02BC040919B02A5
:1016000050919C0254274527542711965C934E9382
:10161000738B628B009731F480E1EF0119928A9508
:10162000E9F707C0EF01DC0180E10D9009928150DC
:10163000E1F789E190E0289FD001299FB00D389F04
:10164000B00D1124A255BA4E8091521654968C9327
:101650005497CF01DF91CF911F910F9108950F9370
:101660001F93CF93DF93843009F4DBC225ED30E183
:101670003093A5152093A4153093821020938110E8
:10168000853019F5E091A215F091A3158089918913
:10169000009709F424C31092A7151092A6152C5098
:1016A00030403093A5152093A415309382102093D9
:1016B00081101092AD151092AC15109280101092FE
:1016C0007F1088E080939F15AAC2E901EC97809172
:1016D0009910807F803609F002C390919D1080E0C0
:1016E00040919E10840F911D40917F105091801069
:1016F0004817590708F4F3C2889690938010809396
:101700007F108091A1108F3F09F4E9C22653304029
:101710003093A1152093A01510929902109298026F
:1017200080919F108823F9F481E0809398020E94B1
:10173000C909813009F4D3C2813018F0823099F49C
:10174000D6C280919902E82FF0E0EF53FF4EF0935C
:10175000A115E093A015885F9181990F990F990FBA
:10176000890F8093990281EB90E10E94D51900972F
:1017700009F01CC181EB90E10E940B1B009709F05E
:1017800015C12091B1102F3F09F495C02E3F29F4C7
:101790008091B210803809F48EC08091A1108E3FE4
:1017A00029F48091A210803809F485C08091A1109D
:1017B0009091A210009759F58091A3109091A410D8
:1017C000009729F58091A5109091A6100097F9F443
:1017D0008091A7109091A8100097C9F48091A9104A
:1017E0009091AA10009799F48091AB109091AC1051
:1017F000009769F48091AD109091AE10009739F484
:101800008091AF109091B010009709F454C080916E
:10181000B1109091B210009761F58091B310909142
:10182000B410009731F58091B5109091B6100097E3
:1018300001F58091B7109091B8100097D1F4809184
:10184000B9109091BA100097A1F48091BB109091BB
:10185000BC10009771F48091BD109091BE1000975C
:1018600041F48091BF10882321F48091C010813011
:1018700011F180917F109091801025E081309207C6
:1018800038F082E060E020E035E040E050E009C060
:101890008091A010823040F483E060E020E030E0EE
:1018A000A9010E94241223C20E9407568091A01011
:1018B00081508F831CC28091A1108E3F09F00FC20E
:1018C0008091A210803809F00AC28091A1109091F5
:1018D000A210009759F58091A3109091A410009741
:1018E00029F58091A5109091A6100097F9F48091A8
:1018F000A7109091A8100097C9F48091A910909119
:10190000AA10009799F48091AB109091AC100097B9
:1019100069F48091AD109091AE10009739F48091E8
:10192000AF109091B010009709F4D9C18091B11017
:101930009091B210009769F58091B3109091B41016
:10194000009739F58091B5109091B610009709F580
:101950008091B7109091B8100097D9F48091B91088
:101960009091BA100097A9F48091BB109091BC108F
:10197000009779F48091BD109091BE10009749F4C2
:101980008091BF10882329F48091C010813009F420
:10199000A6C12F3F09F4A3C181EB90E10E94A519D4
:1019A000882309F09CC181E062E078CFE091A01526
:1019B000F091A11580818C3209F491C18D3240F4EF
:1019C000813109F4A0C08B3271F1882351F052C0EB
:1019D0008B3309F484C18C3351F08A3309F04AC047
:1019E00053C08091980280FD45C0816009C08091FC
:1019F000980281FF04C086FD3DC0806401C0826002
:101A0000809398020E94C909813009F468C181302D
:101A100018F0823059F66BC180919902E82FF0E0FE
:101A2000EF53FF4E1AC08091980282FD23C084605C
:101A30008093980280919902282F30E0F901EF53AA
:101A4000FF4E9381992349F0265D3F4F442737FD90
:101A50004095542F84E060E024CFF093A115E093EB
:101A6000A015885F9181990F990F990F890F809325
:101A700099029CCFE959F0419F01442737FD4095D9
:101A8000542F84E061E00DCF0E945B0AAFEF8F3FDF
:101A90009A0709F024C1E0919902F0E0E557FF4E62
:101AA00086A90E94300FE0919902F0E0E557FF4EC1
:101AB00086A98638E1F0873838F48138C1F0853856
:101AC000B1F08038A1F410C0883841F0883818F09F
:101AD0008B3969F406C00E947C130DC00E94071662
:101AE0000AC00E941F4F07C00E94831104C01092B9
:101AF000801010927F1080917F109091801000973D
:101B000009F4EDC0F4C00E94820A80917F10909188
:101B10008010C0979093801080937F1089EC90E1A3
:101B20009093A5158093A4158091C7109091C8102B
:101B3000009739F00E945F0ABFEF8F3F9B0709F0C3
:101B4000CEC00091C3101091C4100115110509F405
:101B5000C6C08EEA95E19093A3158093A21540C06C
:101B6000888999890097B9F108171907A1F58A8919
:101B70009B89009739F02091C1103091C21028172D
:101B8000390749F5888199810097E1F48A819B8121
:101B90000097C1F48C819D810097A1F48E819F8173
:101BA000009781F488859985009761F48A859B85E3
:101BB000009741F48C859D85009721F48E859F8543
:101BC0000097C1F081EA90E1BE0140E150E00E943F
:101BD000BE7F009779F06996D093A315C093A215A4
:101BE000C091A215D091A315E6E1C434DE0708F434
:101BF000B7CF75C01092A7151092A61582E08093FA
:101C00009F1589EC90E19093A5158093A41590936E
:101C10008210809381101092AD151092AC150E9425
:101C200002118091AC159091AD15009709F457C041
:101C30009C01205D3F4F3093801020937F10C9E9B5
:101C4000D0E108969C8328522D83E091A215F09153
:101C5000A31524892F8321E12E838E01085D1F4F58
:101C6000982789279827D80115969C938E931497C7
:101C700017961C921E921697808991899093C21094
:101C80008093C1108289938913969C938E931297A7
:101C9000DE01589680E101900D928150E1F781EAD2
:101CA00090E161EB70E10E94D01D85ED90E1909391
:101CB000A5158093A4150E945F0A80959095F80160
:101CC00097838683009721F48FEF9FEF9783868316
:101CD00080E68093991019821B821A8208C01092A4
:101CE000801010927F101092990210929802109218
:101CF0009F15DF91CF911F910F910895382F292FB4
:101D0000C9010895382F292F40E050E07627672732
:101D1000762780E090E0CB0177276627262B372BAC
:101D2000482B592BB901CA010895AC01E0918110EB
:101D3000F0918210222733272E1B3F0B21563A4E5B
:101D4000621773070CF49B011216130664F42093B8
:101D5000AC153093AD154E175F0729F0CF01BA01CE
:101D6000A9010E94CB7F0895E091A602F091A702FD
:101D7000309711F00995089580E008959093A70297
:101D80008093A6020895FC0180917D0690917E06C5
:101D9000968B858B708F678B0895CF93DF93EA01C5
:101DA0000E94AC0AFC01009741F080917D06909161
:101DB0007E06968B858BD08FC78BCF01DF91CF911D
:101DC00008950F931F93DF93CF93CDB7DEB760973E
:101DD0000FB6F894DEBF0FBECDBF8C01AB018FEF05
:101DE00092E09A8389831C821B821E821D82188640
:101DF0001F821A8619861C861B861E861D8680E019
:101E000091E0988B8F87CE010196B8010E94CD0E8C
:101E1000FC01009711F0118B008BCF0160960FB67B
:101E2000F894DEBF0FBECDBFCF91DF911F910F9110
:101E300008952091A8153091A9152115310571F447
:101E400020917D0630917E063093A9152093A81528
:101E50009093AB158093AA1580E0089581E00895D2
:101E6000DF93CF930F92CDB7DEB789838091A8150A
:101E70009091A915009739F060914516AE014F5F1A
:101E80005F4F0E94CB580F90CF91DF91089588E368
:101E900091E062E040E050E00E94CB581092801048
:101EA00010927F10109299022E9A08950F931F930B
:101EB000CF93DF9380917F1090918010009709F469
:101EC00001C125E08130920708F0EDC001EB10E17F
:101ED0008091B1109091B210009759F58091B31094
:101EE0009091B410009729F58091B5109091B6109B
:101EF0000097F9F48091B7109091B8100097C9F449
:101F00008091B9109091BA10009799F48091BB100C
:101F10009091BC10009769F48091BD109091BE1013
:101F2000009739F48091BF109091C010009709F488
:101F3000BAC08091B1108F3F09F4BAC081EB90E133
:101F40000E94A5198823F1F581EB90E10E94DB1C2A
:101F50000097A9F50E94E0188C01009799F500D030
:101F600000D000D0EDB7FEB7319681E091E0ADB77B
:101F7000BEB712969C938E9311978091990282839B
:101F800013828091C110848315820E942880EDB74E
:101F9000FEB736960FB6F894FEBF0FBEEDBF809128
:101FA0009902882331F00091C1100E94820A0093A7
:101FB0009F10E0914201F0914301099574C08C019A
:101FC0000D5E1F4FC8010E949C56009709F06BC020
:101FD000C8010E940918EC010097A1F5C80160E052
:101FE00070E040E020E00E946917EC01009709F4DE
:101FF0005AC081EA90E10E94D519AE014F5F5F4F50
:10200000009719F081EA90E102C080E090E060E082
:1020100070E00E94301560915B1670915C168091A3
:102020005D1690915E1628EE33E040E050E00E948D
:10203000007FCE018196BA01A9010E94925D81E0E4
:102040008BA736C08DA5882391F400D082ED90E057
:10205000ADB7BEB712969C938E9311970E942880BD
:102060001092801010927F100F900F902BC0823032
:10207000B1F483E08DA7CE01499645E050E060E0E1
:1020800070E00E94925D1BA600D088E990E0EDB759
:10209000FEB7928381830E9428800F900F90CE011B
:1020A00041960E94B40E1092801010927F100AC0C8
:1020B00080E090E00E94B40E1092801010927F1089
:1020C00010929902DF91CF911F910F9108950F9374
:1020D0001F93CF93DF93EC018A0188819981009748
:1020E00031F023E08331920709F07DC01DC00E94CA
:1020F0001858809344160E941858809345168EE90C
:1021000092E06EE370E00E948A5B0E94630AE091B5
:102110004001F091410109950E944F4183E193E014
:102120009983888381E062C06230B9F1633018F42A
:102130006130A1F727C0673819F0683879F70FC008
:10214000EEEAF5E1858996898017910711F4118AE5
:10215000108A799686E1E434F807A1F7DFCF22E010
:102160004E39520719F4CA010E94B55B87E10B3D55
:102170001807A1F6C8010E94B55B009779F20E948A
:10218000641B2EC04115510549F25093A31540938D
:10219000A21585E00E942F0B23C080917F109091A3
:1021A0008010009709F4BACF80919F10863071F4A7
:1021B0008091CE1081FF0AC08EE992E00E94B55B4B
:1021C000009721F08EE992E00E94A05B81E00E94DE
:1021D0002F0B80917F1090918010009709F49ECF73
:1021E0000E94560F9BCF1982188283E0DF91CF9116
:1021F0001F910F910895AC0188E391E061E00E9486
:10220000A8580895E091A615F091A715309711F000
:10221000B89605C0E091A215F091A315759680813E
:102220009181009731F042815381609144160E9460
:10223000CB580895FB013097E1F09093A31580935C
:10224000A2154093AC155093AD1569EC70E1242FA5
:10225000352F85E02531380714F024E135E0CB0136
:10226000BF01A9010E94CB7F84E00E942F0B0E9436
:10227000560F1092AD151092AC150895CF92DF92C3
:10228000EF92FF920F931F93DF93CF93CDB7DEB7FB
:1022900060970FB6F894DEBF0FBECDBF7C0121154D
:1022A000310511F1DE011196FC0180E101900D92E2
:1022B0008150E1F7F701C288D388D90180E10D9000
:1022C00001928150E1F7F701138B028BC7010E9445
:1022D0001A11D701FE01319680E101900D928150D3
:1022E000E1F7F701D38AC28A60960FB6F894DEBF91
:1022F0000FBECDBFCF91DF911F910F91FF90EF9057
:10230000DF90CF9008951F93CF93DF93C9E9D0E179
:10231000809152168F838091B1108F3F81F4DE013E
:102320005896FE01389680E101900D928150E1F7B8
:1023300081EA90E161EB70E10E94D01D1BC0A8EA28
:10234000B2E0FE01389680E101900D928150E1F7F4
:10235000E1EAF0E1DF01509680E10D9001928150B9
:10236000E1F7A1EBB0E1E8EAF2E080E101900D9243
:102370008150E1F780919902882309F450C00E94AE
:102380003657182F60919902882361F18AE3809370
:10239000C110611721F1212F30E070E0C901861BC7
:1023A000970B40917F1050918010480F591F509308
:1023B000801040937F10FA01B897FC83E42FE85215
:1023C000ED83665C7F4F860F971F65577F4E421BDC
:1023D000530B4C52504085579F4E0E94D47F109310
:1023E00099021DC08AE38E8370E040917F10509166
:1023F0008010461B570B5093801040937F10CA01EA
:1024000088979C83842F88528D836B537F4E4C52C8
:10241000504085EC90E10E94D47F10929902809107
:102420009902C82FD0E0CF53DF4E81E8888319820C
:102430001B821A820E945B0A809590959B838A83F7
:10244000DF91CF911F910895BF92CF92DF92EF92CB
:10245000FF920F931F93CF93DF93082F162F6901DD
:102460007A01E0919902EE2339F0F0E0EF53FF4E4C
:1024700080818A3349F494C080919F108A3321F47B
:102480008091C11087FF8CC00E943657B82E809370
:102490009902A8EAB2E0E1EBF0E180E101900D924F
:1024A0008150E1F780917F1090918010C0969093B9
:1024B000801080937F1025E08130920730F080E01B
:1024C00095E09093801080937F102B2D30E0C90110
:1024D000880F991F40917F105091801040535040B9
:1024E000421B530B87539F4E69E970E10E94D47FD2
:1024F00080E68093991010929A1010929C1010927E
:102500009B10BB2029F08AE3EBE8F0E186AB03C027
:102510008AE380939F10809152168093A01080913F
:10252000A1109091A210009751F58091A310909165
:10253000A410009721F58091A5109091A610009706
:10254000F1F48091A7109091A8100097C1F48091A8
:10255000A9109091AA10009791F48091AB109091DE
:10256000AC10009761F48091AD109091AE1000977F
:1025700031F48091AF109091B010009789F0E1EBA9
:10258000F0E1DF01509780E10D9001928150E1F779
:102590008091A8028F3F49F4043011F4123029F0E1
:1025A0001092801010927F1033C081EA90E168EAA7
:1025B00072E00E94D01D80919902C82FD0E0FE01E8
:1025C000EF53FF4E00831183C701B6010E94820EB4
:1025D000CB53DF4E688379838A839B8380917F10FE
:1025E000909180109C012852304030939D10885269
:1025F00080939E1080919902C82FD0E0CF53DF4E78
:102600001B821A820E945B0A809590959B838A8325
:10261000DF91CF911F910F91FF90EF90DF90CF90BE
:10262000BF900895CF92DF92FF920F931F93DF9395
:10263000CF930F92CDB7DEB7F62E6901E9E9F0E14D
:1026400020E6209399101182138212822AE32683B6
:1026500020915216278396012C5F3F4F34832C2DF7
:102660002C5F25837896282F392FD90180E10D9092
:1026700001928150E1F781EA90E161EB70E14983D9
:102680000E94D01D0091990210E00F531F4EF801D7
:10269000F08249814183138212820E945B0A8095F5
:1026A0009095F80193838283C6018C969093801055
:1026B00080937F100E94560F0F90CF91DF911F9152
:1026C0000F91FF90DF90CF900895CF93DF93FC019F
:1026D000608382E08183EF012296A3E8B0E188E085
:1026E0000D9009928150E1F73A9686E011928A9511
:1026F000E9F7DF91CF910895BF92CF92DF92EF92E9
:10270000FF920F931F93CF93DF9309E910E180911C
:10271000A0108F3F09F096C1E0919902F0E0E557D3
:10272000FF4E86AD8F3F09F48DC187A9882309F03C
:1027300089C11092BA021092B90284E18093B80262
:1027400022E0B22E85C0EB53FF4E8181882309F42D
:1027500079C18081813009F06BC0F093BA02E093B7
:10276000B9028091A1109091A210009759F5809123
:10277000A3109091A410009729F58091A510909135
:10278000A6100097F9F48091A7109091A8100097D7
:10279000C9F48091A9109091AA10009799F48091A2
:1027A000AB109091AC10009769F48091AD109091AE
:1027B000AE10009739F48091AF109091B01000974F
:1027C00009F440C181EA90E10E940918EC0190935C
:1027D000BE028093BD026091B9027091BA02009767
:1027E00049F46E5F7F4F81EA90E140E022E00E9471
:1027F00069171EC092E0C92ED12CC60ED71E81E1EA
:10280000E82EF12CEC0EFD1EC601B70148E050E0A9
:102810000E94BE7F009741F0D701F60188E0019049
:102820000D928150E1F703C08DA5882309F4BDA660
:102830009091B802E0919902F0E0E557FF4EE90F60
:10284000F11D83AD880F880F880F890F8093B80220
:10285000809199022091B80290E0FC01E20FF11DF5
:10286000AF01445D5F4F20917F103091801042177F
:10287000530708F468CF87539F4E0E94D519909351
:10288000BC028093BB02009709F4DCC08091A110C8
:102890009091A210009759F58091A3109091A410E7
:1028A000009729F58091A5109091A6100097F9F452
:1028B0008091A7109091A8100097C9F48091A91059
:1028C0009091AA10009799F48091AB109091AC1060
:1028D000009769F48091AD109091AE10009739F493
:1028E0008091AF109091B010009709F4ABC081EACD
:1028F00090E10E94D519009709F0A4C08091B11011
:102900008F3F09F03EC08091B2108230D1F58091A6
:10291000B3109091B4100097A1F58091B5109091EB
:10292000B610009771F58091B7109091B81000978C
:1029300041F58091B9109091BA10009711F58091EE
:10294000BB108823F1F48091BC108130D1F48091C8
:10295000BD108F3FB1F4E1EBF0E1DF01509780E172
:102960000D9001928150E1F7E0919902F0E0A1EA27
:10297000B0E1E753FF4E80E101900D928150E1F705
:1029800021C081EB90E10E94D5192091BB023091CA
:10299000BC022817390709F055C0E1EBF0E1DF016F
:1029A000509780E10D9001928150E1F7E0919902FA
:1029B000F0E0A1EAB0E1E753FF4E80E101900D9213
:1029C0008150E1F71092990280E680939910F80106
:1029D000118213821282148288E285838AE38683BD
:1029E0008FEF8783A1ECB0E188E88093C110119646
:1029F0001C92119780EE8093C510E091BB02F0917C
:102A0000BC021896319680E101900D928150E1F759
:102A100089ED90E162E00E94651380919902C82FD0
:102A2000D0E0CF53DF4E1B821A820E945B0A809552
:102A300090959B838A8380E590E0909380108093AB
:102A40007F1004C01092801010927F10DF91CF9100
:102A50001F910F91FF90EF90DF90CF90BF9008955E
:102A60000F931F93CF93DF938C01CA0110929902A9
:102A7000C9E9D0E120E62093991019821B821A82BD
:102A80002AE32E832FEF2F83FE01789661157105BF
:102A9000E1F42093B11032E0318313821282158267
:102AA00014821782168211861086128631E03387CF
:102AB0002487DA011D962C911D9725871E962D914E
:102AC0003C911F973787268706C0DB0120E10D90D8
:102AD00001922150E1F7E0919902F0E0E557FF4EB5
:102AE00027E826AB17AA12AE13AE14AE15AEFE96AB
:102AF000DC0120E10D9001922150E1F71C820E943F
:102B0000D519009709F054C00115110549F0A1EA43
:102B1000B0E1F80180E101900D928150E1F706C02B
:102B200081EA90E161EB70E10E94D01D8091A110DB
:102B30009091A210009779F58091A3109091A41024
:102B4000009749F58091A5109091A610009719F56E
:102B50008091A7109091A8100097E9F48091A91096
:102B60009091AA100097B9F48091AB109091AC109D
:102B7000009789F48091AD109091AE10009759F4B0
:102B80008091AF109091B010009729F410928010AE
:102B900010927F1037C088E28D838091990290E077
:102BA00087529F4E61E00E94651380E590E018C057
:102BB000E1EAF0E11092A2101092A11013821282A9
:102BC0001582148217821682118610861386128649
:102BD000158614861786168688E18D8380E490E03A
:102BE0009093801080937F1080919902C82FD0E03D
:102BF000CF53DF4E1B821A820E945B0A809590950C
:102C00009B838A83DF91CF911F910F910895DF926B
:102C1000EF92FF920F931F93CF93DF93209199022E
:102C200030E0F901EB53FF4EE0808091A0108F3F20
:102C300009F0F0C0D901AF53BF4E11968C91119796
:102C4000882309F0E7C084818F3F09F4E3C040E4A2
:102C5000D42EDE20E6FE05C08091B1108F3F09F42E
:102C6000D9C040917F105091801004E180E090E045
:102C700016C0AB53BF4E11966C911197662339F471
:102C80009093BA028093B9020093B802C3C07C91BA
:102C9000723009F4CD01660F660F660F060FD90179
:102CA000A00FB11DBD01645D7F4F6417750708F368
:102CB0009093BA028093B9020093B802CF010496B0
:102CC0000E94D5199093BC028093BB02009709F033
:102CD000A1C08091990290E087539F4E0E940918ED
:102CE000EC019093BE028093BD02009709F492C05C
:102CF0000091B9021091BA020115110551F0BC0101
:102D00006F5E7F4FC801029648E050E00E94BE7F90
:102D100001C080E030E8F32EFE209DA5992351F5F7
:102D20000115110509F476C0DE015196F8013296BD
:102D300088E001900D928150E1F7DD20C1F081E043
:102D40008DA71BA660915716709158168091591641
:102D500090915A1628EE33E040E050E00E94007F48
:102D6000CE014996BA01A9010E94925D4EC082E04F
:102D70008DA74BC0E5FC08C0882331F0913009F0E5
:102D800049C082E08DA746C00115110549F0DE015A
:102D90005196F801329698E001900D929150E1F72A
:102DA000DD20B9F081E08DA760915716709158161B
:102DB0008091591690915A1628EE33E040E050E089
:102DC0000E94007FCE014996BA01A9010E94925D3E
:102DD00007C00115110521F0882311F082E08DA7AD
:102DE000E091BD02F091BE0284A5882371F0FF201E
:102DF00061F481EA90E10E94C2189093C00280932E
:102E0000BF02009711F00E94BD18E091BD02F09141
:102E1000BE02F4A61092801010927F10DF91CF9125
:102E20001F910F91FF90EF90DF9008958F929F92E6
:102E3000AF92BF92CF92DF92EF92FF920F93CF9318
:102E4000DF935A014901F7011182108270E0469F19
:102E50006001479FD00C569FD00C1124C80ED91E7C
:102E6000069506950695EC0116C08881882371F0B9
:102E7000CE010196B401402F50E00E94BE7F009722
:102E800041F4F701D183C08380E010C0F701D18302
:102E9000C083CA0DDB1DCC15DD0538F3F701808139
:102EA0009181009711F081E001C082E0DF91CF9124
:102EB0000F91FF90EF90DF90CF90BF90AF909F90D9
:102EC0008F900895009721F0FC0110820E943541F7
:102ED0000895BF92CF92DF92EF92FF920F931F93CC
:102EE000CF93DF93182FD92EEB01C42EB22E87E19A
:102EF00098E16AE04EE250E0212F3D2D00E87FEDA1
:102F0000E72E72E0F72E0E94161790E081309105AF
:102F100009F054C0E091DF02F091E00281E080838B
:102F2000E091DF02F091E0023196812F9D2DDC01CE
:102F300080E10D9001928150E1F78091DF02909144
:102F4000E002209741F0FC01719688E0099001921F
:102F50008150E1F707C04196FC0188E0DF011D9236
:102F60008A95E9F7E091DF02F091E002C4A6B5A6E8
:102F7000CF01499640E050E0BA010E94925D8091F5
:102F8000DF029091E002819640E050E0BA010E9499
:102F9000925D8091DF029091E002FC0113A60E94F5
:102FA0003541C091DF02D091E0020E9425369AA7F8
:102FB00089A72091DF023091E00220C08230910584
:102FC000D9F40E9425369C0180E090E0E7E1F8E129
:102FD0004081442339F041A552A54217530710F40C
:102FE0009A01CF01BE9649E1E33EF40789F70097C5
:102FF00019F00E9462177BCF20E030E0C901DF9119
:10300000CF911F910F91FF90EF90DF90CF90BF90E5
:103010000895EF92FF920F93CF93DF939C0187E186
:1030200098E16AE04EE250E000E8EFEDEE2EE2E0DB
:10303000FE2E0E941617882369F4C091DF02D091FA
:10304000E0020E9425369AA789A72091DF023091DD
:10305000E00202C020E030E0C901DF91CF910F9182
:10306000FF90EF900895EF92FF920F931F93CF93ED
:10307000DF938C0187E198E19093E0028093DF0277
:1030800012C08881882351F0BE016F5E7F4FC80156
:1030900048E050E00E94BE7F009779F0AE96D09352
:1030A000E002C093DF02C091DF02D091E00229E18B
:1030B000C33ED20730F3C0E0D0E0CE01DF91CF9124
:1030C0001F910F91FF90EF9008959F92AF92BF9242
:1030D000CF92DF92EF92FF920F931F93182F992EAA
:1030E0005A016B0183EE97E162E04AE150E0212F43
:1030F000392D00E8FDEDEF2EF2E0FF2E0E941617AD
:10310000813071F5E091DD02F091DE028083E09183
:10311000DD02F091DE023196812F992DDC0180E1F4
:103120000D9001928150E1F78091DD029091DE02D5
:10313000A114B104C104D10459F04196B601A5010E
:103140000E94925DE091DD02F091DE02118E03C0DB
:1031500021E0FC01218F2091DD023091DE0202C0CE
:1031600020E030E0C9011F910F91FF90EF90DF90B8
:10317000CF90BF90AF909F900895009711F0FC0101
:1031800010820895EF92FF920F939C0183EE97E1D6
:1031900062E04AE150E000E8ADEDEA2EA2E0FA2E4E
:1031A0000E941617882329F42091DD023091DE0257
:1031B00002C020E030E0C9010F91FF90EF90089528
:1031C0001092DC021092DB0283EE97E122C0FC0138
:1031D00020812223C9F001960E940918009759F016
:1031E000FC0185A5882339F02091DD023091DE02B3
:1031F0002F5F3F4F1EC08091DD029091DE0201964D
:103200009093DC028093DB028091DD029091DE02DC
:103210004A969093DE028093DD028091DD029091C8
:10322000DE02F8E187319F0790F22091DB023091B6
:10323000DC02C90108952F923F924F925F926F92E4
:103240007F928F929F92AF92BF92CF92DF92EF9236
:10325000FF920F931F93DF93CF930F92CDB7DEB7FB
:10326000882E792E962E642E722F170128018BE658
:1032700097E164E04CE150E0282D372D092DB9EDA0
:10328000EB2EB2E0FB2E79830E94161779818130F4
:1032900011F5E091D902F091DA028083E091D90230
:1032A000F091DA023196882D972DDC0180E10D90A6
:1032B00001928150E1F7E091D902F091DA02918A0E
:1032C000628A738F238A348A458A568AA78AB08E87
:1032D000C18ED28E02C0E0E0F0E0CF010F90CF911E
:1032E000DF911F910F91FF90EF90DF90CF90BF90F3
:1032F000AF909F908F907F906F905F904F903F9096
:103300002F900895009711F0FC0110820895EF921C
:10331000FF920F939C01062F8BE697E164E04CE14E
:1033200050E079EDE72E72E0F72E0E941617882301
:1033300029F42091D9023091DA0202C020E030E075
:10334000C9010F91FF90EF9008950F931F93CF93B2
:10335000DF938C018BE697E19093DA028093D90298
:1033600014C08881882361F0498946954695469521
:10337000CE010196B80150E00E94BE7F009779F01F
:103380006C96D093DA02C093D902C091D902D09141
:10339000DA0287E1CB3DD80720F380E001C081E06D
:1033A000DF91CF911F910F910895EF92FF920F93AC
:1033B0009C0180E696E164E04CE150E000E8E1EC3D
:1033C000EE2EE2E0FE2E0E941617882329F42091AB
:1033D000C1023091C20202C020E030E0C9010F9169
:1033E000FF90EF90089520E636E13093C2022093DB
:1033F000C102282F332727FD309515C090819923CE
:1034000069F08F3F29F0418950E04217530731F4AA
:1034100091819E3F19F49281903879F07C96F093D7
:10342000C202E093C102E091C102F091C20296E1B2
:10343000E03DF90718F3E0E0F0E0CF01089520E661
:1034400036E13093C2022093C102282F332727FD93
:10345000309515C09081992369F08F3F29F04189FB
:1034600050E04217530731F491819E3F91F49281CD
:10347000903879F47C96F093C202E093C102E09117
:10348000C102F091C20296E1E03DF90718F3E0E0D5
:10349000F0E0CF010895DF92EF92FF920F931F9318
:1034A000182FD92E83E097E166E041E150E0212F0B
:1034B0003D2D00E8F7ECEF2EF2E0FF2E0E941617EC
:1034C0008130B9F4E091C702F091C8028083E091A5
:1034D000C702F091C8023196812F9D2DDC0180E159
:1034E0000D9001928150E1F72091C7023091C802FE
:1034F00002C020E030E0C9011F910F91FF90EF90D2
:10350000DF900895AF92BF92CF92DF92EF92FF9239
:103510000F931F93CF93DF93EC015A016B01122F8E
:1035200080E696E164E04CE150E09E0100E8A1EC09
:10353000EA2EA2E0FA2E0E941617813009F058C038
:10354000E091C102F091C2028083E091C102F0914A
:10355000C2023196DE0180E10D9001928150E1F7C7
:10356000E091C102F091C202128BA114B104C10416
:10357000D10419F481E0838B07C0138ACF014496EC
:10358000B601A5010E94925DE091C102F091C202D4
:1035900091E0918B8FEF8093C90222E02093CA02C1
:1035A0001092CC021092CB021092CE021092CD0259
:1035B0001092D0021092CF021092D2021092D10239
:1035C0001092D3029093D4028093D5028D8580937C
:1035D000D6028E859F859093D8028093D70289EC7E
:1035E00092E00E944B1A2091C1023091C20202C0A7
:1035F00020E030E0C901DF91CF911F910F91FF9042
:10360000EF90DF90CF90BF90AF900895009711F0AA
:10361000FC0110820895EF92FF920F939C0183E0CA
:1036200097E166E041E150E000E8B7ECEB2EB2E054
:10363000FB2E0E941617882329F42091C70230918F
:10364000C80202C020E030E0C9010F91FF90EF9066
:103650000895CF93DF93EC01009799F18FEF80935A
:10366000C90292E09093CA021092CC021092CB024F
:103670001092CE021092CD021092D0021092CF0280
:103680001092D2021092D1021092D30291E0909344
:10369000D4028093D5028E858093D6028F85988937
:1036A0009093D8028093D70289EC92E00E940B1B82
:1036B0009093C8028093C702009711F0FC0110821A
:1036C0001882DF91CF910895CF92DF92EF92FF920F
:1036D0000F931F93CF93DF9380E696E117C080810D
:1036E000882379F08389882361F4CF0144960E946E
:1036F000C05D009731F08091C1029091C2020E949A
:10370000291B8091C1029091C2024C969093C202F3
:103710008093C102E091C102F091C20226E1E03D36
:10372000F207E8F283EE97E118C08081882381F0E8
:10373000818D882369F4CF0141960E94C05D009776
:1037400039F0E091DD02F091DE02309709F010824D
:103750008091DD029091DE024A969093DE02809382
:10376000DD02E091DD02F091DE0288E1E731F80749
:10377000E0F287E198E19093E0028093DF0222E09B
:10378000D22E98EEE92E93E0F92E012D112D84E032
:10379000C82EA1C0FC012081222309F493C025A5D5
:1037A000213049F1213030F0233089F1243009F003
:1037B00089C03FC0FC0123A5233008F050C081968A
:1037C0000E94C05D009709F47DC080917F109091A8
:1037D0008010009709F076C0E091DF02F091E002DE
:1037E00083A58F5F83A7AF014F5F5F4F80E090E0BD
:1037F00060E070E04FC049960E94C05D009709F4F8
:1038000061C0E091DF02F091E002D5A65BC049966D
:103810000E94C05D009709F455C0E091DF02F0916D
:10382000E002C5A613A6CF01819640E050E0BA01A0
:1038300047C0FC0123A52330A8F001960E94C218BE
:10384000FC019093DE028093DD02009721F0818DD0
:10385000882309F410828091DF029091E0020E9497
:10386000621730C081960E94C05D009759F1809127
:103870007F1090918010009729F5E091DF02F09180
:10388000E00283A58F5F83A7AF014F5F5F4F80E0AA
:1038900090E0BA010E943015C091DF02D091E002A1
:1038A00060915B1670915C1680915D1690915E162A
:1038B000A80197010E94007FCE018196BA01A9015B
:1038C0000E94925D8091DF029091E0028E9690932B
:1038D000E0028093DF028091DF029091E002F9E143
:1038E000833E9F0708F456CF8BED97E10E94955BCE
:1038F000DF91CF911F910F91FF90EF90DF90CF90CC
:103900000895DF92EF92FF920F931F93182FD92EF5
:1039100080ED96E163E041E150E0212F3D2D00E88C
:1039200075ECE72E72E0F72E0E9416178130B9F47D
:10393000E091C502F091C6028083E091C502F0914A
:10394000C6023196812F9D2DDC0180E10D90019200
:103950008150E1F72091C5023091C60202C020E0FB
:1039600030E0C9011F910F91FF90EF90DF90089513
:10397000009711F0FC0110820895EF92FF920F93CF
:103980009C0180ED96E163E041E150E000E8E5EC68
:10399000EE2EE2E0FE2E0E941617882329F42091D5
:1039A000C5023091C60202C020E030E0C9010F918B
:1039B000FF90EF900895CF92DF92EF92FF920F93D6
:1039C0001F93CF93DF937C0183EE99E19093C40220
:1039D0008093C302CC2400E010E01AC088818823C1
:1039E00091F0D988DC1478F0BE016F5F7F4F4D2DC8
:1039F000469546954695C70150E00E94BE7F0097C8
:103A000011F4CD2C8E01AE96D093C402C093C302A4
:103A1000C091C302D091C4028BE1CF3AD807F0F233
:103A2000C801DF91CF911F910F91FF90EF90DF9030
:103A3000CF9008959F92AF92BF92CF92DF92EF9274
:103A4000FF920F931F93CF93DF93D82EC92E162F7B
:103A5000B42EA52E922E83EE99E16AE04EE250E05C
:103A60002D2D3C2D012FF3ECEF2EF2E0FF2E0E94C6
:103A70001617813049F5E091C302F091C4028083AA
:103A8000E091C302F091C40231969601832F922FE8
:103A9000DC0180E10D9001928150E1F7E091C302D9
:103AA000F091C402118BEF0163969501832F9A2D3B
:103AB000DC0180E10D9009928150E1F7928AB39682
:103AC0008BE011928A95E9F78091C3029091C4022C
:103AD000DF91CF911F910F91FF90EF90DF90CF90EA
:103AE000BF90AF909F900895FC01108208950F93AE
:103AF0001F93CF93DF938C0183EE99E112C08881ED
:103B0000882351F0CE014396B80140E150E00E9475
:103B1000BE7F009709F418828091C3029091C4027D
:103B20008E969093C4028093C302C091C302D09139
:103B3000C4028BE1CF3AD80710F3DF91CF911F91E8
:103B40000F910895CF93DF93FC01EC012896862F07
:103B5000972FDC0188E00D9009928150E1F7808574
:103B600092E089278087DF91CF910895282F392F00
:103B7000D901862F972FFC0180E02D919191382F4C
:103B8000385F291721F4832F3038B9F70895922729
:103B900097FD05C08F5F831711F0990FF9CF089536
:103BA000BF92CF92DF92EF92FF920F931F93CF932A
:103BB000DF93EC016B01FB0180818E3F21F4818159
:103BC000803819F432C08F3F81F180E696E19093FE
:103BD000C2028093C102EE24FF24BB241DC0F80161
:103BE0008081882399F08189813081F481818E3FA1
:103BF00019F48281803851F0B8016F5F7F4FC601A0
:103C00000E94B61D8B1510F07801B82E045E1F4F70
:103C10001093C2020093C1020091C1021091C2022E
:103C2000F6E1003D1F07D8F204C081E00E94F319BD
:103C30007C01E114F10489F4198218821B821A8232
:103C40001D821C821F821E82198618861B861A8678
:103C50001D861C861F861E8607C0F701319680E1EF
:103C6000019009928150E1F7DF91CF911F910F915F
:103C7000FF90EF90DF90CF90BF900895DF92EF928A
:103C8000FF920F931F930E94625ED82E0E94625E85
:103C9000E0905316F0905416009155161091561658
:103CA0007D2D60E0680F791F80E090E0A80197010A
:103CB0000E94007F9B01AC0116950795F794E7944D
:103CC0002E0D3F1D401F511FB901CA011F910F91B9
:103CD000FF90EF90DF900895AF92BF92CF92DF9266
:103CE000EF92FF920F931F93CF93DF938CEC91E0B1
:103CF000E7E1F8E1DF019C011D9221503040E1F73E
:103D000024E3E3EEF7E1DF011D922A95E9F720E7CE
:103D1000EBE6F7E1DF011D922A95E9F72BE131E0AF
:103D2000EEE4F6E1DF01A9011D9241505040E1F7B8
:103D3000E3EEF9E1DF019C011D9221503040E1F7F3
:103D40008CE180936A1782E18093691780E095E0A7
:103D5000A0E0B0E080934E1690934F16A0935016BB
:103D6000B093511680E48093521680EC97E2A9E05C
:103D7000B0E08093531690935416A0935516B093C9
:103D800056160E943E1E60935716709358168093E5
:103D9000591690935A1680E197E2A0E0B0E0809324
:103DA0005B1690935C16A0935D16B0935E1610920E
:103DB0005F16C9ECD2E08EEF90E89093CA02809330
:103DC000C9021092CC021092CB021092CE02109235
:103DD000CD021092D0021092CF02CE0160E440E0FA
:103DE00020E0EE24FF248701AA24BB2465010E9461
:103DF0001B19CE0163E870E10E94A21DCE0140E0D4
:103E000050E0BA0121E00E94821A0FEF12E01093F5
:103E1000CA020093C9021092CC021092CB021092F7
:103E2000CE021092CD021092D0021092CF021092C8
:103E3000D2021092D1021092D4021092D3021092A8
:103E4000D6021092D50280E091E09093D802809340
:103E5000D702CE010E944B1A1093CA020093C902E6
:103E60001092CC021092CB021092CE021092CD0290
:103E70001092D0021092CF021092D2021092D10270
:103E80001092D4021092D3021092D6021092D50250
:103E900080E092E09093D8028093D702CE010E94F6
:103EA0004B1A8BED97E16CE070E00E948A5BDF912A
:103EB000CF911F910F91FF90EF90DF90CF90BF9027
:103EC000AF9008950895CF92DF92EF92FF920F93F3
:103ED0001F93DF93CF93CDB7DEB7A0970FB6F894BB
:103EE000DEBF0FBECDBF7C01FC01808191818A3A8B
:103EF000910599F08A3C910509F44DC0009709F0AD
:103F000050C080917D0690917E0665E840E050E0CB
:103F10000E94A8588AEA90E040C0653809F046C07F
:103F20008E010F5F1F4FC80164E371E040E150E074
:103F30000E949E7F8EE1B8010E94C9466C010097E5
:103F400051F180E291E09A8B898B86E098E39C8B1B
:103F50008B8B88E092E19E8B8D8B88EB9BE8988F12
:103F60008F8B1A8E198E1C8E1B8E1E8E1D8E82E0DC
:103F700090E098A38F8F8E010F5E1F4FC80140E025
:103F800050E0BA0123E00E94821AC601B80140E461
:103F900050E00E9468428AEC90E0F70191838083B0
:103FA00005C0F7011182108283E001C081E0A09674
:103FB0000FB6F894DEBF0FBECDBFCF91DF911F913A
:103FC0000F91FF90EF90DF90CF9008950E946423AF
:103FD0000895DF93CF93CDB7DEB72A970FB6F89445
:103FE000DEBF0FBECDBF88E090E00E94A0829A8322
:103FF00089838A8180959981981709F43AC0DE01F6
:10400000139680E090E0FC01EC5BFE4FE491ED93B1
:10401000019688309105B9F7CE01039660E070E013
:1040200048E050E00E94A682EDE4F1E02591349151
:104030008AE090E0B9010E94BE82EFE4F1E02591B0
:1040400034918CE090E0B9010E94BE82E1E5F1E09C
:1040500064918EE090E00E94B082ECE4F1E0E491A3
:10406000E983E095EA8369817A8188E090E00E94A3
:10407000BE8289812A960FB6F894DEBF0FBECDBFEF
:10408000CF91DF9108950F931F93DF93CF9300D0CB
:10409000CDB7DEB711240E9424370E943037E1EB00
:1040A000FFE122E432E431832083EC59FF4F8DB7E6
:1040B0009EB784569040E817F907A8F30E94AC6DAC
:1040C0000E9415368AB1806A8AB98DB1806C8DB92B
:1040D0005D988EE180937C0080E880937A008091E7
:1040E0007A00806480937A0080917A0086FDFCCF0C
:1040F00080917800909179000E945F5E10927A0022
:104100000E94545D0E94265882EF91E060E070E0CA
:104110000E94DA5877988AE691E060E070E00E94A9
:10412000DA588091AD1F9091AE1F009709F47698F0
:1041300088E090E00E94A0829A8389838A8180959A
:104140009981981711F00E94E91F0E94835CE09109
:104150007A01F0917B0109950FEA1BE188E0F801F3
:1041600011928A95E9F7C80160E070E048E050E0FC
:104170000E9488820E94D76DA3E8B0E1F80188E030
:1041800001900D928150E1F78AE090E00E94A082B8
:104190008C018CE090E00E94A082BC01C8014FEA33
:1041A0005BE10E9464390E94E91F90E00E94AF37F2
:1041B0008EE090E00E9498820E943D3B8FEA9BE156
:1041C0000E947A3E0E944660E091CC01F091CD01C0
:1041D0000995E091B301F091B4010995E09139029C
:1041E000F0913A020995E091D801F091D901309708
:1041F00009F0099588E391E060E070E00E94DA58E8
:1042000084E491E060E070E00E94DA588DE591E08E
:1042100060E070E00E94DA588EE291E00E9413594B
:104220005F985D9A779A769A0E9436580E943C373A
:10423000FBCF8091A61C8761877D8093A61C089583
:104240000F931F93CF93DF938C01EB0184E591E0F3
:10425000B80146E050E00E94BE7F0097C1F4809113
:10426000AF1B88838091B01B89838091B11B8A83A7
:104270008091B21B8B838091B31B8C838091B41B84
:104280008D838091B51B8E838091B61B33C0F8015E
:104290008081982F97709630E9F4282F26952695DF
:1042A0002695822F90E0FC01EE0FFF1FE80FF91F0B
:1042B000E854F44E808188838181898382818A8356
:1042C000F80181818B8382818C838091B71B2817B1
:1042D00058F013C08883F8018181898382818A83A1
:1042E0008FEF8B838EEF8C83F80183818D838481A4
:1042F0008E8385818F8381E001C080E0DF91CF9143
:104300001F910F9108950F931F93CF93DF938C010B
:10431000EB018FEA9BE148E050E00E94BE7F0097EE
:1043200021F4C8010E94C32565C08B818F3F31F401
:104330008C818E3F19F4988192FF04C03091B71B95
:1043400020E020C090FDFACF91FFF8CFF8019083D4
:10435000898181838A8147C0822F90E0FC01EE0F22
:10436000FF1FE80FF91FE854F44E988180819817D9
:1043700041F499818181981721F49A81828198175B
:1043800019F02F5F231740F3203278F08881F8016D
:104390008083898181838A8182838D8183838E81D9
:1043A00084838F81858380E026C0231799F4822F30
:1043B0008F5F8093B71B822F90E0FC01EE0FFF1FF1
:1043C000E80FF91FE854F44E888180838981818346
:1043D0008A818283220F220F220F2660F801208318
:1043E0008B8181838C8182838D8183838E81848381
:1043F0008F81858381E0DF91CF911F910F91089587
:10440000282F392FD901ECE4F1E086E001900D92DC
:104410008150E1F781E008956623C1F0411551050F
:10442000A9F020E061501416150624F4FC01E60FF3
:10443000F11D03C0FC01E20FF11DDF01A40FB51F48
:1044400030813C93662311F02F5FECCF08952F92BB
:104450003F924F925F926F927F928F929F92AF9214
:10446000BF92CF92DF92EF92FF920F931F93DF9351
:10447000CF93CDB7DEB762970FB6F894DEBF0FBE0D
:10448000CDBF2C0129E9622E20E1722EE0909E1012
:1044900020919D1098E2292E312C260C371C8091FA
:1044A000C110853811F1863858F4813008F4DFC026
:1044B000853008F4DAC08058823008F0D8C0D5C002
:1044C000893818F4873868F404C0893809F0CFC0F7
:1044D00004C080E1A82EB12C0BC008E2A02EB12CA4
:1044E00007C018E1A12EB12C03C0B8E0AB2EB12C4F
:1044F000922F80E0FF24E82AF92AEA18FB0828E036
:10450000E216F1040CF4B5C04E010894811C911C14
:10451000A1ECCA2EA0E1DA2ECA0CDB1CD6019C91BC
:10452000915011968C911197923008F083C090E0D1
:10453000F3E0880F991FFA95E1F7029740E00BC06E
:10454000F401E20FF31F2C0D3D1DD90112962C91A1
:10455000129720834F5F242F30E02817390784F308
:1045600041145104A1F46E2D6650C601089648E02E
:1045700050E00E940C22B6016E5F7F4FC4010E9482
:10458000202122E0F601218308E010E01BC031E089
:104590004316510409F06FC06E2D6E50C60140964F
:1045A00048EF5FEF0E940C2286010E5F1F4FC8018B
:1045B000B4010E948321882309F077C0C8010E94BA
:1045C000002273C080919D108A8B198A80919E1061
:1045D00090E0A989BA898A2B9B2B800F911FF30148
:1045E0008583948380917F1090918010800F911F1C
:1045F0009093801080937F10D10113961C921E928D
:1046000012970E945B0A80959095F10193838283B3
:10461000D60111968C91119790E09C01E3E0220F56
:10462000331FEA95E1F7E21AF30AE00EF11EA20E3B
:10463000B31E16C0282F30E0882349F0C90173E06B
:10464000880F991F7A95E1F7E81AF90A02C0EE245B
:10465000FF2463E0220F331F6A95E1F7A20EB31E19
:10466000B8E0EB16F1040CF053CF80E005C08FEFFB
:1046700003C08EEF01C08DEF62960FB6F894DEBFD7
:104680000FBECDBFCF91DF911F910F91FF90EF90A3
:10469000DF90CF90BF90AF909F908F907F906F9062
:1046A0005F904F903F902F90089521E0F601218375
:1046B00008EF1FEF87CF20919F102A3319F40E9433
:1046C0002722089580E008958DED96E80E947E0EE1
:1046D000909398108093971089E10E943B6061EA63
:1046E00071E00E94663E0097B1F083E380938B10E7
:1046F00080938C108091BD1080938D108091BE109E
:1047000080938E108091BF1080938F108091C01085
:104710008093901008C089E10E943B60BC018BE847
:1047200090E10E94832188E10E943B60BC0181E905
:1047300090E10E948321882321F481E990E10E9485
:1047400000228091A61C82FF04C081E090E00E94BC
:104750005B238FE693E061EA70E140E150E00E9464
:10476000BE7F009779F060917F1070918010625F3A
:104770007F4F7093801060937F108BE890E141E051
:104780000E947E251092801010927F1008950F9342
:104790001F93DF93CF93CDB7DEB728970FB6F8946A
:1047A000DEBF0FBECDBF2091A61C2272223009F0C1
:1047B0006BC08C01FC0184859585FDED86389F07D3
:1047C00009F062C0F8018081833321F48181833351
:1047D000A1F43EC08F3F89F4F80181818F3F69F4D5
:1047E00082818F3F51F483818F3F39F484818F3FE1
:1047F00021F485818F3F09F447C08CE491E0B80132
:1048000046E050E00E94BE7F0097D1F48091B9103D
:1048100092E0892789838091BA108A838091BB10A6
:104820008B838091BC108C838091BD108D8380918F
:10483000BE108E838091BF108F838091C0108887B7
:10484000C801BE016F5F7F4F0E9420218823E1F0E5
:1048500080917F10909180100E979093801080939C
:104860007F108091A61C82FF04C080E090E00E942F
:104870005B23AFE6B3E0E1EAF0E180E101900D9265
:104880008150E1F70E94470F1092801010927F1024
:1048900028960FB6F894DEBF0FBECDBFCF91DF9143
:1048A0001F910F910895EF92FF921F93CF93DF9383
:1048B000382F292F162F572F8091A61C83FF37C022
:1048C000CFEED2E0CE01632F722F412F0E94CB7F1B
:1048D0002E978AE990E80E947E0E9D878C8789E159
:1048E0000E943B6061EA71E00E94663E009759F0C9
:1048F00083E38093E10289831A821B8280E88C83A0
:104900008AE98D8308C089E10E943B609C01CE0149
:10491000B9010E94832187EE92E00E940022612F5C
:10492000625F81EE92E070E040E00E947E25DF91C0
:10493000CF911F91FF90EF900895EF92FF921F93F8
:10494000CF93DF93382F292F162F572F8091A61C36
:1049500083FF37C0C6E2DCE1CE01632F722F412F07
:104960000E94CB7F2E978AE990E80E947E0E9D8759
:104970008C8789E10E943B6061EA71E00E94663E9B
:10498000009759F083E38093181C89831A821B8255
:1049900080E88C838AE98D8308C089E10E943B60AE
:1049A0009C01CE01B9010E9483218EE19CE10E940D
:1049B0000022612F625F88E19CE170E040E00E948C
:1049C0007E25DF91CF911F91FF90EF9008959091F8
:1049D000A61C927281E0923009F080E0089582E096
:1049E0008093E9008091E800807208950E94E23887
:1049F00008958091E81C882339F081508093E81C49
:104A000082FF02C05D9801C05D9A8091A71C882337
:104A100039F081508093A71C82FF02C077980895D7
:104A2000779A0895CF93DF93EC018881998100975D
:104A300031F021E08332920709F044C033C00E9474
:104A4000F9248091A91D833079F0843028F48130D5
:104A500041F08230D9F40BC0813819F08238B1F4BA
:104A600006C00E942F2905C00E945F2D04C00E942D
:104A7000032F882329F08FE793E061E070E00BC0FB
:104A80004F9A8FE793E06FE070E005C04F9A8FE791
:104A900093E06FE170E00E948A5B83E291E099838A
:104AA000888314C08FE793E00E94B55B009739F6C6
:104AB0000E94EF24882351F00E94E238882309F0F5
:104AC000BECF04C01982188283E001C081E0DF916B
:104AD000CF9108958091E81C88608093E81C90E055
:104AE000019782FD5D9808958091A71C886080934E
:104AF000A71C90E0019782FD5D98089520915C01CC
:104B00002223E1F02091A91D2223C1F0233079F066
:104B1000243028F4213041F0223081F40BC02138B8
:104B200019F0223859F406C00E941B2A05C00E94C1
:104B3000DA2D02C00E94A82F882319F40E943C3766
:104B400080E008951F93182F80915C018117C1F0B8
:104B50008091A91D823079F0833018F4813081F47E
:104B600005C0813819F0823859F405C010935C01F2
:104B70000E94D92505C0812F0E94FB2E10935C0155
:104B800080E01F910895282F392FD901E4E5F1E045
:104B900086E001900D928150E1F70895E4E5F1E09F
:104BA000282F392FD90186E00D9001928150E1F72D
:104BB000089581E080938703089584E090E0A0E069
:104BC000B0E88093E91C9093EA1CA093EB1CB0938F
:104BD000EC1C84E090E0A0E0B0E08093F91C90939E
:104BE000FA1CA093FB1CB093FC1C80E190E0A0E0B9
:104BF000B0E08093FD1C9093FE1CA093FF1CB0932B
:104C0000001D8091F51C9091F61CA091F71CB091AD
:104C1000F81C823022E0920721E0A20720E0B207D0
:104C200009F436C1833022E0920721E0A20720E098
:104C3000B20708F089C08C3021E0920721E0A2077A
:104C400020E0B20708F040C08A3021E0920721E05E
:104C5000A20720E0B20708F031C1853021E09207B9
:104C600021E0A20720E0B207E0F4833021E09207C0
:104C700021E0A20720E0B20708F00AC1813021E05C
:104C8000920721E0A20720E0B20709F4EEC08230CB
:104C900021E0920721E0A20720E0B20709F0CCC191
:104CA000F7C0863021E0920721E0A20720E0B2079A
:104CB00009F4FAC0873021E0920721E0A20720E042
:104CC000B20709F0B9C1F5C08F3021E0920721E0A9
:104CD000A20720E0B20709F430C1803121E0920739
:104CE00021E0A20720E0B20798F48D3021E092077E
:104CF00021E0A20720E0B20709F4EAC08E3021E0EB
:104D0000920721E0A20720E0B20708F0F6C0DBC05E
:104D1000843121E0920721E0A20720E0B20709F4E4
:104D2000FAC0863121E0920721E0A20720E0B20715
:104D300009F4FEC0813121E0920721E0A20720E0C2
:104D4000B20709F079C1E2C0833021E0920721E087
:104D5000A20721E0B20709F41CC1843021E09207C8
:104D600021E0A20721E0B20708F040C0843021E032
:104D7000920722E0A20720E0B20709F426C185309D
:104D800021E0920722E0A20720E0B207E0F482309F
:104D900021E0920722E0A20720E0B20709F40CC14B
:104DA000833021E0920722E0A20720E0B20708F05A
:104DB00015C1813021E0920722E0A20720E0B2076E
:104DC00009F03AC1F0C0853021E0920722E0A20745
:104DD00020E0B20709F45CC0813021E0920721E0B5
:104DE000A20721E0B20708F427C1B3C0843021E054
:104DF000920722E0A20721E0B207E0F4813021E02F
:104E0000920722E0A20721E0B20708F041C08430F7
:104E100021E0920721E0A20721E0B20709F4BEC019
:104E2000853021E0920721E0A20721E0B20709F0D6
:104E300003C12EC0823021E0920721E0A2072DEFAE
:104E4000B20709F4F0C0863021E0920721E0A20702
:104E50002DEFB207E9F0803021E0920721E0A207B0
:104E60002DEFB20709F0E8C0CAC08CE890E0A0E0DE
:104E7000B0E08093F91C9093FA1CA093FB1CB093B4
:104E8000FC1C81E09DE162E571E04CE850E032C03D
:104E90001092011D1092021D1092031D1092041D0C
:104EA00080E090E0DC01D4C08AE095E0A0E0B0E0D2
:104EB0009DC084EC99E0A0E0B0E098C086E690E068
:104EC000A0E0B0E093C08FEF9FEFAFEFB0E08EC0F7
:104ED00088E090E0A0E0B0E08093F91C9093FA1C89
:104EE000A093FB1CB093FC1C81E09DE166EE71E099
:104EF00048E050E00E949E7FD3CF8091890390913B
:104F00008A03A0918B03B0918C0370C088E195E077
:104F1000A0E0B0E06BC081E090E0A0E0B0E02091C4
:104F20005C01222309F462C080E090E0DC015EC0F5
:104F300080E090E1A0E0B0E059C08AE095E0A0E018
:104F4000B0E08093011D9093021DA093031DB093C8
:104F5000041D1092051D1092061D1092071D10923F
:104F6000081D81E09DE10E94C3258091F91C90916C
:104F7000FA1CA091FB1CB091FC1C0296A11DB11D56
:104F80008093F91C9093FA1CA093FB1CB093FC1C1B
:104F900087CF80E090E0A0E0BEE028C081E090E014
:104FA000A0E0B0E023C08091971D9091981DA09142
:104FB000991DB0919A1D1AC080919B1D90919C1DC6
:104FC000A0919D1DB0919E1D11C08091A31D909137
:104FD000A41DA091A51DB091A61D08C080919F1D84
:104FE0009091A01DA091A11DB091A21D8093011DC3
:104FF0009093021DA093031DB093041D51CF86E032
:1050000090E0A0E0B0E08093F91C9093FA1CA0938C
:10501000FB1CB093FC1C86E0E1E0FDE1DF011D928A
:105020008A95E9F73DCF1092F91C1092FA1C109264
:10503000FB1C1092FC1C34CF1092F91C1092FA1C2D
:105040001092FB1C1092FC1C81E090E0A0E0B0EC00
:105050008093F51C9093F61CA093F71CB093F81C5A
:105060002091F91C3091FA1C4091FB1C5091FC1CC2
:10507000DA01C9014896A11DB11D8093ED1C9093E2
:10508000EE1CA093EF1CB093F01C211531054105D7
:10509000510541F41092FD1C1092FE1C1092FF1C51
:1050A0001092001D809388030895CF93DF93EB0146
:1050B0006EED71E047E050E00E94B07F009751F440
:1050C00098818091A61C903311F4877F01C088607D
:1050D0008093A61CDF91CF9108958091E800877F8F
:1050E0008093E8002091880380E01DC09091E80043
:1050F00090FFFCCF382F305C0DC0831779F0E82F7C
:10510000F0E0E751F34E40814093F1008F5F915002
:105110009093880390918803992379F79091E80000
:105120009E7F9093E80090918803992321F09091BD
:10513000E80092FFDBCF8091E80082FD10C0822F53
:105140008F7349F48091E80080FFFCCF8091E800E4
:105150008E7F8093E8008091E80082FFFCCF8091F1
:10516000E8008B7F8093E8008091E8008F77809340
:10517000E80081E008952091E80020FF47C02091D9
:105180008803222309F044C027E030E040E050E0EB
:105190002093E91C3093EA1C4093EB1C5093EC1CC9
:1051A00024E130E040E050E02093ED1C3093EE1C11
:1051B0004093EF1C5093F01C6093F11C7093F21C11
:1051C0008093F31C9093F41CE9EEFCE181918093B1
:1051D000F1008CE1ED3FF807C9F78091E8008E7F80
:1051E0008093E8008091E80080FFFCCF8091E80088
:1051F00082FFFCCF8091E8008B7F8093E800809154
:10520000E8008F778093E80081E0089580E00895BA
:1052100080E008951F93CF93DF93C9EED0E083E041
:10522000888381EC60E00E949D3081E0888381E882
:1052300064E30E949D3012E0188380E864E30E94DA
:105240009D30EAEEF0E088E08083108210831082C7
:1052500084E080831082DF91CF911F910895FF92A7
:105260000F931F93CF93DF938091951D9091961D7F
:105270008230910509F0D6C080916501882321F024
:105280000E941921109265015F9A82E08093E900E3
:105290008091E80082FFC8C080917F1090918010BB
:1052A000009709F0C1C09091F2009C3260F48091A7
:1052B000E8008B7F8093E8008091E8008F778093EF
:1052C000E80021E001C020E0E8EAFCE18091F10083
:1052D00081938CE1E43DF807C9F784EDF82EF90ECF
:1052E0008091A81C9091A91CA091AA1CB091AB1C04
:1052F00081309105A105B10559F08091E8008B7FBF
:105300008093E8008091E8008F778093E80021E0A7
:105310008091B41C9091B51CA091B61CB091B71CA3
:105320000097A105B10509F47FC0222309F07CC0D4
:105330000E946A258091B01C9091B11C84972091A5
:10534000E8002F7E2093E80025C02091F100FA9418
:1053500001F52091E8002B7F2093E8002091E800E0
:105360002F772093E8002091E80022FD04C02091CF
:10537000E80024FFF8CF2091E80024FF06C08091C8
:10538000E8008F7E8093E80007C0F090F200FF20D5
:1053900019F001970097C9F6C091B41CD091B51CC3
:1053A0000BE810E11AC08091F100F80181938F01A0
:1053B0002197FA9491F4209781F08091E8008B7FF7
:1053C0008093E8008091E8008F778093E8000E9446
:1053D0007330882349F5F090F200209721F78091EF
:1053E000E8008B7F8093E8008091E8008F778093BE
:1053F000E8008091B41C9091B51CA091B61CB091AE
:10540000B71C8931F5E09F07F0E0AF07F0E0BF0778
:1054100058F49093801080937F108BE890E10E9465
:10542000C72302C080E001C081E0DF91CF911F91CE
:105430000F91FF900895EF92FF920F931F93DF93C8
:10544000CF930F92CDB7DEB7082F7B0121E030E07C
:1054500040E050E02093A81C3093A91C4093AA1C64
:105460005093AB1C24E230E040E050E02093B01CAD
:105470003093B11C4093B21C5093B31C9B0140E08D
:1054800050E02093B41C3093B51C4093B61C50934D
:10549000B71C1092BC1C1092BD1C1092BE1C109226
:1054A000BF1C1092B81C1092B91C1092BA1C10921A
:1054B000BB1C1092C01C1092C11C1092C21C1092F6
:1054C000C31C1092C41C1092C51C1092C61C1092D2
:1054D000C71C1092C81C1092C91C1092CA1C1092B2
:1054E000CB1C1092CC1C1092CD1C1092CE1C109292
:1054F000CF1C1092D01C1092D11C1092D21C109272
:10550000D31C245D3F4F4F4F5F4F2093AC1C309313
:10551000AD1C4093AE1C5093AF1C81E08093E9001A
:105520008091E8008F778093E80099830E94F52F9F
:105530009981882371F5E8EAFCE181918093F1007B
:105540008CE1E43DF807C9F7192F15C0F8018191E6
:105550008F018093F1008091E80085FD09C0809162
:10556000E8008F778093E8000E94F52F882389F464
:105570000894E108F108E114F10441F78091E80092
:105580008F778093E8000E9474250E94493091E053
:10559000811190E0892F0F90CF91DF911F910F9192
:1055A000FF90EF90089565FF02C081E001C080E0A8
:1055B0000E94DF3808950F931F93DF93CF93CDB7E9
:1055C000DEB769970FB6F894DEBF0FBECDBF20914E
:1055D000FD1C3091FE1CF901EF50F34E8481958142
:1055E000A681B78183339105A105B10508F082E357
:1055F00090E0AE014F5F5F4F14C0A92FB0E0BA0139
:105600006A0F7B1FAA0FBB1F00811181A00FB11F62
:10561000A20FB31FAF50B34E0C91DB010C9382501D
:105620009F5F181654F38091F51C9091F61CA09181
:10563000F71CB091F81C823141E0940741E0A407C7
:1056400040E0B40709F47EC0833141E0940741E0B3
:10565000A40740E0B40790F48E30E1E09E07E1E05B
:10566000AE07E0E0BE0741F18F30F1E09F07F1E0C7
:10567000AF07F0E0BF0709F040C064C08B3142E0E3
:10568000940741E0A40740E0B40749F08330E1E02B
:105690009E07E1E0AE07E1E0BE0779F553C06485FF
:1056A0007585620F731F6F50734E40895189CE010B
:1056B00001960E94552846C02F50334ED9016D9156
:1056C0007D918D919C9113976093890370938A03C8
:1056D00080938B0390938C0361157105810591056F
:1056E00029F00E94D32A82E090E002C081E090E09D
:1056F0009093961D8093951D25C085E090E0A0E0D5
:10570000B0E88093E91C9093EA1CA093EB1CB09343
:10571000EC1C80E190E0A0E0B0E08093ED1C909361
:10572000EE1CA093EF1CB093F01C81E090E0A0E091
:10573000B0EC8093F51C9093F61CA093F71CB093EB
:10574000F81C20C085E090E0A0E0B0E88093E91C60
:105750009093EA1CA093EB1CB093EC1C80E190E0CA
:10576000A0E0B0E08093ED1C9093EE1CA093EF1CA2
:10577000B093F01C1092F51C1092F61C1092F71CBE
:105780001092F81C80E18093880369960FB6F89414
:10579000DEBF0FBECDBFCF91DF911F910F91089556
:1057A0002091E800277F2093E800282F392FC90196
:1057B0008D3A910510F08CEA90E02091E8002F7B63
:1057C0002093E80020E02CC03091E8004091E800F0
:1057D00046FD02C032FFF8CF3091E80032FF1AC018
:1057E000322F305C4091F100E22FF0E0E751F34EB0
:1057F00040832F5F0197231711F0009799F730919D
:10580000E8003B7F3093E8003091E8003F77309329
:10581000E80006C08091E8008F7B8093E80002C01A
:10582000009791F68091E8008E7F8093E800809148
:10583000E91C9091EA1CA091EB1CB091EC1C843007
:105840009105A105B10509F4AAC085309105A1050E
:10585000B10560F482309105A105B105D1F0833026
:105860009105A105B10509F0F5C08FC086309105FD
:10587000A105B10509F499C086309105A105B105CE
:1058800008F490C088309105A105B10509F0E2C087
:10589000BDC082E090E0A0E0B0E88093E91C909366
:1058A000EA1CA093EB1CB093EC1C84E390E0A0E016
:1058B000B0E08093ED1C9093EE1CA093EF1CB0938E
:1058C000F01C81E090E0A0E0B0E08093F91C9093A0
:1058D000FA1CA093FB1CB093FC1C8093FD1C9093BE
:1058E000FE1CA093FF1CB093001D1092F51C10929B
:1058F000F61C1092F71C1092F81C8093011D9093D7
:10590000021DA093031DB093041D1092051D10925B
:10591000061D1092071D1092081D8093091D90937B
:105920000A1DA0930B1DB0930C1D82E595E0A0E02D
:10593000B0E080930D1D90930E1DA0930F1DB093AA
:10594000101D83E090E0A0E0B0E08093111D9093E3
:10595000121DA093131DB093141D1092151D1092CB
:10596000161D1092171D1092181D1092191D1092DD
:105970001A1D10921B1D10921C1D81E090E0909347
:10598000961D8093951D84E362C05F9A5D98779819
:1059900076988091E8008E7F8093E800FFCF0E9488
:1059A000DD255BC00E94DB2A58C01092961D109224
:1059B000951D86E090E0A0E0B0E88093E91C90930C
:1059C000EA1CA093EB1CB093EC1C80E190E0A0E0FB
:1059D000B0E08093ED1C9093EE1CA093EF1CB0936D
:1059E000F01C1092F11C1092F21C1092F31C1092F9
:1059F000F41C81E090E0A0E0B0E08093F51C90936F
:105A0000F61CA093F71CB093F81C20C088E090E02F
:105A1000A0E0B0E88093E91C9093EA1CA093EB1CF3
:105A2000B093EC1C80E190E0A0E0B0E08093ED1C2E
:105A30009093EE1CA093EF1CB093F01C1092F51CF9
:105A40001092F61C1092F71C1092F81C80E18093C3
:105A5000880303C0779880E008958091E80080FF74
:105A6000FCCF8091E80082FF0AC08091E8008B7F24
:105A70008093E8008091E8008F778093E80081E0D0
:105A80008093870308951F93CF93DF93C9EED0E0EF
:105A900081E0888381E864E30E949D3012E01883EE
:105AA00080E864E30E949D30EAEEF0E0108310820B
:105AB00084E080831082DF91CF911F9108951F931E
:105AC000CF93DF9380916601882321F00E941921F2
:105AD000109266015F9A82E08093E9008091E8006D
