:100000000C94920B0C94B10B0C94B10B0C94B10B9F
:100010000C94B10B0C94B10B0C94B10B0C94B10B70
:100020000C94B10B0C9434510C94B10B0C94B10B97
:100030000C949D590C94B10B0C94B10B0C941A5A5E
:100040000C94B10B0C94B10B0C94B10B0C94B10B40
:100050000C94B3510C94B10B0C94B10B0C94B10BE8
:100060000C94B10B0C94B10B0C94B10B0C94B10B20
:100070000C94E2510C94B10B0C94B10B0C94B10B99
:100080000C94CC9C0C94B10B0C94B10BC6A563637F
:10009000F8847C7CEE997777F68D7B7BFF0DF2F20E
:1000A000D6BD6B6BDEB16F6F9154C5C560503030FB
:1000B00002030101CEA96767567D2B2BE719FEFECF
:1000C000B562D7D74DE6ABABEC9A76768F45CACA08
:1000D0001F9D82828940C9C9FA877D7DEF15FAFA92
:1000E000B2EB59598EC94747FB0BF0F041ECADAD6F
:1000F000B367D4D45FFDA2A245EAAFAF23BF9C9CF7
:1001000053F7A4A4E49672729B5BC0C075C2B7B7E4
:10011000E11CFDFD3DAE93934C6A26266C5A3636A3
:100120007E413F3FF502F7F7834FCCCC685C343417
:1001300051F4A5A5D134E5E5F908F1F1E293717127
:10014000AB73D8D8625331312A3F1515080C04041B
:100150009552C7C7466523239D5EC3C33028181830
:1001600037A196960A0F05052FB59A9A0E0907072B
:10017000243612121B9B8080DF3DE2E2CD26EBEBA2
:100180004E6927277FCDB2B2EA9F7575121B090908
:100190001D9E838358742C2C342E1A1A362D1B1B4B
:1001A000DCB26E6EB4EE5A5A5BFBA0A0A4F65252BB
:1001B000764D3B3BB761D6D67DCEB3B3527B292972
:1001C000DD3EE3E35E712F2F13978484A6F553532E
:1001D000B968D1D100000000C12CEDED40602020B5
:1001E000E31FFCFC79C8B1B1B6ED5B5BD4BE6A6AB3
:1001F0008D46CBCB67D9BEBE724B393994DE4A4AA5
:1002000098D44C4CB0E85858854ACFCFBB6BD0D06F
:10021000C52AEFEF4FE5AAAAED16FBFB86C54343BF
:100220009AD74D4D66553333119485858ACF454510
:10023000E910F9F904060202FE817F7FA0F0505018
:1002400078443C3C25BA9F9F4BE3A8A8A2F35151A8
:100250005DFEA3A380C04040058A8F8F3FAD929280
:1002600021BC9D9D70483838F104F5F563DFBCBCB6
:1002700077C1B6B6AF75DADA4263212120301010AB
:10028000E51AFFFFFD0EF3F3BF6DD2D2814CCDCD49
:1002900018140C0C26351313C32FECECBEE15F5F72
:1002A00035A2979788CC44442E3917179357C4C466
:1002B00055F2A7A7FC827E7E7A473D3DC8AC6464B8
:1002C000BAE75D5D322B1919E6957373C0A06060C3
:1002D000199881819ED14F4FA37FDCDC4466222296
:1002E000547E2A2A3BAB90900B8388888CCA464662
:1002F000C729EEEE6BD3B8B8283C1414A779DEDE1C
:10030000BCE25E5E161D0B0BAD76DBDBDB3BE0E09B
:1003100064563232744E3A3A141E0A0A92DB494944
:100320000C0A0606486C2424B8E45C5C9F5DC2C2DB
:10033000BD6ED3D343EFACACC4A6626239A8919131
:1003400031A49595D337E4E4F28B7979D532E7E798
:100350008B43C8C86E593737DAB76D6D018C8D8DF8
:10036000B164D5D59CD24E4E49E0A9A9D8B46C6CE5
:10037000ACFA5656F307F4F4CF25EAEACAAF65653E
:10038000F48E7A7A47E9AEAE101808086FD5BABA7B
:10039000F08878784A6F25255C722E2E38241C1C34
:1003A00057F1A6A673C7B4B49751C6C6CB23E8E8E5
:1003B000A17CDDDDE89C74743E211F1F96DD4B4B54
:1003C00061DCBDBD0D868B8B0F858A8AE0907070D5
:1003D0007C423E3E71C4B5B5CCAA666690D848480A
:1003E00006050303F701F6F61C120E0EC2A36161A7
:1003F0006A5F3535AEF9575769D0B9B91791868616
:100400009958C1C13A271D1D27B99E9ED938E1E1EF
:10041000EB13F8F82BB3989822331111D2BB69690A
:10042000A970D9D907898E8E33A794942DB69B9B3A
:100430003C221E1E15928787C920E9E98749CECE46
:10044000AAFF555550782828A57ADFDF038F8C8CBA
:1004500059F8A1A1098089891A170D0D65DABFBF66
:10046000D731E6E684C64242D0B8686882C34141CB
:1004700029B099995A772D2D1E110F0F7BCBB0B053
:10048000A8FC54546DD6BBBB2C3A161663C6A563A4
:100490007CF8847C77EE99777BF68D7BF2FF0DF20A
:1004A0006BD6BD6B6FDEB16FC59154C530605030F7
:1004B0000102030167CEA9672B567D2BFEE719FECB
:1004C000D7B562D7AB4DE6AB76EC9A76CA8F45CA04
:1004D000821F9D82C98940C97DFA877DFAEF15FA8E
:1004E00059B2EB59478EC947F0FB0BF0AD41ECAD6B
:1004F000D4B367D4A25FFDA2AF45EAAF9C23BF9CF3
:10050000A453F7A472E49672C09B5BC0B775C2B7E0
:10051000FDE11CFD933DAE93264C6A26366C5A369F
:100520003F7E413FF7F502F7CC834FCC34685C3413
:10053000A551F4A5E5D134E5F1F908F171E2937123
:10054000D8AB73D831625331152A3F1504080C0417
:10055000C79552C723466523C39D5EC3183028182C
:100560009637A196050A0F059A2FB59A070E090727
:1005700012243612801B9B80E2DF3DE2EBCD26EB9E
:10058000274E6927B27FCDB275EA9F7509121B0904
:10059000831D9E832C58742C1A342E1A1B362D1B47
:1005A0006EDCB26E5AB4EE5AA05BFBA052A4F652B7
:1005B0003B764D3BD6B761D6B37DCEB329527B296E
:1005C000E3DD3EE32F5E712F8413978453A6F5532A
:1005D000D1B968D100000000EDC12CED20406020B1
:1005E000FCE31FFCB179C8B15BB6ED5B6AD4BE6AAF
:1005F000CB8D46CBBE67D9BE39724B394A94DE4AA1
:100600004C98D44C58B0E858CF854ACFD0BB6BD06B
:10061000EFC52AEFAA4FE5AAFBED16FB4386C543BB
:100620004D9AD74D3366553385119485458ACF450C
:10063000F9E910F9020406027FFE817F50A0F05014
:100640003C78443C9F25BA9FA84BE3A851A2F351A4
:10065000A35DFEA34080C0408F058A8F923FAD927C
:100660009D21BC9D38704838F5F104F5BC63DFBCB2
:10067000B677C1B6DAAF75DA2142632110203010A7
:10068000FFE51AFFF3FD0EF3D2BF6DD2CD814CCD45
:100690000C18140C13263513ECC32FEC5FBEE15F6E
:1006A0009735A2974488CC44172E3917C49357C462
:1006B000A755F2A77EFC827E3D7A473D64C8AC64B4
:1006C0005DBAE75D19322B1973E6957360C0A060BF
:1006D000811998814F9ED14FDCA37FDC2244662292
:1006E0002A547E2A903BAB90880B8388468CCA465E
:1006F000EEC729EEB86BD3B814283C14DEA779DE18
:100700005EBCE25E0B161D0BDBAD76DBE0DB3BE097
:10071000326456323A744E3A0A141E0A4992DB4940
:10072000060C0A0624486C245CB8E45CC29F5DC2D7
:10073000D3BD6ED3AC43EFAC62C4A6629139A8912D
:100740009531A495E4D337E479F28B79E7D532E794
:10075000C88B43C8376E59376DDAB76D8D018C8DF4
:10076000D5B164D54E9CD24EA949E0A96CD8B46CE1
:1007700056ACFA56F4F307F4EACF25EA65CAAF653A
:100780007AF48E7AAE47E9AE08101808BA6FD5BA77
:1007900078F08878254A6F252E5C722E1C38241C30
:1007A000A657F1A6B473C7B4C69751C6E8CB23E8E1
:1007B000DDA17CDD74E89C741F3E211F4B96DD4B50
:1007C000BD61DCBD8B0D868B8A0F858A70E09070D1
:1007D0003E7C423EB571C4B566CCAA664890D84806
:1007E00003060503F6F701F60E1C120E61C2A361A3
:1007F000356A5F3557AEF957B969D0B98617918612
:10080000C19958C11D3A271D9E27B99EE1D938E1EB
:10081000F8EB13F8982BB3981122331169D2BB6906
:10082000D9A970D98E07898E9433A7949B2DB69B36
:100830001E3C221E87159287E9C920E9CE8749CE42
:1008400055AAFF5528507828DFA57ADF8C038F8CB6
:10085000A159F8A1890980890D1A170DBF65DABF62
:10086000E6D731E64284C64268D0B8684182C341C7
:100870009929B0992D5A772D0F1E110FB07BCBB04F
:1008800054A8FC54BB6DD6BB162C3A166363C6A5A0
:100890007C7CF8847777EE997B7BF68DF2F2FF0D06
:1008A0006B6BD6BD6F6FDEB1C5C5915430306050F3
:1008B000010102036767CEA92B2B567DFEFEE719C7
:1008C000D7D7B562ABAB4DE67676EC9ACACA8F4500
:1008D00082821F9DC9C989407D7DFA87FAFAEF158A
:1008E0005959B2EB47478EC9F0F0FB0BADAD41EC67
:1008F000D4D4B367A2A25FFDAFAF45EA9C9C23BFEF
:10090000A4A453F77272E496C0C09B5BB7B775C2DC
:10091000FDFDE11C93933DAE26264C6A36366C5A9B
:100920003F3F7E41F7F7F502CCCC834F3434685C0F
:10093000A5A551F4E5E5D134F1F1F9087171E2931F
:10094000D8D8AB733131625315152A3F0404080C13
:10095000C7C7955223234665C3C39D5E1818302828
:10096000969637A105050A0F9A9A2FB507070E0923
:100970001212243680801B9BE2E2DF3DEBEBCD269A
:1009800027274E69B2B27FCD7575EA9F0909121B00
:1009900083831D9E2C2C58741A1A342E1B1B362D43
:1009A0006E6EDCB25A5AB4EEA0A05BFB5252A4F6B3
:1009B0003B3B764DD6D6B761B3B37DCE2929527B6A
:1009C000E3E3DD3E2F2F5E71848413975353A6F526
:1009D000D1D1B96800000000EDEDC12C20204060AD
:1009E000FCFCE31FB1B179C85B5BB6ED6A6AD4BEAB
:1009F000CBCB8D46BEBE67D93939724B4A4A94DE9D
:100A00004C4C98D45858B0E8CFCF854AD0D0BB6B67
:100A1000EFEFC52AAAAA4FE5FBFBED16434386C5B7
:100A20004D4D9AD7333366558585119445458ACF08
:100A3000F9F9E910020204067F7FFE815050A0F010
:100A40003C3C78449F9F25BAA8A84BE35151A2F3A0
:100A5000A3A35DFE404080C08F8F058A92923FAD78
:100A60009D9D21BC38387048F5F5F104BCBC63DFAE
:100A7000B6B677C1DADAAF752121426310102030A3
:100A8000FFFFE51AF3F3FD0ED2D2BF6DCDCD814C41
:100A90000C0C181413132635ECECC32F5F5FBEE16A
:100AA000979735A2444488CC17172E39C4C493575E
:100AB000A7A755F27E7EFC823D3D7A476464C8ACB0
:100AC0005D5DBAE71919322B7373E6956060C0A0BB
:100AD000818119984F4F9ED1DCDCA37F222244668E
:100AE0002A2A547E90903BAB88880B8346468CCA5A
:100AF000EEEEC729B8B86BD31414283CDEDEA77914
:100B00005E5EBCE20B0B161DDBDBAD76E0E0DB3B93
:100B1000323264563A3A744E0A0A141E494992DB3C
:100B200006060C0A2424486C5C5CB8E4C2C29F5DD3
:100B3000D3D3BD6EACAC43EF6262C4A6919139A829
:100B4000959531A4E4E4D3377979F28BE7E7D53290
:100B5000C8C88B4337376E596D6DDAB78D8D018CF0
:100B6000D5D5B1644E4E9CD2A9A949E06C6CD8B4DD
:100B70005656ACFAF4F4F307EAEACF256565CAAF36
:100B80007A7AF48EAEAE47E908081018BABA6FD573
:100B90007878F08825254A6F2E2E5C721C1C38242C
:100BA000A6A657F1B4B473C7C6C69751E8E8CB23DD
:100BB000DDDDA17C7474E89C1F1F3E214B4B96DD4C
:100BC000BDBD61DC8B8B0D868A8A0F857070E090CD
:100BD0003E3E7C42B5B571C46666CCAA484890D802
:100BE00003030605F6F6F7010E0E1C126161C2A39F
:100BF00035356A5F5757AEF9B9B969D0868617910E
:100C0000C1C199581D1D3A279E9E27B9E1E1D938E7
:100C1000F8F8EB1398982BB3111122336969D2BB02
:100C2000D9D9A9708E8E0789949433A79B9B2DB632
:100C30001E1E3C2287871592E9E9C920CECE87493E
:100C40005555AAFF28285078DFDFA57A8C8C038FB2
:100C5000A1A159F8898909800D0D1A17BFBF65DA5E
:100C6000E6E6D731424284C66868D0B8414182C3C3
:100C7000999929B02D2D5A770F0F1E11B0B07BCB4B
:100C80005454A8FCBBBB6DD616162C3AA56363C69C
:100C9000847C7CF8997777EE8D7B7BF60DF2F2FF02
:100CA000BD6B6BD6B16F6FDE54C5C59150303060EF
:100CB00003010102A96767CE7D2B2B5619FEFEE7C3
:100CC00062D7D7B5E6ABAB4D9A7676EC45CACA8FFC
:100CD0009D82821F40C9C989877D7DFA15FAFAEF86
:100CE000EB5959B2C947478E0BF0F0FBECADAD4163
:100CF00067D4D4B3FDA2A25FEAAFAF45BF9C9C23EB
:100D0000F7A4A453967272E45BC0C09BC2B7B775D8
:100D10001CFDFDE1AE93933D6A26264C5A36366C97
:100D2000413F3F7E02F7F7F54FCCCC835C3434680B
:100D3000F4A5A55134E5E5D108F1F1F9937171E21B
:100D400073D8D8AB533131623F15152A0C0404080F
:100D500052C7C795652323465EC3C39D2818183024
:100D6000A19696370F05050AB59A9A2F0907070E1F
:100D7000361212249B80801B3DE2E2DF26EBEBCD96
:100D80006927274ECDB2B27F9F7575EA1B090912FC
:100D90009E83831D742C2C582E1A1A342D1B1B363F
:100DA000B26E6EDCEE5A5AB4FBA0A05BF65252A4AF
:100DB0004D3B3B7661D6D6B7CEB3B37D7B29295266
:100DC0003EE3E3DD712F2F5E97848413F55353A622
:100DD00068D1D1B9000000002CEDEDC160202040A9
:100DE0001FFCFCE3C8B1B179ED5B5BB6BE6A6AD4A7
:100DF00046CBCB8DD9BEBE674B393972DE4A4A9499
:100E0000D44C4C98E85858B04ACFCF856BD0D0BB63
:100E10002AEFEFC5E5AAAA4F16FBFBEDC5434386B3
:100E2000D74D4D9A5533336694858511CF45458A04
:100E300010F9F9E906020204817F7FFEF05050A00C
:100E4000443C3C78BA9F9F25E3A8A84BF35151A29C
:100E5000FEA3A35DC04040808A8F8F05AD92923F74
:100E6000BC9D9D214838387004F5F5F1DFBCBC63AA
:100E7000C1B6B67775DADAAF63212142301010209F
:100E80001AFFFFE50EF3F3FD6DD2D2BF4CCDCD813D
:100E9000140C0C18351313262FECECC3E15F5FBE66
:100EA000A2979735CC4444883917172E57C4C4935A
:100EB000F2A7A755827E7EFC473D3D7AAC6464C8AC
:100EC000E75D5DBA2B191932957373E6A06060C0B7
:100ED00098818119D14F4F9E7FDCDCA3662222448A
:100EE0007E2A2A54AB90903B8388880BCA46468C56
:100EF00029EEEEC7D3B8B86B3C14142879DEDEA710
:100F0000E25E5EBC1D0B0B1676DBDBAD3BE0E0DB8F
:100F1000563232644E3A3A741E0A0A14DB49499238
:100F20000A06060C6C242448E45C5CB85DC2C29FCF
:100F30006ED3D3BDEFACAC43A66262C4A891913925
:100F4000A495953137E4E4D38B7979F232E7E7D58C
:100F500043C8C88B5937376EB76D6DDA8C8D8D01EC
:100F600064D5D5B1D24E4E9CE0A9A949B46C6CD8D9
:100F7000FA5656AC07F4F4F325EAEACFAF6565CA32
:100F80008E7A7AF4E9AEAE4718080810D5BABA6F6F
:100F9000887878F06F25254A722E2E5C241C1C3828
:100FA000F1A6A657C7B4B47351C6C69723E8E8CBD9
:100FB0007CDDDDA19C7474E8211F1F3EDD4B4B9648
:100FC000DCBDBD61868B8B0D858A8A0F907070E0C9
:100FD000423E3E7CC4B5B571AA6666CCD8484890FE
:100FE0000503030601F6F6F7120E0E1CA36161C29B
:100FF0005F35356AF95757AED0B9B969918686170A
:1010000058C1C199271D1D3AB99E9E2738E1E1D9E3
:1010100013F8F8EBB398982B33111122BB6969D2FE
:1010200070D9D9A9898E8E07A7949433B69B9B2D2E
:10103000221E1E3C9287871520E9E9C949CECE873A
:10104000FF5555AA782828507ADFDFA58F8C8C03AE
:10105000F8A1A15980898909170D0D1ADABFBF655A
:1010600031E6E6D7C6424284B86868D0C3414182BF
:10107000B0999929772D2D5A110F0F1ECBB0B07B47
:10108000FC5454A8D6BBBB6D3A16162C441108006C
:101090004C110800541108005C110800641108008C
:1010A0006C110800741108007C11080084110800FC
:1010B0008C110E009A110E00A8110E00B6110E0030
:1010C000C4110E00D2110E00E0110E00EE110E0040
:1010D000FC110E000A120E0018120E0026120E004D
:1010E00034120E0042120E0050120E005E120D005D
:1010F0006B120D0078120D0085120D0092120E0079
:10110000A0120E00AE120E00BC120E00CA120E008B
:10111000D8120E00E6120E00F4120E0002130E009A
:1011200010130E001E130E002C130E003A130E00A7
:1011300048130E0056130E0064130E0072130E00B7
:1011400080130D002B060102010101002B06010294
:10115000010102002B060102010103002B0601021E
:10116000010104002B060102010105002B0601020A
:10117000010106002B060102010107002B060102F6
:10118000010108002B060102010109012B060104DF
:101190000181F2060102010101002B060104018117
:1011A000F2060102010102002B0601040181F20690
:1011B0000102010103002B0601040181F206010274
:1011C000010104002B0601040181F2060102010164
:1011D00005002B0601040181F2060102010106004F
:1011E0002B0601040181F2060102010107002B0612
:1011F00001040181F2060102010108002B0601042D
:101200000181F2060102010109002B06010401819E
:10121000F206010201010A002B0601040181F20617
:10122000010201010B002B0601040181F2060102FB
:1012300001010C002B0601040181F20601020102EA
:1012400001002B0601040181F206010201020200E5
:101250002B0601040181F2060102010203002B06A4
:1012600001040181F20601020103012B06010401C0
:1012700081F20601020104012B0601040181F2063C
:1012800001020105012B0601040181F206010201A0
:1012900006012B0601040181F2060102010801008A
:1012A0002B0601040181F2060102010802002B064F
:1012B00001040181F2060102010803002B0601046A
:1012C0000181F2060102010804002B0601040181DC
:1012D000F2060102010805002B0601040181F20655
:1012E0000102010806002B0601040181F206010239
:1012F000010807002B0601040181F2060102010822
:1013000008002B0601040181F20601020108090010
:101310002B0601040181F206010201080A002B06D6
:1013200001040181F206010201080B002B060104F1
:101330000181F206010201080C002B060104018163
:10134000F206010201080D002B0601040181F206DC
:10135000010201080E002B0601040181F2060102C0
:1013600001080F002B0601040181F20601020108A9
:1013700010002B0601040181F20601020108110090
:101380002B0601040181F2060102010901257325E2
:10139000730A004E657665722D75736564207374EB
:1013A00061636B203E2025642062797465730A00B6
:1013B0000A2D2D2D2D2D2D2D2D2D0A0020203C6E9A
:1013C0006F6E653E002920256C75730A002F257508
:1013D000202876696120000A526F75746573205B5E
:1013E0002575206D61785D0A0020203C6E6F6E656A
:1013F0003E000A000A4E65696768626F7273205B7F
:101400002575206D61785D0A000A000A41646472E6
:101410006573736573205B2575206D61785D0A00C7
:101420002578003A003A3A004F6E6C696E650A0002
:10143000526F7574696E6720456E61626C65640AEF
:101440000052504C20456E61626C65640A00257341
:101450002025732C206368616E6E656C2025752CC9
:101460002070616E696420307825582C206368658F
:10147000636B207261746520257520487A2074782A
:1014800020706F7765722025750A004555492D3605
:1014900034204D41433A2025782D25782D25782D6F
:1014A00025782D25782D25782D25782D25780A006D
:1014B00052616E646F6D2045554936342061646415
:1014C000726573732067656E6572617465640A0086
:1014D0000A2A2A2A2A2A2A2A426F6F74696E6720EA
:1014E00025732A2A2A2A2A2A2A0A00021122FFFE02
:1014F000334455526176656E5F77656273657276C7
:101500006572006C6F63616C686F73740045455061
:10151000524F4D20697320636F72727570742C2066
:10152000726577726974696E672077697468206480
:10153000656661756C74732E0A00452025642E253E
:101540006420636C6F636B20256C7520637075205D
:10155000256C75206C706D20256C7520697271206A
:10156000256C7520676C656420256C7520796C6529
:101570006420256C7520726C656420256C75207460
:101580007820256C75206C697374656E20256C75E8
:101590002073656E736F727320256C75207365728E
:1015A00069616C20256C750A00532025642E256422
:1015B00020636C6F636B20256C7520747820256C1C
:1015C0007520727820256C752072747820256C75D2
:1015D0002072727820256C75207265786D69742090
:1015E000256C752061636B747820256C75206E6F97
:1015F00061636B747820256C752061636B72782051
:10160000256C752074696D65646F757420256C7523
:101610002062616461636B727820256C7520746F41
:101620006F6C6F6E6720256C7520746F6F73686FB9
:10163000727420256C752062616473796E63682012
:10164000256C752062616463726320256C7520636C
:101650006F6E74656E74696F6E64726F7020256C46
:10166000752073656E64696E6764726F7020256C97
:1016700075206C6C747820256C75206C6C727820E9
:10168000256C750A0074637069705F697076365FE7
:101690006F75747075743A206E627220636163684E
:1016A0006520656E747279207374616C65206D6F4E
:1016B00076696E6720746F2064656C61790A0074C6
:1016C000637069705F697076365F6F75747075747A
:1016D0003A206E627220636163686520656E747281
:1016E0007920696E636F6D706C6574650A00746350
:1016F0007069705F697076365F6F75747075743A73
:101700002044657374696E6174696F6E206F6666DC
:101710002D6C696E6B20627574206E6F20726F7510
:1017200074650A0011241FBECFEFD0E4DEBFCDBF29
:1017300018E0A0E0B1E0ECE6FEE401E00BBF02C07F
:1017400007900D92AE35B107D9F715E3AEE5B8E0D5
:1017500001C01D92A337B107E1F70E94A14E0C947E
:1017600034A70C940000EF92FF920F931F93DF9326
:10177000CF93CDB7DEB7C65ED1400FB6F894DEBFCB
:101780000FBECDBF9091362C891709F052C08091C1
:101790002D2B81FF4EC040915E0850915F08CA0119
:1017A000A5E3B6E220E10D90FC010192CF012150AA
:1017B000D1F78091552690915626DA0153969C9345
:1017C0008E93529784E091E00E94D3A360912126EA
:1017D0007091222683E0E82EF12CEC0EFD1E809104
:1017E000322B9091332BA7019E012F5F3F4F04EEC8
:1017F00011E00E94710DE0915E08F0915F0888236E
:1018000039F0138A128A80E111928A95E9F711C0A2
:1018100049815A81CF01B7010E94D882E0915E08C8
:10182000F0915F0880E1DF011D928A95E9F7138A44
:10183000128ACA51DE4F0FB6F894DEBF0FBECDBF7D
:10184000CF91DF911F910F91FF90EF90089580E06D
:1018500090E00E9432A6AB01BC014F3F8FEF5807CA
:101860008FEF68078FE7780748F44F5F5F4F6F4F40
:101870007F4F80E090E00E943EA604C08DE391E09F
:101880000E94D3A380E090E00E9432A600D000D056
:1018900000D022EB31E0EDB7FEB7328321836383C2
:1018A0007483858396830E94A1A38DB79EB7069605
:1018B0000FB6F8949EBF0FBE8DBF80E00895609173
:1018C000FD237091FE238091FF239091002424E654
:1018D00030E040E050E00E9417A197FF0AC010924C
:1018E000FD231092FE231092FF23109200240E94E9
:1018F000270C6091FD237091FE238091FF2390912E
:10190000002424E630E040E050E00E9417A1089552
:1019100080E090E00E9432A6089500D000D000D070
:10192000EDB7FEB7319685ED91E0ADB7BEB7129633
:101930009C938E9311978FEF90E49383828383E738
:1019400095E3958384830E94A1A38DB79EB70696E5
:101950000FB6F8949EBF0FBE8DBFE0E0F1E420E02B
:1019600030E0A90108C0B291A291929182912827FA
:1019700039274A275B2795E3E737F907A0F7B9012D
:10198000CA010895CF93DF93EC01862F2881398116
:101990002115310531F091E02933390709F06DC087
:1019A00068C0259A269A279A2F982E9A2D9A80E019
:1019B00090E060E070E040E050E00E94AD809093E5
:1019C0005F0880935E0820E031EADC0151963C9389
:1019D0002E9350970E94270C0E948D0C0E9453A3B7
:1019E0000E944EA36093D1237093D2238093D3237C
:1019F0009093D4230E944EA36093D5237093D62353
:101A00008093D7239093D823EDB7FEB73A970FB6BC
:101A1000F894FEBF0FBEEDBF319621EF31E0ADB7B8
:101A2000BEB712963C932E9311972091D1233091FB
:101A3000D2234091D3235091D423228333834483F0
:101A4000558366837783808791870E94A1A3EDB732
:101A5000FEB73A960FB6F894FEBF0FBEEDBF0E94D8
:101A6000464A8F3F51F089E391E09983888381E072
:101A700007C0BA010E94B30BF6CF1982188283E027
:101A8000DF91CF9108952091D1233091D2234091BD
:101A9000D3235091D4232F5F3F4F4F4F5F4F20935D
:101AA000D1233093D2234093D3235093D423B9012D
:101AB000CA0108952091D5233091D6234091D72390
:101AC0005091D8232F5F3F4F4F4F5F4F2093D52327
:101AD0003093D6234093D7235093D823B901CA011A
:101AE00008952F923F924F925F926F927F928F92C2
:101AF0009F92AF92BF92CF92DF92EF92FF920F939D
:101B00001F93DF93CF9300D000D000D0CDB7DEB7C6
:101B10005C017B012A011901380180916C089091C8
:101B20006D08A0916E08B0916F080196A11DB11DBE
:101B300080936C0890936D08A0936E08B0936F0823
:101B400000D000D000D026E232E0EDB7FEB73283FD
:101B5000218383839483A583B6830E94A1A38DB739
:101B60009EB706960FB6F8949EBF0FBE8DBF95EE3A
:101B7000E91691E0F90608F0CDC01A821982C50174
:101B8000B7014E010894811C911CA4010E946B1A9C
:101B9000882351F4C501B701A4019E012D5F3F4F79
:101BA0000E94BA1A8823C1F087E392E00E94D3A36F
:101BB0008091640890916508A0916608B0916708CB
:101BC0000196A11DB11D8093640890936508A093B0
:101BD0006608B09367089EC08B819C81AD81BE81F1
:101BE00083309105A105B10551F582E390E00E9493
:101BF0006CA1192FC82ED92EE82FF92F82E3DF010F
:101C00001D928A95E9F783E0F601808382E792E0EE
:101C10000E94D3A3C501B701A4012C2D312F0E942E
:101C20008D0F992787FD9095A92FB92F8B839C83C2
:101C3000AD83BE830097A105B10569F543C08091CE
:101C4000600890916108A0916208B09163080196C4
:101C5000A11DB11D8093600890936108A093620854
:101C6000B093630800D000D0EDB7FEB731968BE992
:101C700092E0ADB7BEB712969C938E931197809168
:101C80000000828313820E94A1A30F900F900F90F7
:101C90000F9081E042C08091640890916508A09106
:101CA0006608B09167080196A11DB11D8093640874
:101CB00090936508A0936608B0936708C6010E94D8
:101CC000872128C0C6010E941C16F601808183303E
:101CD000B1F485EC92E00E94D3A38C2D912FB20138
:101CE000A1019501870173010E945710992787FD73
:101CF0009095A92FB92F8B839C83AD83BE83C6019A
:101D00000E9487218B819C81AD81BE810097A105B6
:101D1000B10511F08FEF01C080E026960FB6F89460
:101D2000DEBF0FBECDBFCF91DF911F910F91FF900E
:101D3000EF90DF90CF90BF90AF909F908F907F906B
:101D40006F905F904F903F902F9008954F925F92C9
:101D50006F927F928F929F92AF92BF92CF92DF92BB
:101D6000EF92FF920F931F93DF93CF9300D0CDB7E5
:101D7000DEB75C016B012A01A90198013701FA82E3
:101D8000E9828C010F5F1F4FCB014E010894811C2B
:101D9000911CB4010E94F41FF50146895789208DDA
:101DA000318DC601B4010E941D1F87FDA0C0F50141
:101DB0004289538924893589C601B4010E941D1FB7
:101DC00087FD95C089819A819301281B390BC60133
:101DD000B40140E30E940D1E87FD89C0C501B60114
:101DE000A30194010E94E51487FD81C0E980FA8077
:101DF000C601B40142E003E010E020E030E00E94C0
:101E0000831E87FD74C089819A8101979A83898393
:101E100097FD6DC08C0D9D1DF5012189FC0120836E
:101E2000C601B40144E021E030E00E940D1E87FDB0
:101E30005EC0C601B40142E004EE11E020E030E0F3
:101E40000E94831E87FD53C0F501058516852785F1
:101E50003089C601B40142E00E94831E87FD47C05D
:101E600089819A819701281B390BC601B40140E38F
:101E70000E940D1E87FD3BC0F501008110E020E0AF
:101E800030E0C6014E010894811C911CB40142E06F
:101E90000E94831E87FD2BC089819A819301281B94
:101EA000390BC601B40140E30E940D1E87FD1FC01F
:101EB00069817A81A301461B570BF201518340834C
:101EC000F501818980FF05C06C0D7D1DC5010E9453
:101ED000EB1569817A81161617065CF46C0D7D1D71
:101EE000F20140815181C6010E9488A302C08FEF98
:101EF00001C080E00F900F90CF91DF911F910F9163
:101F0000FF90EF90DF90CF90BF90AF909F908F9019
:101F10007F906F905F904F9008956F927F928F9215
:101F20009F92AF92BF92CF92DF92EF92FF920F9368
:101F30001F93DF93CF93CDB7DEB727970FB6F894F3
:101F4000DEBF0FBECDBF6C015B017A0149018E017E
:101F50000E5F1F4F98010E949F1A87FD92C084E078
:101F6000682E712C6C0E7D1EC601B501A701930170
:101F70000E94BA1A87FD85C08C819D81AE81BF8188
:101F8000F40185879687A787B08BC601B501A701A5
:101F900093010E94BA1A87FD74C0C601B501A7015A
:101FA0009E012F5F3F4F0E944A1A87FD6AC08981B8
:101FB000843009F066C08A819B818130910509F0E7
:101FC00060C0D701ED91FC911197EC0DFD1D808152
:101FD000F401818B8D919C911197019611969C93A0
:101FE0008E93818980FD02C081FD4BC0C601B50181
:101FF000A7019E012C5F3F4F0E94BA1A87FD41C086
:102000008C819D81AE81BF8183309105A105B10591
:10201000C1F5C601B501A70194010E94DD118F3FF2
:1020200081F1833061F1C601B501A7019E012E5FE8
:102030003F4F0E949F1A87FD24C094012E5E3F4FA0
:1020400084010C5E1F4FC601B501A7010E94B31B9E
:1020500087FD17C094012A5E3F4F8401085E1F4F21
:10206000C601B501A7010E94B31B87FD0AC09401F8
:102070002F5F3F4FC601B501A7010E94031D80E0FD
:1020800001C08FEF27960FB6F894DEBF0FBECDBF0D
:10209000CF91DF911F910F91FF90EF90DF90CF9044
:1020A000BF90AF909F908F907F906F9008952F92E8
:1020B0003F924F925F926F927F928F929F92AF92D8
:1020C000BF92CF92DF92EF92FF920F931F93CF9325
:1020D000DF93EC014B013A01290189898370898BD7
:1020E0000E949921FC0180819181A281B3818A8B18
:1020F0009B8BAC8BBD8BCE01B401A30192010E94DE
:10210000A60E882379F029843A841A86198681E0FC
:102110008F831886CE01B401A30192010E94A60EFE
:102120003A86298680E0DF91CF911F910F91FF9031
:10213000EF90DF90CF90BF90AF909F908F907F9067
:102140006F905F904F903F902F9008954F925F92C5
:102150006F927F928F929F92AF92BF92CF92DF92B7
:10216000EF92FF920F931F93DF93CF93CDB7DEB71C
:10217000C859D0400FB6F894DEBF0FBECDBF3C01AA
:102180002B015A018E010F5F1F4F80E4F80111925D
:102190008A95E9F70E94A121F801282F392FD9014A
:1021A00080E10D9001928150E1F78E010F5F1F4F8A
:1021B00091E4892E912C8C0E9D1EF80196E380816E
:1021C00089278193E815F905D1F781E4E82EF12CF0
:1021D000EC0EFD1EC7010E943A32C7016E01089441
:1021E000C11CD11CB60140E450E00E946432C7011A
:1021F000B301A2010E946432C701B5010E942C33D1
:1022000080E4F60111928A95E9F70E94A121F60176
:10221000282F392FD90180E10D9001928150E1F7EB
:102220009CE5F8018081892781938F01E815F905E4
:10223000C1F78E010F5B1F4FC8010E943A32C801DF
:10224000BE016F5F7F4F40E450E00E946432C801DE
:10225000B50140E150E00E946432C801B5010E941E
:102260002C33C856DF4F0FB6F894DEBF0FBECDBF7C
:10227000CF91DF911F910F91FF90EF90DF90CF9062
:10228000BF90AF909F908F907F906F905F904F9096
:102290000895EF92FF920F931F93CF93DF93EC017A
:1022A0008B017A01FA0180819181A281B38101962B
:1022B000A11DB11D80839183A283B383898982FF8D
:1022C0002FC0CE0101960E9447218EEE92E00E941F
:1022D000D3A3898980FF06C081E0898B81E093E0E8
:1022E0000E94D3A388EA8A8380E090E00E9428219C
:1022F0009A8789870097A1F0FC0111830083E98503
:10230000FA8581E48283E985FA85E70188819981EC
:10231000AA81BB8183839483A583B68380E001C0B7
:102320008FEFDF91CF911F910F91FF90EF90089564
:102330008F929F92AF92BF92CF92DF92EF92FF92D5
:102340000F931F93DF93CF93CDB7DEB7C55FD04018
:102350000FB6F894DEBF0FBECDBF6B014A01590125
:10236000780119821A821B821C828E010B5F1F4F1B
:10237000B8010E94853AC401B501A7019801860100
:102380007E010894E11CF11CCC24C3940E943B35CF
:1023900080E0CB50DF4F0FB6F894DEBF0FBECDBF4D
:1023A000CF91DF911F910F91FF90EF90DF90CF9031
:1023B000BF90AF909F908F9008952F923F924F9231
:1023C0005F926F927F928F929F92AF92BF92CF92C5
:1023D000DF92EF92FF920F931F93DF93CF93CDB7CE
:1023E000DEB7CA50D1400FB6F894DEBF0FBECDBFE6
:1023F0002C014B013A017901B2E0CB2ED12CCC0E4D
:10240000DD1E9E012F5F3F4F86010E944A1A87FD05
:10241000B0C28981843009F0ACC2C201B401A30109
:1024200096010E949F1A87FDA4C29701265E3F4F26
:102430008701045E1F4FC201B401A3010E94B31BB8
:1024400087FD97C29701225E3F4FC201B401A301ED
:102450000E94BA1A87FD8DC297012E5D3F4FC201BF
:10246000B401A3010E94BA1A87FD83C297012A5DB5
:102470003F4F8701085D1F4FC201B401A3010E94B5
:10248000B31B87FD76C29701265D3F4F8701045D30
:102490001F4FC201B401A3010E94B31B87FD69C293
:1024A0009701225D3F4F8701005D1F4FC201B401BC
:1024B000A3010E94B31B87FD5CC2D70151968C918A
:1024C000519781FF73C2C201B401A3019E012F5F26
:1024D0003F4F86010E944A1A87FD4BC28981843092
:1024E00009F047C2F301808191819401281B390BC7
:1024F000C9012A813B812817390709F03AC256C21F
:10250000D7015A960D911C915B970E949921FC016D
:10251000C080D1800E949921DC0112964D915C917E
:102520001397C801B6010E9472A3009761F0C7011A
:102530006AE176E04DED53E20E94491187FD19C230
:1025400084E193E02AC0F70100A511A50E949C2117
:10255000DC010D900020E9F71197A81BB90B0A17B1
:102560001B0781F4D70196960D911C9197970E94B5
:102570009C21BC01F70140A551A5C8010E9472A38E
:10258000009771F0C7016CE076E049EE53E20E94DB
:10259000491187FDEEC187E393E00E94D3A3EBC10D
:1025A000D70151968C91519780FD03C088E593E047
:1025B00080C1F70184A595A58C30910569F532A5F8
:1025C00023A5DE011696A901852F942FFC018CE02E
:1025D00001900D928150E1F7E32FF22F8CE0DF01A3
:1025E0001D928A95E9F78E010A5E1F4FC201B40160
:1025F000A8010E94A610CE010696B8014CE050E05A
:102600000E9472A3009741F084E893E00E94D3A354
:1026100080EB93E00E94D3A30E945F0C00D000D017
:1026200000D029EE33E0EDB7FEB732832183A4E674
:10263000AA2EB12CC12CD12CA60195010E944AA131
:10264000ADB7BEB713962D933D934D935C931697FC
:102650000E94A1A386E194E0EDB7FEB79283818347
:10266000F70182A193A1A4A1B5A1EDB7FEB7838321
:102670009483A583B6830E94A1A3D70192968D91DE
:102680009D910D90BC91A02DC95FDE4F88839983E9
:10269000AA83BB83C750D140EDB7FEB736960FB6BD
:1026A000F894FEBF0FBEEDBF0E945F0C00D000D0BB
:1026B00000D02DE234E0ADB7BEB712963C932E9316
:1026C0001197A60195010E944AA1C95FDE4F88813A
:1026D0009981AA81BB81C750D140821B930BA40B67
:1026E000B50BEDB7FEB783839483A583B6830E94B1
:1026F000A1A3D70192960D911C919397EDB7FEB7C8
:1027000036960FB6F894FEBF0FBEEDBF0E945F0C69
:1027100000D000D02DB63EB60894211C311C22E515
:1027200034E0ADB7BEB712963C932E931197A60135
:1027300095010E944AA1021B130B17FF03C01095BD
:1027400001951F4FF101138302830E94A1A3D701BA
:1027500092960D911C9193970F900F900F900F9060
:102760000E945F0C00D000D0CDB6DEB60894C11C2C
:10277000D11C2EE734E0EDB7FEB73283218324E687
:1027800030E040E050E00E944AA1021B130B17FF0B
:1027900003C0109501951F4F81E090E007391105A6
:1027A00014F480E090E0D60113969C938E931297D8
:1027B0000E94A1A30F900F900F900F90F701868DAC
:1027C000978DA0A1B1A10097A105B10521F48BEBD4
:1027D00094E00E94D3A3D7015E96AD90BD90CD90BA
:1027E000DC9091970E94880CA616B706C806D906F9
:1027F00021F080EF94E00E94D3A3F70102A113A17E
:102800000E945F0C061B170B17FF03C01095019564
:102810001F4F0639110524F484E495E00E94D3A3E8
:102820000E94880C6F3FFFEF7F07FFEF8F07FFE7E6
:102830009F0720F087E995E00E94D3A3D7015E9619
:10284000AD90BD90CD90DC9091970E94880CA6161B
:10285000B706C806D906F9F4F70102A113A10E9430
:102860005F0C24E630E040E050E00E944AA1021BE9
:10287000130B17FF03C0109501951F4F0739110562
:1028800054F40E94880C6F3FFFEF7F07FFEF8F0724
:10289000FFE79F0730F0C7016EEF75E045EE53E2AA
:1028A0001BC0D70151968C91519781FD0AC08FECC6
:1028B00095E00E94D3A3C70163E476E04DEE53E2B6
:1028C0000BC0F70180A991A98830910551F0C7018B
:1028D00066E376E049ED53E20E94491187FF4BC061
:1028E00048C0D7015E964D915D916D917C91919715
:1028F000CE0106960E949321F70142A153A164A143
:1029000075A1CE010A960E949321DE011E96F70161
:1029100036A527A5832F922FFC0188E001900D9208
:102920008150E1F70E94A421D3010D911C91720105
:10293000E00EF11E1A821B821C821D82F6E1CF2E50
:10294000D12CCC0EDD1EB6010E94853AA401401B9D
:10295000510BC701B70196018E010A5F1F4FE2E0DC
:10296000EE2EF12CEC0EFD1ECC240E943B3580E0B7
:1029700003C08FEF01C083E0C65FDE4F0FB6F8944F
:10298000DEBF0FBECDBFCF91DF911F910F91FF90A2
:10299000EF90DF90CF90BF90AF909F908F907F90FF
:1029A0006F905F904F903F902F900895F701048DA6
:1029B000158D0E949921DC0112968D919C9113979F
:1029C0000817190709F49CCDB2CD8F929F92AF9250
:1029D000BF92CF92DF92EF92FF920F931F93DF93FC
:1029E000CF93CDB7DEB760970FB6F894DEBF0FBEBA
:1029F000CDBF7C015B014A0169010E949921FC0164
:102A000080819181A281B381F701828F938FA48FFE
:102A1000B58F0E94880CF701668F778F80A391A3F2
:102A20000E945F0C24E630E040E050E00E944AA1A2
:102A3000F70122A333A344A355A3818981FF50C08A
:102A4000468D578D60A171A1CE0101960E94932100
:102A5000F70142A153A164A175A1CE0105960E9480
:102A60009321F70106A517A50E94430DAB01BC01F8
:102A7000C8010E949321F70106A517A50E945A0DCF
:102A8000AB01BC01C8010E949321DE011996F70138
:102A900036A527A5832F922FFC0188E001900D9287
:102AA0008150E1F70E94A421F601408151819501F6
:102AB000240F351F8401041B150BBE016F5F7F4F70
:102AC000A9010E949811F601808191819401281B2F
:102AD000390BC501B60144E00E940D1E87FD67C099
:102AE000F60180809180F70146A557A520A931A95C
:102AF000C501B6010E941D1F87FD59C0F70142A5FF
:102B000053A524A535A5C501B6010E941D1F87FD4B
:102B10004EC0F6018081918102968A0D9B1DF701BE
:102B200093A782A746A157A120A531A5C501B6014B
:102B30000E941D1F87FD3BC0F70102A113A124A124
:102B400035A1C501B60142E00E94831E87FD2FC05A
:102B5000F701068D178D20A131A1C501B60142E014
:102B60000E94831E87FD23C0F701428D538D248D63
:102B7000358DC501B6010E941D1F87FD18C0F601E5
:102B8000808191819401281B390BC501B60140E376
:102B90000E940D1E87FD0BC0F6018081918194017A
:102BA000281B390BC501B60144E00E940D1E80E0D0
:102BB00060960FB6F894DEBF0FBECDBFCF91DF9108
:102BC0001F910F91FF90EF90DF90CF90BF90AF904B
:102BD0009F908F900895EF92FF920F931F93DF9332
:102BE000CF93CDB7DEB760970FB6F894DEBF0FBEB8
:102BF000CDBF8C01CB01BA017E010894E11CF11C10
:102C0000A7010E94A610F80132A523A5832F922FB9
:102C1000DC01F7018CE001900D928150E1F76096A4
:102C20000FB6F894DEBF0FBECDBFCF91DF911F91DD
:102C30000F91FF90EF9008954F925F927F928F9245
:102C40009F92AF92BF92CF92DF92EF92FF920F933B
:102C50001F93DF93CF93CDB7DEB727970FB6F894C6
:102C6000DEBF0FBECDBF8C01FC018781882309F038
:102C7000BCC08181813A29F1823A20F4803A09F07E
:102C8000B9C006C0833AD1F1883A09F0B3C0B0C0E8
:102C9000F801E184F284CC24DD240FC00894C11C27
:102CA000D11CC7010E94EB17009721F4F801808125
:102CB0008823C9F0F701E780F084E114F10471F78B
:102CC00094C0F801E184F284CC24DD2413C008947C
:102CD000C11CD11CC7010E948018009741F4F80163
:102CE0008081882321F482E08783C0867EC0F7013B
:102CF000E780F084E114F10451F777C0F801C18452
:102D0000D284772488249924EE24FF242E01089469
:102D1000411C511C44C07394D201F60187E001901C
:102D20000D928150E1F7C2010E94EB175C01009700
:102D300031F4F8018081882349F582E029C0E1144B
:102D4000F10441F480E090E0B5010E94FE207C0196
:102D50004C0105C0C401B5010E94FE204C019B81BD
:102D6000F6018281981741F0F8018081882311F4DF
:102D700083E00EC087E00BC0F501808187FF0CC0A7
:102D8000F8018081882311F484E002C081E1F80118
:102D90008783F801708607C0F601C780D084C1140C
:102DA000D10409F0B8CFF80187818823D9F4C18410
:102DB000D2845701882413C08394F50180819181C6
:102DC000B6010E945119882321F0F801878380867B
:102DD00009C0F601C780D084F501A280B380C11478
:102DE000D10451F7C7010E94192182EAF8018283B8
:102DF00080E001C08FEF27960FB6F894DEBF0FBEBC
:102E0000CDBFCF91DF911F910F91FF90EF90DF9099
:102E1000CF90BF90AF909F908F907F905F904F909A
:102E20000895FC018091720890917308009759F4FD
:102E3000F0937308E0937208F0937508E0937408B8
:102E4000178616860895A0917408B09175081F968C
:102E5000FC93EE931E9717861686F0937508E09301
:102E600074080895AF92BF92CF92DF92EF92FF92D3
:102E70000F931F93DF93CF9300D0CDB7DEB76C01D4
:102E800059014A8369830E943C21FC0180E1DF01F2
:102E90001D928A95E9F74A816981309709F444C007
:102EA00011870087F586E486138612866083A11455
:102EB000B10491F1403471F0413438F4443051F0B0
:102EC0004630F9F0423041F511C0443478F04434D2
:102ED00019F517C0D5010D900020E9F71197AA192F
:102EE000BB09B783A683B582A48216C0D5010D9114
:102EF0001D912D913C91139704831583268337836D
:102F00000BC0D50112968D919C9113979783868360
:102F10008D919C9195838483D282C1824383CF011A
:102F20000E94111780E001C08FEF0F900F90CF919A
:102F3000DF911F910F91FF90EF90DF90CF90BF90A6
:102F4000AF900895CF92DF92EF92FF920F931F936D
:102F5000CF93DF936C018B01EA0179016115710553
:102F6000E1F02097D1F00E943C21FC010097A9F0EC
:102F7000D282C18211870087D387C287E114F1040E
:102F800019F0F586E48602C080E8808385E08383BB
:102F9000CF010E94111780E001C08FEFDF91CF9128
:102FA0001F910F91FF90EF90DF90CF900895809147
:102FB0007208909173089093710880937008089537
:102FC000E0917008F091710886859785909371085B
:102FD0008093700808950F931F93CF93DF93EC01B4
:102FE0000E94D71751C0818192810E94A0208C013C
:102FF000E0917008F091710882859385009751F5F2
:1030000088819981DC0112962D913C9113970217CA
:10301000130731F4618172810E94A6200097D9F1D3
:1030200088819981A80141505040FC01228133815F
:103030002F5F3F4F2417350768F0E0917008F0913B
:10304000710861817281402F41500E94BF2000971A
:1030500009F440C0E0917008F09171088285938571
:10306000009781F088819981DC0112962D913C9125
:1030700013970217130730F4618172810E94A62012
:10308000009749F00E94E017E0917008F0917108F4
:10309000309709F0A8CF809170089091710800973F
:1030A00029F480E88A83E0E0F0E024C0DC0118968F
:1030B000ED91FC911997309779F0A881B9816D91C4
:1030C0007C911197600F711F12964C91401B0995CE
:1030D0008F3F11F481E8E6CFE0917008F09171081C
:1030E00024813581468157812B833C834D835E83C8
:1030F00083818A83CF01DF91CF911F910F91089532
:10310000EF92FF920F931F93CF93DF93EC010E94F6
:10311000D7178AC061817281888199810E94A62017
:103120008C01E0917008F0917108818192810E9478
:10313000A0207C018091700890917108DC011A96A2
:10314000ED91FC911B973097F1F417FD0CC0011520
:10315000110509F067C0E881F981228133812E15BC
:103160003F0508F05FC0FC0161817281888199810F
:1031700040E00E94D420E881F9818081918100970C
:1031800009F059C084C0101611060CF44BC001158B
:10319000110561F4A881B9816D917C9111976E0D33
:1031A0007F1D12964C9112974E1903C060E070E09B
:1031B00040E009958C010097A9F1E0917008F09129
:1031C000710861817281DC0112964C914E0D8881EB
:1031D00099810E94D420E881F981208131812115D3
:1031E000310509F454C02E0D3F1DF8016081718135
:1031F00042815381C9010E947FA3E881F9818281C4
:103200009381D80112962D913C911397820F931FB1
:10321000938382838D919C910E9406A2C8010E9493
:103220009B2009C00E94E017E0917008F09171089E
:10323000309709F06FCF80917008909171080097D6
:1032400019F482E88A8323C0DC011896ED91FC9181
:103250001997309769F0A881B9816D917C91119788
:103260006E0D7F1D12964C914E1909958F3F79F086
:10327000E0917008F0917108248135814681578171
:103280002B833C834D835E8383818A8302C0E0E08D
:10329000F0E0CF01DF91CF911F910F91FF90EF9060
:1032A0000895CF92DF92EF92FF920F931F93DF93D7
:1032B000CF9300D0CDB7DEB77C018B01FC01C48475
:1032C000D584C114D104D1F0FB01A081B181FC01EE
:1032D00081819281FC01828193816D917C91119712
:1032E000680F791F12964C91481BF80103811481D5
:1032F00025813681C701F601099549C0FB0182810C
:10330000863071F0873028F4823091F18430E1F515
:1033100007C0803429F08034B8F18434A8F528C07F
:10332000F701808186FF06C084819581009711F0A6
:103330000E9406A2F80145815681F7014683578312
:10334000F8018581968149835A830E946CA1F70117
:103350009583848349815A810097C1F0F801638184
:1033600074810E947FA3F7018081806480830AC0FA
:10337000F80183819481A581B681F70184839583C7
:10338000A683B78380E003C083E001C08FEF0F9076
:103390000F90CF91DF911F910F91FF90EF90DF90F1
:1033A000CF900895FA01408151814617570700F5E3
:1033B000840F951FDC018C91853448F4803478F4B7
:1033C0008130C0F0873058F08033A1F408C0803AD3
:1033D00088F0843A20F0982F955A933058F4D90108
:1033E0008C938081918101969183808380E0089500
:1033F0008FEF08958FEF08950F931F93CF93DF936F
:10340000DA01E9012D913C91119726173707E0F574
:10341000AC01420F531FFA01408147FD0AC04883A7
:1034200019828D919C911197019611969C938E9380
:1034300027C04F772F5F3F4F11963C932E93433019
:1034400008F5198218821AC02D913C9111974150AC
:1034500026173707C8F4280F391FF9012081188172
:1034600000E0F801E20FF11DF983E8832D913C9112
:1034700011972F5F3F4F11963C932E93442321F7D2
:1034800080E003C081E001C08FEFDF91CF911F91F9
:103490000F910895CF92DF92EF92FF920F931F93B7
:1034A000CF93DF93EC017B016A010E94D2198F3F19
:1034B00041F0CE01B701A60198010E94FC1980E0FD
:1034C00001C08FEFDF91CF911F910F91FF90EF908F
:1034D000DF90CF900895CF92DF92EF92FF920F93FB
:1034E0001F93DF93CF9300D00F92CDB7DEB76B0160
:1034F0007A019E012F5F3F4F8E010E5F1F4F0E948A
:103500004A1A87FD0DC08981803351F4F70180810B
:103510009181C81AD90A8A819B818C159D0511F069
:103520008FEF01C080E00F900F900F90CF91DF914F
:103530001F910F91FF90EF90DF90CF9008950F9320
:103540001F93DF93CF930F92CDB7DEB789019E0112
:103550002F5F3F4F0E944A1A87FD03C08981803345
:1035600011F08FEF01C080E00F90CF91DF911F919C
:103570000F9108958F929F92AF92BF92CF92DF9258
:10358000EF92FF920F931F93DF93CF9300D00F9290
:10359000CDB7DEB76C014B017A0159019E012F5F57
:1035A0003F4F8E010E5F1F4F0E944A1A87FD58C081
:1035B0008981823009F054C08A819B81009709F487
:1035C0004FC0D7012D913C9111970197820F931F06
:1035D0008815990508F044C02C0D3D1DF901808126
:1035E00087FF03C06FEF70E002C060E070E070E042
:1035F00080E090E021E031E0A9010E9417A1D5010F
:103600006D937D938D939C9313971FC0D701ED917C
:10361000FC91EC0DFD1D2081F50180819181A2813D
:10362000B381BA2FA92F982F8827820F911DA11D32
:10363000B11D80839183A283B383D7018D919C9127
:103640001197019611969C938E938A819B819C0180
:10365000215030403B832A830097C1F680E001C0AF
:103660008FEF0F900F900F90CF91DF911F910F91DF
:10367000FF90EF90DF90CF90BF90AF909F908F9092
:1036800008958F929F92AF92BF92CF92DF92EF9266
:10369000FF920F931F93DF93CF9300D00F92CDB77C
:1036A000DEB74C016B017A0159019E012F5F3F4F3C
:1036B0008E010E5F1F4F0E944A1A87FD43C0898109
:1036C000823409F03FC06A817B8161157105D1F1B7
:1036D000CB010197D7012D913C911197820F931F38
:1036E0008C159D0578F5F5011082118212821382E6
:1036F00024C0D701ED91FC91E80DF91D808190E087
:10370000A0E0B0E0F5012081318142815381542F46
:10371000432F322F2227822B932BA42BB52B808370
:103720009183A283B383D7018D919C9111970196C8
:1037300011969C938E936150704061157105C9F686
:1037400080E001C08FEF0F900F900F90CF91DF912D
:103750001F910F91FF90EF90DF90CF90BF90AF90AF
:103760009F908F9008956F927F928F929F92AF92C9
:10377000BF92CF92DF92EF92FF920F931F93DF934E
:10378000CF930F92CDB7DEB74C015B017A013901BF
:1037900068019E012F5F3F4F0E944A1A87FD22C099
:1037A00089818430F9F4F70120813181C9010197C1
:1037B000F60140815181840F951F8A159B0590F475
:1037C000820E931EF30191828082F70180819181A4
:1037D000F60120813181820F931FF701918380834D
:1037E00080E001C08FEF0F90CF91DF911F910F917B
:1037F000FF90EF90DF90CF90BF90AF909F908F9011
:103800007F906F900895CF93DF93FA011082118219
:1038100012821382A82FB92F80E01AC0ED012081F7
:1038200031814281538197E0220F331F441F551F7E
:103830009A95D1F79D919F77290F311D411D511DFB
:1038400020833183428353838F5F988197FF02C027
:10385000861720F3DF91CF9108958F929F92AF92B8
:10386000BF92CF92DF92EF92FF920F931F93DF935D
:10387000CF9300D00F92CDB7DEB75C016B017A0118
:1038800049019E012F5F3F4F8E010E5F1F4F0E9427
:103890004A1A87FD23C08981863001F58A819B8180
:1038A0000097E1F0F70120813181280F391FC216FE
:1038B000D306A0F0F40193838283F7012081318144
:1038C0002A0D3B1DF40131832083F70120813181D2
:1038D000280F391F3183208380E001C08FEF0F90C4
:1038E0000F900F90CF91DF911F910F91FF90EF906C
:1038F000DF90CF90BF90AF909F908F900895CF9220
:10390000DF92EF92FF920F931F93DF93CF9300D03C
:103910000F92CDB7DEB76B017A019E012F5F3F4F4B
:103920008E010E5F1F4F0E944A1A87FD1BC029811E
:103930008A819B81253019F4009719F013C00097F4
:1039400089F0F701808191812A813B81820F931F49
:103950009C01215030402C153D0520F4918380833B
:1039600080E001C08FEF0F900F900F90CF91DF910B
:103970001F910F91FF90EF90DF90CF9008950F93DC
:103980001F93CF93DF93F9019801EA01A881B981D0
:10399000A617B70790F5A80FB91FAC91A083E881CF
:1039A000F981E80FF91FE081E63021F1E73038F4C2
:1039B000E43091F0E530B0F4E230F9F40AC0E434D8
:1039C00028F4E13490F4E034C1F406C0E434A9F4FE
:1039D00011C00E94BA1A0BC089010E5F1F4F0E94CE
:1039E000B31B05C00E947F1C02C00E94411B880FB0
:1039F000880B04C00E942D1CFACF8FEFDF91CF916E
:103A00001F910F9108954F925F926F927F928F92C4
:103A10009F92AF92BF92CF92DF92EF92FF920F935D
:103A20001F93DF93CF9300D000D000D0CDB7DEB787
:103A30004C016B017A0139012E010894411C511C83
:103A400082010E944A1A87FD88C0F7018081918116
:103A50009601281B390BC90129813A81281739079A
:103A600009F07BC093012E5F3F4FC401B601A7014F
:103A70000E94BA1A87FD71C08E010D5F1F4FC401ED
:103A8000B601A70198010E94BA1A87FD66C08B8112
:103A9000F3018683C401B601A70198010E94BA1AF6
:103AA00087FD5BC08B81F3018783F7018081918162
:103AB000F30193878287C401B601A7010E946B1AA4
:103AC00087FD4BC0F30111861086AA24BB24C201D6
:103AD000542C492E38C0C401B601A701252D342D20
:103AE0000E949F1A87FD39C0F30180859185009758
:103AF00049F480E090E00E9428215C01F301918765
:103B0000808704C0C5010E9428215C01A114B10472
:103B100011F10E9490209C01F50191838083C401E2
:103B2000B601A7010E942D1C87FD17C095012E5FCD
:103B30003F4F85010D5F1F4FC401B601A7010E94D1
:103B4000BF1C87FD0AC0F701808191818C159D05FE
:103B500010F280E003C082E001C08FEF26960FB61E
:103B6000F894DEBF0FBECDBFCF91DF911F910F91B3
:103B7000FF90EF90DF90CF90BF90AF909F908F908D
:103B80007F906F905F904F900895FB014F3F5105DC
:103B9000E1F0D8F0208131812350304031832083FF
:103BA00037FD37C0280F391F62E8D9016C93A08117
:103BB000B181A80FB91F11965C9311970190F08104
:103BC000E02DE80FF91F428322C020813181403867
:103BD000510590F0225030403183208337FD19C0C9
:103BE000280F391F61E8D9016C930190F081E02D15
:103BF000E80FF91F41830BC02150304031832083EF
:103C000037FD09C0820F931F4F77FC01408380E08E
:103C100008958FEF08958FEF0895FF920F931F93EC
:103C2000CF93DF938C01EB01F42EA9010E94C51DF7
:103C300087FD0DC08881998101979983888397FDBD
:103C400006C0080F191FF801F08280E001C08FEF55
:103C5000DF91CF911F910F91FF900895603020E088
:103C6000720720E0820720E19207B8F4603020E07C
:103C7000720720E2820720E0920788F4603020E497
:103C8000720720E0820720E0920758F4603871053F
:103C90008105910540F082E0089585E0089584E073
:103CA000089583E0089581E00895CF92DF92EF9226
:103CB000FF920F931F93CF93DF937C018B01E90158
:103CC000FB01208131812C1B3D0B3183208337FD8B
:103CD00010C0280F391FC901BA01AE010E947FA38D
:103CE000C701B80146E09E010E940D1E880F880B97
:103CF00001C08FEFDF91CF911F910F91FF90EF9057
:103D0000DF90CF9008957F928F929F92AF92BF9253
:103D1000CF92DF92EF92FF920F931F93CF93DF9397
:103D20005C01FB01F42E80809180C801D9019C01C7
:103D3000AD012050304040405F4F203060E03607FA
:103D400060E0460762E05607E8F49C01AD012050B0
:103D500030484F4F5F4F203060E0360761E0460744
:103D600060E0560790F49C01AD0120583F4F4F4F43
:103D70005F4F2F3F31054105510551F048F062E09A
:103D800070E008C064E070E005C063E070E002C06D
:103D900061E070E09401261B370B3183208337FDEF
:103DA0003DC0E62EEA94CE2CDD24C7FCD09400273B
:103DB00011270C191D0953E0CC0CDD1C5A95E1F7B5
:103DC000762E761AC081D181CA0DDB1DC60FD71F92
:103DD000C00FD11F21979C01AD010C2C04C056953A
:103DE0004795379527950A94D2F72883EA940F5F71
:103DF0001F4F28EF3FEFC20ED31E272D2E0D27FF9A
:103E0000E1CF808191819401281B390BC501BF014D
:103E10004F2D0E940D1E880F880B01C08FEFDF9180
:103E2000CF911F910F91FF90EF90DF90CF90BF90B7
:103E3000AF909F908F907F900895CF92DF92EF92F6
:103E4000FF920F931F93CF93DF937C018B01E901C6
:103E5000FB01208131812C1B3D0B3183208337FDF9
:103E600010C0280F391FC901BA01AE010E947FA3FB
:103E7000C701B80144E09E010E940D1E880F880B07
:103E800001C08FEFDF91CF911F910F91FF90EF90C5
:103E9000DF90CF900895AF92BF92CF92DF92EF92D2
:103EA000FF920F931F93CF93DF937C01EB016A0185
:103EB000A880B980DA0112964C911297443480F4AC
:103EC000413400F54430B1F0453020F4423009F07F
:103ED00065C018C0453021F1463009F05FC02BC0E5
:103EE000413809F43FC0423809F44BC0403809F06A
:103EF00055C02DC0F60143815481258136810E9431
:103F00001D1F0BC0D60113960D911D912D913C9153
:103F10001697C701BE010E94831E87FD59C03EC08F
:103F2000C50102979983888397FD52C08E0D9F1D0E
:103F300025E030E030C0D60113964D915C91149786
:103F400015962D913C9116970E94551EE6CFC501FE
:103F500002979983888397FD3BC08E0D9F1D20E8B3
:103F600030E019C0C50102979983888397FD30C05E
:103F70008E0D9F1D21E830E0DC0111963C932E93BD
:103F80000DC0C50102979983888397FD21C08E0DCE
:103F90009F1D22E830E0FC0131832083D601ED91A2
:103FA000FC914081518122813381C701BE010E9471
:103FB000551E87FD0DC0888199819501281B390BFD
:103FC000C701BE0140E30E940D1E880F880B01C08F
:103FD0008FEFDF91CF911F910F91FF90EF90DF90C6
:103FE000CF90BF90AF9008958F929F92AF92BF9263
:103FF000CF92DF92EF92FF920F931F93CF93DF93B5
:104000004C016B01BA015801F8018681882391F0B7
:1040100027C0E901209729F02F8138852817390713
:10402000C1F7C401B601AE010E944B1F87FD6AC0F3
:10403000CE0102C080E090E0F501C085D1858C17EB
:104040009D0741F7F601808191819701281B390B6B
:10405000C401B60140E30E940D1E87FD53C01FC07E
:10406000F60140815181F80182859385480F591FDF
:10407000421B530BF6015183408357FD43C0F801A7
:1040800082859385480D591DF901E81BF90B9B01A9
:10409000280F391FCA01B901AF010E947FA3F501A2
:1040A000078110E020E030E0C401B60142E00E9448
:1040B000831E87FD27C0F501068110E020E030E077
:1040C000C401B60142E00E94831E87FD1BC0F501BA
:1040D0000281138124813581C401B60142E00E942E
:1040E000831E87FD0FC0F601808191819701281BF7
:1040F000390BC401B601F50141810E940D1E880FE4
:10410000880B01C08FEFDF91CF911F910F91FF902E
:10411000EF90DF90CF90BF90AF909F908F900895D9
:1041200084E090E00E946CA1FC01009711F01382E2
:104130001282CF010895009711F00E9406A20895FF
:10414000FC01329625913491C9010895DC01FB01EF
:10415000329625913491FB0185919491BC018D910A
:104160009C9111971296ED91FC911397422F532F2A
:10417000E417F50708F4AF010E945CA30895DC0181
:10418000FB0185919491BC018D919C9111971296A0
:104190002D913C911397E0E05E2F2417350708F42A
:1041A000A9010E945CA308950F931F93CF93DF93FF
:1041B000EC018B01842FFB013296259134912A83E7
:1041C0003B83442311F4C90101C090E00E946CA11B
:1041D0008883998388819981009751F0F80125910E
:1041E00034914A815B81B9010E9469A380E001C0DA
:1041F0008FEFDF91CF911F910F9108950F931F9330
:10420000CF93DF93EC018B0184E090E00E946CA1DE
:10421000FC01009741F013821282118300832097E2
:1042200011F09B838A83CF01DF91CF911F910F9172
:1042300008950F931F9307C0FC01028113810E9410
:1042400006A2802F912F0097B9F71F910F91089523
:10425000CF93DF93EC0189E090E00E946CA1FC0118
:10426000009731F010861782209711F098878F837E
:10427000CF01DF91CF91089580E190E00E946CA181
:10428000FC01009711F017861686CF010895CF9292
:10429000DF92EF92FF920F931F93CF93DF938C01E6
:1042A000FC01C085D185FF2427C0F394F8018181EA
:1042B000883AC1F09081913A89F4823A79F4868102
:1042C000882319F08781F81648F48A81823831F002
:1042D000E881F981808191810E9406A2888199817B
:1042E0000E949B20DF80E884CE010E9406A2CD2C94
:1042F000E6016E01DE2CE6012097B9F6DF91CF9141
:104300001F910F91FF90EF90DF90CF900895CF9382
:10431000DF93EC0101960E944721CE010E9406A284
:10432000DF91CF910895FC017083618352834383B1
:10433000089584E596E0089580915B0690915C066F
:1043400008958DE596E008958DE696E008952F9204
:104350003F924F925F926F927F928F929F92AF9215
:10436000BF92CF92DF92EF92FF920F931F93DF9352
:10437000CF93CDB7DEB7CE55D0400FB6F894DEBFA1
:104380000FBECDBF6F969FAF8EAF6F97DC016D9064
:104390007D908D909C90139765966CAE7DAE8EAEA1
:1043A0009FAE659714966D907D908D909C90179719
:1043B0006D867E868F86988A18966D907D908D90FA
:1043C0009C901B97698A7A8A8B8A9C8A1C966D902E
:1043D0007D908D909C901F9761966CAE7DAE8EAE59
:1043E0009FAE6197DB016D907D908D909C906D8A62
:1043F0007E8A8F8A988E65968CAD9DADAEADBFAD31
:10440000659788589B45A549B842860D971DA81DFC
:10441000B91D2D853E854F8558892095309540954D
:10442000509561966CAC7DAC8EAC9FAC61972621AB
:10443000372148215921E988FA880B891C898D8404
:104440009E84AF84B888E820F9200A211B212E29F8
:104450003F29402B512B820F931FA41FB51F9C0196
:10446000AD01E7E0220F331F441F551FEA95D1F736
:104470003C014D0109E196948794779467940A95DD
:10448000D1F7622A732A842A952AAD84BE84CF8408
:10449000D8886A0C7B1C8C1C9D1CDB011496CD906B
:1044A000DD90ED90FC901797C98EDA8EEB8EFC8E26
:1044B00061968CAD9DADAEADBFAD61978A5A984403
:1044C000A843B7418C0D9D1DAE1DBF1DA4019301D6
:1044D0002095309540955095A988BA88CB88DC887E
:1044E0002A213B214C215D21ED84FE840F85188912
:1044F000E620F720082119212E293F29402B512B96
:10450000820F931FA41FB51F9C01AD011CE0220F59
:10451000331F441F551F1A95D1F71C012D01F4E1DB
:104520005694479437942794FA95D1F7222A332A40
:10453000442A552A260C371C481C591CDB011896A6
:10454000CD90DD90ED90FC901B97CD8EDE8EEF8EA2
:10455000F8A289899A89AB89BC8985529F48AF4D59
:10456000BB4D8C0D9D1DAE1DBF1DA201910120955F
:10457000309540955095AD84BE84CF84D8882A214B
:104580003B214C215D2182017101E620F7200821A9
:1045900019212E293F29402B512B820F931FA41F35
:1045A000B51F9C01AD01E1E1220F331F441F551FD0
:1045B000EA95D1F75C016D010FE0D694C794B794EA
:1045C000A7940A95D1F7A22AB32AC42AD52AA20C05
:1045D000B31CC41CD51CDB011C96ED90FD900D9105
:1045E0001C911F97E9A2FAA20BA31CA38D859E859F
:1045F000AF85B88982519143A244BE438E0D9F1D61
:10460000A01FB11FA60195012095309540955095AA
:10461000262137214821592186017501E220F32006
:10462000042115212E293F29402B512B820F931F46
:10463000A41FB51F9C01AD0116E1220F331F441FBB
:10464000551F1A95D1F77C018D01FAE01695079553
:10465000F794E794FA95D1F7E22AF32A042B152B65
:10466000EA0CFB1C0C1D1D1DE982FA820B831C83C6
:10467000DB0150960D911D912D913C9153970DA307
:104680001EA32FA338A7D901C8018155904FA34875
:10469000BA40860D971DA81DB91D29813A814B810D
:1046A0005C812095309540955095222133214421FD
:1046B0005521E980FA800B811C81EA20FB200C2126
:1046C0001D212E293F29402B512B820F931FA41F00
:1046D000B51F9C01AD01E7E0220F331F441F551F9A
:1046E000EA95D1F73C014D0109E1969487947794BE
:1046F00067940A95D1F7622A732A842A952AE98059
:10470000FA800B811C816E0C7F1C801E911E6D82B5
:104710007E828F829886DB0154960D911D912D919A
:104720003C91579709A71AA72BA73CA7D901C80105
:10473000865D9943A847B84B820D931DA41DB51DF6
:10474000A401930120953095409550952A213B2155
:104750004C215D218401730169807A808B809C806B
:10476000E620F720082119212E293F29402B512B23
:10477000820F931FA41FB51F9C01AD011CE0220FE7
:10478000331F441F551F1A95D1F77C018D01F4E1A9
:1047900016950795F794E794FA95D1F7E22AF32A4C
:1047A000042B152B2D813E814F815885E20EF31E7F
:1047B000041F151FE986FA860B871C87DB015896B4
:1047C0008D919D910D90BC91A02D8DA79EA7AFA717
:1047D000B8AB8D5E994BAF4CB7458A0D9B1DAC1D98
:1047E000BD1DA80197012095309540955095262133
:1047F0003721482159216D807E808F809884E62062
:10480000F720082119212E293F29402B512B820FF7
:10481000931FA41FB51F9C01AD01E1E1220F331FBF
:10482000441F551FEA95D1F73C014D010FE09694C6
:104830008794779467940A95D1F7622A732A842A19
:10484000952AA984BA84CB84DC846A0C7B1C8C1CDA
:104850009D1CDB015C96CD90DD90ED90FC905F9708
:10486000C9AADAAAEBAAFCAAD701C6018F5F9A46A9
:10487000A94BB240A980BA80CB80DC808A0D9B1DF9
:10488000AC1DBD1DA4019301209530954095509518
:10489000CD80DE80EF80F8842C213D214E215F21E8
:1048A000E984FA840B851C85E620F720082119216C
:1048B0002E293F29402B512B820F931FA41FB51F78
:1048C0009C01AD0116E1220F331F441F551F1A959D
:1048D000D1F75C016D01FAE0D694C794B794A79420
:1048E000FA95D1F7A22AB32AC42AD52AA60CB71C56
:1048F000C81CD91CDB019096ED90FD900D911C9188
:104900009397EDAAFEAA0FAB18AFD801C701885242
:104910009746AF47B649ED80FE800F8118858E0D12
:104920009F1DA01FB11FA6019501209530954095B0
:104930005095E984FA840B851C852E213F21402364
:10494000512386017501E620F720082119212E291F
:104950003F29402B512B820F931FA41FB51F9C0191
:10496000AD01E7E0220F331F441F551FEA95D1F731
:104970001C012D0109E156944794379427940A9518
:10498000D1F7222A332A442A552A2A0C3B1C4C1CD4
:104990005D1CDB0194960D911D912D913C91979793
:1049A00009AF1AAF2BAF3CAFD901C8018155984070
:1049B000AB4BB447E984FA840B851C858E0D9F1D93
:1049C000A01FB11FA20191012095309540955095EF
:1049D000262137214821592182017101EA20FB203B
:1049E0000C211D212E293F29402B512B820F931F73
:1049F000A41FB51F9C01AD011CE0220F331F441FF3
:104A0000551F1A95D1F77C018D01F4E11695079594
:104A1000F794E794FA95D1F7E22AF32A042B152BA1
:104A2000E20CF31C041D151DE982FA820B831C8322
:104A3000DB0198960D911D912D913C919B970987D3
:104A40001A872B873C87D901C8018F54944AA0400C
:104A5000B040860D971DA81DB91D29813A814B8153
:104A60005C8120953095409550952A213B214C2121
:104A70005D21E980FA800B811C81E220F320042172
:104A800015212E293F29402B512B820F931FA41F44
:104A9000B51F9C01AD01E1E1220F331F441F551FDB
:104AA000EA95D1F73C014D010FE0969487947794F5
:104AB00067940A95D1F7622A732A842A952AE98095
:104AC000FA800B811C816E0C7F1C801E911E6D82F2
:104AD0007E828F829886DB019C960D911D912D918F
:104AE0003C919F9721960CAF1DAF2EAF3FAF219702
:104AF000D901C80182549842A34AB6478A0D9B1D2A
:104B0000AC1DBD1DA4019301209530954095509595
:104B100022213321442155218401730169807A8047
:104B20008B809C80E620F720082119212E293F291F
:104B3000402B512B820F931FA41FB51F9C01AD0169
:104B400016E1220F331F441F551F1A95D1F73C0160
:104B50004D01AAE09694879477946794AA95D1F72B
:104B6000622A732A842A952AAD80BE80CF80D88499
:104B70006A0C7B1C8C1C9D1CDB01D096CD90DD90BB
:104B8000ED90FC90D3972596CCAEDDAEEEAEFFAEA9
:104B90002597D701C6018E5D9E4EAF46B449820D62
:104BA000931DA41DB51DA40193012095309540953A
:104BB0005095A980BA80CB80DC802A213B214C21F2
:104BC0005D21ED80FE800F811885E620F720082109
:104BD00019212E293F29402B512B820F931FA41FEF
:104BE000B51F9C01AD01F7E0220F331F441F551F75
:104BF000FA95D1F7E9E1B695A79597958795EA9546
:104C0000D1F7822B932BA42BB52B860D971DA81DB6
:104C1000B91DFB01C4A8D5A8E6A8F7A82996CCAE73
:104C2000DDAEEEAEFFAE2997A70196012D563E48A8
:104C300047465240A980BA80CB80DC802A0D3B1DBC
:104C40004C1D5D1D5C016D01A094B094C094D09486
:104C5000ED80FE800F811885AE20BF20C022D122BA
:104C60007C018D01E620F72008211921AE28BF28FC
:104C7000C02AD12A2A0D3B1D4C1D5D1D79018A01D8
:104C80006CE0EE0CFF1C001F111F6A95D1F7590153
:104C90006A0174E1D694C794B794A7947A95D1F732
:104CA000AE28BF28C02AD12AA80EB91ECA1EDB1EF4
:104CB000A982BA82CB82DC82A094B094C094D094B2
:104CC0006996ACAEBDAECEAEDFAE6997C0ACD1AC2E
:104CD000E2ACF3AC2D96CCAEDDAEEEAEFFAE2D97D2
:104CE000A701960122573C4B46485945AD80BE80EE
:104CF000CF80D8842A0D3B1D4C1D5D1D6996ACAC40
:104D0000BDACCEACDFAC6997A620B720C820D920B7
:104D1000E980FA800B811C81E822F9220A231B23F7
:104D2000AE28BF28C02AD12A2A0D3B1D4C1D5D1D6F
:104D300079018A0161E1EE0CFF1C001F111F6A95C9
:104D4000D1F719012A017FE05694479437942794AC
:104D50007A95D1F72E283F28402A512AC980DA8037
:104D6000EB80FC802C0C3D1C4E1C5F1C82017101F1
:104D7000E094F094009510956D96ECAEFDAE0EAFFC
:104D80001FAF6D9704AD15AD26AD37AD0D831E83F6
:104D90002F833887A90198012F5D374F4B44564B1D
:104DA000260D371D481D591D6D96ACACBDACCEAC63
:104DB000DFAC6D97A822B922CA22DB22E980FA80F3
:104DC0000B811C81E220F32004211521AE28BF288D
:104DD000C02AD12A2A0D3B1D4C1D5D1D79018A0177
:104DE00066E1EE0CFF1C001F111F6A95D1F7390117
:104DF0004A012AE096948794779467942A95D1F78C
:104E00006E287F28802A912A620C731C841C951CB2
:104E1000298D3A8D4B8D5C8D2E593A4D414E59401E
:104E2000280F391F4A1F5B1F89819A81AB81BC8182
:104E300086219721A821B9216996ECACFDAC0EAD75
:104E40001FAD6997E220F320042115218E299F29A7
:104E5000A02BB12B280F391F4A1F5B1FDA01C90194
:104E600015E0880F991FAA1FBB1F1A95D1F759018A
:104E70006A01FBE1D694C794B794A794FA95D1F749
:104E8000A82AB92ACA2ADB2AA60CB71CC81CD91C16
:104E90008DA59EA5AFA5B8A9805C9C44AF4BBF4330
:104EA000E980FA800B811C818E0D9F1DA01FB11F10
:104EB000A601950122213321442155216D96ECACA8
:104EC000FDAC0EAD1FAD6D97E620F720082119212E
:104ED0002E293F29402B512B820F931FA41FB51F52
:104EE0009C01AD01E9E0220F331F441F551FEA95D5
:104EF000D1F77C018D0177E116950795F794E7943A
:104F00007A95D1F7E22AF32A042B152BEA0CFB1C25
:104F10000C1D1D1DE982FA820B831C8321968CAD2A
:104F20009DADAEADBFAD21978F5A954AA14AB94DFF
:104F3000820D931DA41DB51DA801970126213721BF
:104F40004821592184017301E094F0940095109553
:104F5000EA20FB200C211D212E293F29402B512B1B
:104F6000820F931FA41FB51F9C01AD016EE0220F9D
:104F7000331F441F551F6A95D1F71C012D0102E113
:104F800056944794379427940A95D1F7222A332AC6
:104F9000442A552A09811A812B813C81200E311E19
:104FA000421E531E8D899E89AF89B88D86559843C0
:104FB000A944B641860D971DA81DB91DA2019101F6
:104FC0002A213B214C215D2186017501E094F0945A
:104FD0000095109569807A808B809C80E620F72070
:104FE000082119212E293F29402B512B820F931F75
:104FF000A41FB51F9C01AD0114E1220F331F441FF4
:10500000551F1A95D1F73C014D01FCE09694879409
:1050100077946794FA95D1F7622A732A842A952A9D
:10502000620C731C841C951C89A59AA5ABA5BCA514
:10503000835A9F4EA04DB9428A0D9B1DAC1DBD1DCC
:1050400029813A814B815C812621372148215921D0
:10505000E980FA800B811C81E094F0940095109512
:10506000E220F320042115212E293F29402B512B2A
:10507000820F931FA41FB51F9C01AD01E5E0220F15
:10508000331F441F551FEA95D1F75C016D017BE189
:10509000D694C794B794A7947A95D1F7A22AB32A45
:1050A000C42AD52AA60CB71CC81CD91C89859A8588
:1050B000AB85BC858D5A9B4EAB4BBD4FE980FA80CA
:1050C0000B811C818E0D9F1DA01FB11FA601950194
:1050D000222133214421552182017101E094F09471
:1050E00000951095E620F720082119212E293F2947
:1050F000402B512B820F931FA41FB51F9C01AD01A4
:1051000069E0220F331F441F551F6A95D1F77C01B8
:105110008D0187E116950795F794E7948A95D1F765
:10512000E22AF32A042B152BEA0CFB1C0C1D1D1D77
:10513000E982FA820B831C838D819E81AF81B885C1
:105140008F579941AE45B742820D931DA41DB51DE1
:10515000A801970126213721482159218401730193
:10516000E094F09400951095EA20FB200C211D217D
:105170002E293F29402B512B820F931FA41FB51FAF
:105180009C01AD011EE0220F331F441F551F1A95CD
:10519000D1F71C012D01F2E15694479437942794DE
:1051A000FA95D1F7222A332A442A552A09811A81ED
:1051B0002B813C81200E311E421E531E8DA19EA1CB
:1051C000AFA1B8A588539440AC42B841860D971D55
:1051D000A81DB91DA20191012A213B214C215D216D
:1051E00086017501E094F0940095109569807A80AD
:1051F0008B809C80E620F720082119212E293F2949
:10520000402B512B820F931FA41FB51F9C01AD0192
:10521000E4E1220F331F441F551FEA95D1F73C01EB
:105220004D017CE096948794779467947A95D1F7B2
:10523000622A732A842A952A620C731C841C951C8A
:1052400089AD9AADABADBCAD8A519243AE41BE4D76
:105250008A0D9B1DAC1DBD1D29813A814B815C814E
:105260002621372148215921E980FA800B811C81B0
:10527000E094F09400951095E220F320042115218C
:105280002E293F29402B512B820F931FA41FB51F9E
:105290009C01AD0165E0220F331F441F551F6A9525
:1052A000D1F75C016D010BE1D694C794B794A79434
:1052B0000A95D1F7A22AB32AC42AD52AA60CB71C6C
:1052C000C81CD91C2D968CAD9DADAEADBFAD2D9734
:1052D0008A52984FA84CBC43E980FA800B811C810C
:1052E0008E0D9F1DA01FB11FA60195012221332104
:1052F0004421552182017101E094F09400951095AC
:10530000E620F720082119212E293F29402B512B77
:10531000820F931FA41FB51F9C01AD0119E0220F3E
:10532000331F441F551F1A95D1F77C018D01F7E1FA
:1053300016950795F794E794FA95D1F7E22AF32AA0
:10534000042B152BEA0CFB1C0C1D1D1DE982FA8297
:105350000B831C8389A19AA1ABA1BCA18957924F51
:10536000AA42BB40820D931DA41DB51DA801970143
:10537000262137214821592184017301E094F094BA
:1053800000951095EA20FB200C211D212E293F2994
:10539000402B512B820F931FA41FB51F9C01AD0101
:1053A000EEE0220F331F441F551FEA95D1F71C0171
:1053B0002D0172E156944794379427947A95D1F74A
:1053C000222A332A442A552A09811A812B813C81B9
:1053D000200E311E421E531E8DA99EA9AFA9B8AD45
:1053E00083519B4EA54ABA4B860D971DA81DB91D2A
:1053F000A20191012A213B214C215D2186017501E9
:10540000E094F0940095109569807A808B809C8060
:10541000E620F720082119212E293F29402B512B66
:10542000820F931FA41FB51F9C01AD0164E1220FE1
:10543000331F441F551F6A95D1F73C014D010CE005
:1054400096948794779467940A95D1F7622A732A81
:10545000842A952A620C731C841C951C29968CAD99
:105460009DADAEADBFAD29978B5F9641AC41B645C2
:105470008A0D9B1DAC1DBD1D29813A814B815C812C
:105480002621372148215921E980FA800B811C818E
:10549000E094F09400951095E220F320042115216A
:1054A0002E293F29402B512B820F931FA41FB51F7C
:1054B0009C01AD0115E0220F331F441F551F1A95A3
:1054C000D1F75C016D01FBE1D694C794B794A79422
:1054D000FA95D1F7A22AB32AC42AD52AA60CB71C5A
:1054E000C81CD91C8D8D9E8DAF8DB8A188509C4550
:1054F000A041B340E980FA800B811C818E0D9F1D75
:10550000A01FB11FA601950122213321442155215D
:1055100082017101E094F09400951095E620F72047
:10552000082119212E293F29402B512B820F931F2F
:10553000A41FB51F9C01AD01E9E0220F331F441FDA
:10554000551FEA95D1F77C018D0177E116950795F6
:10555000F794E7947A95D1F7E22AF32A042B152BD6
:10556000EA0CFB1C0C1D1D1DE982FA820B831C83B7
:1055700089A99AA9ABA9BCA987529D4FA049B8494E
:10558000820D931DA41DB51DA80197012621372169
:105590004821592184017301E094F09400951095FD
:1055A000EA20FB200C211D212E293F29402B512BC5
:1055B000820F931FA41FB51F9C01AD016EE0220F47
:1055C000331F441F551F6A95D1F71C012D0102E1BD
:1055D00056944794379427940A95D1F7222A332A70
:1055E000442A552A09811A812B813C81200E311EC3
:1055F000421E531E25962CAD3DAD4EAD5FAD259799
:105600002657334B454D5247260D371D481D591D12
:10561000D201C1018A219B21AC21BD2186017501E6
:10562000E094F0940095109569807A808B809C803E
:10563000E620F720082119218E299F29A02BB12BC4
:10564000280F391F4A1F5B1FDA01C90114E1880FB7
:10565000991FAA1FBB1F1A95D1F7FCE056954795D5
:1056600037952795FA95D1F7282B392B4A2B5B2BA9
:10567000220D331D441D551D89A59AA5ABA5BCA5BA
:105680008E5B964CA540B0408A0D9B1DAC1DBD1D88
:1056900084017301E224F32404251525E226F32670
:1056A000042715278E0D9F1DA01FB11F7C018D01A2
:1056B000E4E0EE0CFF1C001F111FEA95D1F73C013E
:1056C0004D017CE196948794779467947A95D1F70D
:1056D0006E287F28802A912A620E731E841E951ED2
:1056E0008DA99EA9AFA9B8AD8F579940AE48B847CC
:1056F000A980BA80CB80DC808A0D9B1DAC1DBD1DAE
:1057000079018A01E224F32404251525E624F724EF
:10571000082519258E0D9F1DA01FB11F7C018D012D
:105720006BE0EE0CFF1C001F111F6A95D1F75C01A6
:105730006D0185E1D694C794B794A7948A95D1F763
:10574000AE28BF28C02AD12AA60CB71CC81CD91C59
:1057500021968CAD9DADAEADBFAD21978E5D9E49BE
:10576000A246B249820D931DA41DB51D840173018B
:10577000E226F32604271527EA24FB240C251D2501
:105780008E0D9F1DA01FB11F2C011D012A0C3B1C5B
:105790004C1C5D1C2D968CAD9DADAEADBFAD2D9757
:1057A000845F974CAA41B240820F931FA41FB51F7C
:1057B000A60195012625372548255925222533257B
:1057C00044255525820F931FA41FB51F9C01AD01D1
:1057D00017E1220F331F441F551F1A95D1F7F9E027
:1057E000B695A79597958795FA95D1F7822B932B28
:1057F000A42BB52B820D931DA41DB51D298D3A8DAB
:105800004B8D5C8D2C5B354141445B45260D371D2E
:10581000481D591D82017101EA24FB240C251D2518
:10582000E826F9260A271B272E0D3F1D401F511F72
:1058300079018A01E4E0EE0CFF1C001F111FEA95BC
:10584000D1F739014A017CE1969487947794679463
:105850007A95D1F76E287F28802A912A680E791EC2
:105860008A1E9B1E2DA13EA14FA158A5275530434E
:105870004142544B2A0D3B1D4C1D5D1D7C018D0189
:10588000E224F32404251525E624F7240825192508
:105890002E0D3F1D401F511F79018A016BE0EE0C58
:1058A000FF1C001F111F6A95D1F759016A0125E1FC
:1058B000D694C794B794A7942A95D1F7AE28BF2859
:1058C000C02AD12AA60CB71CC81CD91C29A93AA9E0
:1058D0004BA95CA9205A344B44445940220D331D36
:1058E000441D551D84017301E826F9260A271B274C
:1058F000EA24FB240C251D252E0D3F1D401F511FA2
:1059000029011A012A0C3B1C4C1C5D1C29853A8577
:105910004B855C852059334440445144280F391F3E
:105920004A1F5B1FD601C50186259725A825B925E5
:1059300082259325A425B525280F391F4A1F5B1FF3
:1059400079018A01A7E1EE0CFF1C001F111FAA9527
:10595000D1F7DA01C901F9E0B695A7959795879532
:10596000FA95D1F78E299F29A02BB12B820D931D7B
:10597000A41DB51D29962CAD3DAD4EAD5FAD29974B
:105980002A5331484446574D260D371D481D591D91
:1059900082017101EA24FB240C251D25E826F92645
:1059A0000A271B272E0D3F1D401F511F79018A0119
:1059B000E4E0EE0CFF1C001F111FEA95D1F739013E
:1059C0004A017CE196948794779467947A95D1F70D
:1059D0006E287F28802A912A680E791E8A1E9B1EB7
:1059E0002D893E894F89588D2650384D4E45554159
:1059F0002A0D3B1D4C1D5D1D7C018D01E224F3240D
:105A000004251525E624F724082519252E0D3F1D0C
:105A1000401F511F79018A016BE0EE0CFF1C001F33
:105A2000111F6A95D1F759016A0125E1D694C794EF
:105A3000B794A7942A95D1F7AE28BF28C02AD12AB7
:105A4000A60CB71CC81CD91C29A13AA14BA15CA16A
:105A50002B573F4C40415B42220D331D441D551DC9
:105A600084017301E826F9260A271B27EA24FB2470
:105A70000C251D252E0D3F1D401F511F29011A0108
:105A80002A0C3B1C4C1C5D1C2DA53EA54FA558A9FE
:105A90002B5F324E47475B4F280F391F4A1F5B1F52
:105AA000D601C50186259725A825B92582259325E8
:105AB000A425B525280F391F4A1F5B1F79018A01CC
:105AC000A7E1EE0CFF1C001F111FAA95D1F7DA0108
:105AD000C901F9E0B695A79597958795FA95D1F7FD
